{
	"MultiSigWalletFactory.sol": {
		"MultiSigWalletFactory": {
			"abi": [
				{
					"constant": true,
					"inputs": [
						{
							"name": "",
							"type": "address"
						}
					],
					"name": "isInstantiation",
					"outputs": [
						{
							"name": "",
							"type": "bool"
						}
					],
					"payable": false,
					"stateMutability": "view",
					"type": "function"
				},
				{
					"constant": true,
					"inputs": [
						{
							"name": "",
							"type": "address"
						},
						{
							"name": "",
							"type": "uint256"
						}
					],
					"name": "instantiations",
					"outputs": [
						{
							"name": "",
							"type": "address"
						}
					],
					"payable": false,
					"stateMutability": "view",
					"type": "function"
				},
				{
					"constant": true,
					"inputs": [
						{
							"name": "creator",
							"type": "address"
						}
					],
					"name": "getInstantiationCount",
					"outputs": [
						{
							"name": "",
							"type": "uint256"
						}
					],
					"payable": false,
					"stateMutability": "view",
					"type": "function"
				},
				{
					"constant": false,
					"inputs": [
						{
							"name": "_owners",
							"type": "address[]"
						},
						{
							"name": "_required",
							"type": "uint256"
						}
					],
					"name": "create",
					"outputs": [
						{
							"name": "wallet",
							"type": "address"
						}
					],
					"payable": false,
					"stateMutability": "nonpayable",
					"type": "function"
				},
				{
					"anonymous": false,
					"inputs": [
						{
							"indexed": false,
							"name": "sender",
							"type": "address"
						},
						{
							"indexed": false,
							"name": "instantiation",
							"type": "address"
						}
					],
					"name": "ContractInstantiation",
					"type": "event"
				}
			],
			"devdoc": {
				"author": "Stefan George - <stefan.george@consensys.net>",
				"methods": {
					"create(address[],uint256)": {
						"details": "Allows verified creation of multisignature wallet.",
						"params": {
							"_owners": "List of initial owners.",
							"_required": "Number of required confirmations."
						},
						"return": "Returns wallet address."
					},
					"getInstantiationCount(address)": {
						"details": "Returns number of instantiations by creator.",
						"params": {
							"creator": "Contract creator."
						},
						"return": "Returns number of instantiations by creator."
					}
				},
				"title": "Multisignature wallet factory - Allows creation of multisig wallet."
			},
			"evm": {
				"assembly": "    /* \"MultiSigWalletFactory.sol\":219:712  contract MultiSigWalletFactory is Factory {... */\n  mstore(0x40, 0x80)\n  callvalue\n    /* \"--CODEGEN--\":8:17   */\n  dup1\n    /* \"--CODEGEN--\":5:7   */\n  iszero\n  tag_1\n  jumpi\n    /* \"--CODEGEN--\":30:31   */\n  0x0\n    /* \"--CODEGEN--\":27:28   */\n  dup1\n    /* \"--CODEGEN--\":20:32   */\n  revert\n    /* \"--CODEGEN--\":5:7   */\ntag_1:\n    /* \"MultiSigWalletFactory.sol\":219:712  contract MultiSigWalletFactory is Factory {... */\n  pop\n  dataSize(sub_0)\n  dup1\n  dataOffset(sub_0)\n  0x0\n  codecopy\n  0x0\n  return\nstop\n\nsub_0: assembly {\n        /* \"MultiSigWalletFactory.sol\":219:712  contract MultiSigWalletFactory is Factory {... */\n      mstore(0x40, 0x80)\n      jumpi(tag_1, lt(calldatasize, 0x4))\n      calldataload(0x0)\n      0x100000000000000000000000000000000000000000000000000000000\n      swap1\n      div\n      0xffffffff\n      and\n      dup1\n      0x2f4f3316\n      eq\n      tag_2\n      jumpi\n      dup1\n      0x57183c82\n      eq\n      tag_3\n      jumpi\n      dup1\n      0x8f838478\n      eq\n      tag_4\n      jumpi\n      dup1\n      0xf8f73808\n      eq\n      tag_5\n      jumpi\n    tag_1:\n      0x0\n      dup1\n      revert\n        /* \"Factory.sol\":184:231  mapping(address => bool) public isInstantiation */\n    tag_2:\n      callvalue\n        /* \"--CODEGEN--\":8:17   */\n      dup1\n        /* \"--CODEGEN--\":5:7   */\n      iszero\n      tag_6\n      jumpi\n        /* \"--CODEGEN--\":30:31   */\n      0x0\n        /* \"--CODEGEN--\":27:28   */\n      dup1\n        /* \"--CODEGEN--\":20:32   */\n      revert\n        /* \"--CODEGEN--\":5:7   */\n    tag_6:\n        /* \"Factory.sol\":184:231  mapping(address => bool) public isInstantiation */\n      pop\n      tag_7\n      0x4\n      dup1\n      calldatasize\n      sub\n      dup2\n      add\n      swap1\n      dup1\n      dup1\n      calldataload\n      0xffffffffffffffffffffffffffffffffffffffff\n      and\n      swap1\n      0x20\n      add\n      swap1\n      swap3\n      swap2\n      swap1\n      pop\n      pop\n      pop\n      jump(tag_8)\n    tag_7:\n      mload(0x40)\n      dup1\n      dup3\n      iszero\n      iszero\n      iszero\n      iszero\n      dup2\n      mstore\n      0x20\n      add\n      swap2\n      pop\n      pop\n      mload(0x40)\n      dup1\n      swap2\n      sub\n      swap1\n      return\n        /* \"Factory.sol\":237:288  mapping(address => address[]) public instantiations */\n    tag_3:\n      callvalue\n        /* \"--CODEGEN--\":8:17   */\n      dup1\n        /* \"--CODEGEN--\":5:7   */\n      iszero\n      tag_9\n      jumpi\n        /* \"--CODEGEN--\":30:31   */\n      0x0\n        /* \"--CODEGEN--\":27:28   */\n      dup1\n        /* \"--CODEGEN--\":20:32   */\n      revert\n        /* \"--CODEGEN--\":5:7   */\n    tag_9:\n        /* \"Factory.sol\":237:288  mapping(address => address[]) public instantiations */\n      pop\n      tag_10\n      0x4\n      dup1\n      calldatasize\n      sub\n      dup2\n      add\n      swap1\n      dup1\n      dup1\n      calldataload\n      0xffffffffffffffffffffffffffffffffffffffff\n      and\n      swap1\n      0x20\n      add\n      swap1\n      swap3\n      swap2\n      swap1\n      dup1\n      calldataload\n      swap1\n      0x20\n      add\n      swap1\n      swap3\n      swap2\n      swap1\n      pop\n      pop\n      pop\n      jump(tag_11)\n    tag_10:\n      mload(0x40)\n      dup1\n      dup3\n      0xffffffffffffffffffffffffffffffffffffffff\n      and\n      0xffffffffffffffffffffffffffffffffffffffff\n      and\n      dup2\n      mstore\n      0x20\n      add\n      swap2\n      pop\n      pop\n      mload(0x40)\n      dup1\n      swap2\n      sub\n      swap1\n      return\n        /* \"Factory.sol\":494:655  function getInstantiationCount(address creator)... */\n    tag_4:\n      callvalue\n        /* \"--CODEGEN--\":8:17   */\n      dup1\n        /* \"--CODEGEN--\":5:7   */\n      iszero\n      tag_12\n      jumpi\n        /* \"--CODEGEN--\":30:31   */\n      0x0\n        /* \"--CODEGEN--\":27:28   */\n      dup1\n        /* \"--CODEGEN--\":20:32   */\n      revert\n        /* \"--CODEGEN--\":5:7   */\n    tag_12:\n        /* \"Factory.sol\":494:655  function getInstantiationCount(address creator)... */\n      pop\n      tag_13\n      0x4\n      dup1\n      calldatasize\n      sub\n      dup2\n      add\n      swap1\n      dup1\n      dup1\n      calldataload\n      0xffffffffffffffffffffffffffffffffffffffff\n      and\n      swap1\n      0x20\n      add\n      swap1\n      swap3\n      swap2\n      swap1\n      pop\n      pop\n      pop\n      jump(tag_14)\n    tag_13:\n      mload(0x40)\n      dup1\n      dup3\n      dup2\n      mstore\n      0x20\n      add\n      swap2\n      pop\n      pop\n      mload(0x40)\n      dup1\n      swap2\n      sub\n      swap1\n      return\n        /* \"MultiSigWalletFactory.sol\":517:710  function create(address[] _owners, uint _required)... */\n    tag_5:\n      callvalue\n        /* \"--CODEGEN--\":8:17   */\n      dup1\n        /* \"--CODEGEN--\":5:7   */\n      iszero\n      tag_15\n      jumpi\n        /* \"--CODEGEN--\":30:31   */\n      0x0\n        /* \"--CODEGEN--\":27:28   */\n      dup1\n        /* \"--CODEGEN--\":20:32   */\n      revert\n        /* \"--CODEGEN--\":5:7   */\n    tag_15:\n        /* \"MultiSigWalletFactory.sol\":517:710  function create(address[] _owners, uint _required)... */\n      pop\n      tag_16\n      0x4\n      dup1\n      calldatasize\n      sub\n      dup2\n      add\n      swap1\n      dup1\n      dup1\n      calldataload\n      swap1\n      0x20\n      add\n      swap1\n      dup3\n      add\n      dup1\n      calldataload\n      swap1\n      0x20\n      add\n      swap1\n      dup1\n      dup1\n      0x20\n      mul\n      0x20\n      add\n      mload(0x40)\n      swap1\n      dup2\n      add\n      0x40\n      mstore\n      dup1\n      swap4\n      swap3\n      swap2\n      swap1\n      dup2\n      dup2\n      mstore\n      0x20\n      add\n      dup4\n      dup4\n      0x20\n      mul\n      dup1\n      dup3\n      dup5\n      calldatacopy\n      dup3\n      add\n      swap2\n      pop\n      pop\n      pop\n      pop\n      pop\n      pop\n      swap2\n      swap3\n      swap2\n      swap3\n      swap1\n      dup1\n      calldataload\n      swap1\n      0x20\n      add\n      swap1\n      swap3\n      swap2\n      swap1\n      pop\n      pop\n      pop\n      jump(tag_17)\n    tag_16:\n      mload(0x40)\n      dup1\n      dup3\n      0xffffffffffffffffffffffffffffffffffffffff\n      and\n      0xffffffffffffffffffffffffffffffffffffffff\n      and\n      dup2\n      mstore\n      0x20\n      add\n      swap2\n      pop\n      pop\n      mload(0x40)\n      dup1\n      swap2\n      sub\n      swap1\n      return\n        /* \"Factory.sol\":184:231  mapping(address => bool) public isInstantiation */\n    tag_8:\n      mstore(0x20, 0x0)\n      dup1\n      0x0\n      mstore\n      keccak256(0x0, 0x40)\n      0x0\n      swap2\n      pop\n      sload\n      swap1\n      0x100\n      exp\n      swap1\n      div\n      0xff\n      and\n      dup2\n      jump\t// out\n        /* \"Factory.sol\":237:288  mapping(address => address[]) public instantiations */\n    tag_11:\n      mstore(0x20, 0x1)\n      dup2\n      0x0\n      mstore\n      keccak256(0x0, 0x40)\n      dup2\n      dup2\n      sload\n      dup2\n      lt\n      iszero\n      iszero\n      tag_18\n      jumpi\n      invalid\n    tag_18:\n      swap1\n      0x0\n      mstore\n      keccak256(0x0, 0x20)\n      add\n      0x0\n      swap2\n      pop\n      swap2\n      pop\n      swap1\n      sload\n      swap1\n      0x100\n      exp\n      swap1\n      div\n      0xffffffffffffffffffffffffffffffffffffffff\n      and\n      dup2\n      jump\t// out\n        /* \"Factory.sol\":494:655  function getInstantiationCount(address creator)... */\n    tag_14:\n        /* \"Factory.sol\":591:595  uint */\n      0x0\n        /* \"Factory.sol\":618:632  instantiations */\n      0x1\n        /* \"Factory.sol\":618:641  instantiations[creator] */\n      0x0\n        /* \"Factory.sol\":633:640  creator */\n      dup4\n        /* \"Factory.sol\":618:641  instantiations[creator] */\n      0xffffffffffffffffffffffffffffffffffffffff\n      and\n      0xffffffffffffffffffffffffffffffffffffffff\n      and\n      dup2\n      mstore\n      0x20\n      add\n      swap1\n      dup2\n      mstore\n      0x20\n      add\n      0x0\n      keccak256\n        /* \"Factory.sol\":618:648  instantiations[creator].length */\n      dup1\n      sload\n      swap1\n      pop\n        /* \"Factory.sol\":611:648  return instantiations[creator].length */\n      swap1\n      pop\n        /* \"Factory.sol\":494:655  function getInstantiationCount(address creator)... */\n      swap2\n      swap1\n      pop\n      jump\t// out\n        /* \"MultiSigWalletFactory.sol\":517:710  function create(address[] _owners, uint _required)... */\n    tag_17:\n        /* \"MultiSigWalletFactory.sol\":600:614  address wallet */\n      0x0\n        /* \"MultiSigWalletFactory.sol\":658:665  _owners */\n      dup3\n        /* \"MultiSigWalletFactory.sol\":667:676  _required */\n      dup3\n        /* \"MultiSigWalletFactory.sol\":639:677  new MultiSigWallet(_owners, _required) */\n      tag_22\n      jump\t// in(tag_23)\n    tag_22:\n      dup1\n      dup1\n      0x20\n      add\n      dup4\n      dup2\n      mstore\n      0x20\n      add\n      dup3\n      dup2\n      sub\n      dup3\n      mstore\n      dup5\n      dup2\n      dup2\n      mload\n      dup2\n      mstore\n      0x20\n      add\n      swap2\n      pop\n      dup1\n      mload\n      swap1\n      0x20\n      add\n      swap1\n      0x20\n      mul\n      dup1\n      dup4\n      dup4\n        /* \"--CODEGEN--\":23:24   */\n      0x0\n        /* \"--CODEGEN--\":8:108   */\n    tag_24:\n        /* \"--CODEGEN--\":33:36   */\n      dup4\n        /* \"--CODEGEN--\":30:31   */\n      dup2\n        /* \"--CODEGEN--\":27:37   */\n      lt\n        /* \"--CODEGEN--\":8:108   */\n      iszero\n      tag_25\n      jumpi\n        /* \"--CODEGEN--\":99:100   */\n      dup1\n        /* \"--CODEGEN--\":94:97   */\n      dup3\n        /* \"--CODEGEN--\":90:101   */\n      add\n        /* \"--CODEGEN--\":84:102   */\n      mload\n        /* \"--CODEGEN--\":80:81   */\n      dup2\n        /* \"--CODEGEN--\":75:78   */\n      dup5\n        /* \"--CODEGEN--\":71:82   */\n      add\n        /* \"--CODEGEN--\":64:103   */\n      mstore\n        /* \"--CODEGEN--\":52:54   */\n      0x20\n        /* \"--CODEGEN--\":49:50   */\n      dup2\n        /* \"--CODEGEN--\":45:55   */\n      add\n        /* \"--CODEGEN--\":40:55   */\n      swap1\n      pop\n        /* \"--CODEGEN--\":8:108   */\n      jump(tag_24)\n    tag_25:\n        /* \"--CODEGEN--\":12:26   */\n      pop\n        /* \"MultiSigWalletFactory.sol\":639:677  new MultiSigWallet(_owners, _required) */\n      pop\n      pop\n      pop\n      swap1\n      pop\n      add\n      swap4\n      pop\n      pop\n      pop\n      pop\n      mload(0x40)\n      dup1\n      swap2\n      sub\n      swap1\n      0x0\n      create\n      dup1\n      iszero\n        /* \"--CODEGEN--\":8:17   */\n      dup1\n        /* \"--CODEGEN--\":5:7   */\n      iszero\n      tag_27\n      jumpi\n        /* \"--CODEGEN--\":45:61   */\n      returndatasize\n        /* \"--CODEGEN--\":42:43   */\n      0x0\n        /* \"--CODEGEN--\":39:40   */\n      dup1\n        /* \"--CODEGEN--\":24:62   */\n      returndatacopy\n        /* \"--CODEGEN--\":77:93   */\n      returndatasize\n        /* \"--CODEGEN--\":74:75   */\n      0x0\n        /* \"--CODEGEN--\":67:94   */\n      revert\n        /* \"--CODEGEN--\":5:7   */\n    tag_27:\n        /* \"MultiSigWalletFactory.sol\":639:677  new MultiSigWallet(_owners, _required) */\n      pop\n        /* \"MultiSigWalletFactory.sol\":630:677  wallet = new MultiSigWallet(_owners, _required) */\n      swap1\n      pop\n        /* \"MultiSigWalletFactory.sol\":687:703  register(wallet) */\n      tag_28\n        /* \"MultiSigWalletFactory.sol\":696:702  wallet */\n      dup2\n        /* \"MultiSigWalletFactory.sol\":687:695  register */\n      tag_29\n        /* \"MultiSigWalletFactory.sol\":687:703  register(wallet) */\n      jump\t// in\n    tag_28:\n        /* \"MultiSigWalletFactory.sol\":517:710  function create(address[] _owners, uint _required)... */\n      swap3\n      swap2\n      pop\n      pop\n      jump\t// out\n        /* \"Factory.sol\":819:1049  function register(address instantiation)... */\n    tag_29:\n        /* \"Factory.sol\":924:928  true */\n      0x1\n        /* \"Factory.sol\":891:906  isInstantiation */\n      0x0\n        /* \"Factory.sol\":891:921  isInstantiation[instantiation] */\n      dup1\n        /* \"Factory.sol\":907:920  instantiation */\n      dup4\n        /* \"Factory.sol\":891:921  isInstantiation[instantiation] */\n      0xffffffffffffffffffffffffffffffffffffffff\n      and\n      0xffffffffffffffffffffffffffffffffffffffff\n      and\n      dup2\n      mstore\n      0x20\n      add\n      swap1\n      dup2\n      mstore\n      0x20\n      add\n      0x0\n      keccak256\n      0x0\n        /* \"Factory.sol\":891:928  isInstantiation[instantiation] = true */\n      0x100\n      exp\n      dup2\n      sload\n      dup2\n      0xff\n      mul\n      not\n      and\n      swap1\n      dup4\n      iszero\n      iszero\n      mul\n      or\n      swap1\n      sstore\n      pop\n        /* \"Factory.sol\":938:952  instantiations */\n      0x1\n        /* \"Factory.sol\":938:964  instantiations[msg.sender] */\n      0x0\n        /* \"Factory.sol\":953:963  msg.sender */\n      caller\n        /* \"Factory.sol\":938:964  instantiations[msg.sender] */\n      0xffffffffffffffffffffffffffffffffffffffff\n      and\n      0xffffffffffffffffffffffffffffffffffffffff\n      and\n      dup2\n      mstore\n      0x20\n      add\n      swap1\n      dup2\n      mstore\n      0x20\n      add\n      0x0\n      keccak256\n        /* \"Factory.sol\":970:983  instantiation */\n      dup2\n        /* \"Factory.sol\":938:984  instantiations[msg.sender].push(instantiation) */\n      swap1\n      dup1\n        /* \"--CODEGEN--\":39:40   */\n      0x1\n        /* \"--CODEGEN--\":33:36   */\n      dup2\n        /* \"--CODEGEN--\":27:37   */\n      sload\n        /* \"--CODEGEN--\":23:41   */\n      add\n        /* \"--CODEGEN--\":57:67   */\n      dup1\n        /* \"--CODEGEN--\":52:55   */\n      dup3\n        /* \"--CODEGEN--\":45:68   */\n      sstore\n        /* \"--CODEGEN--\":79:89   */\n      dup1\n        /* \"--CODEGEN--\":72:89   */\n      swap2\n      pop\n        /* \"--CODEGEN--\":0:93   */\n      pop\n        /* \"Factory.sol\":938:984  instantiations[msg.sender].push(instantiation) */\n      swap1\n      0x1\n      dup3\n      sub\n      swap1\n      0x0\n      mstore\n      keccak256(0x0, 0x20)\n      add\n      0x0\n      swap1\n      swap2\n      swap3\n      swap1\n      swap2\n      swap1\n      swap2\n      0x100\n      exp\n      dup2\n      sload\n      dup2\n      0xffffffffffffffffffffffffffffffffffffffff\n      mul\n      not\n      and\n      swap1\n      dup4\n      0xffffffffffffffffffffffffffffffffffffffff\n      and\n      mul\n      or\n      swap1\n      sstore\n      pop\n      pop\n        /* \"Factory.sol\":994:1042  ContractInstantiation(msg.sender, instantiation) */\n      0x4fb057ad4a26ed17a57957fa69c306f11987596069b89521c511fc9a894e6161\n        /* \"Factory.sol\":1016:1026  msg.sender */\n      caller\n        /* \"Factory.sol\":1028:1041  instantiation */\n      dup3\n        /* \"Factory.sol\":994:1042  ContractInstantiation(msg.sender, instantiation) */\n      mload(0x40)\n      dup1\n      dup4\n      0xffffffffffffffffffffffffffffffffffffffff\n      and\n      0xffffffffffffffffffffffffffffffffffffffff\n      and\n      dup2\n      mstore\n      0x20\n      add\n      dup3\n      0xffffffffffffffffffffffffffffffffffffffff\n      and\n      0xffffffffffffffffffffffffffffffffffffffff\n      and\n      dup2\n      mstore\n      0x20\n      add\n      swap3\n      pop\n      pop\n      pop\n      mload(0x40)\n      dup1\n      swap2\n      sub\n      swap1\n      log1\n        /* \"Factory.sol\":819:1049  function register(address instantiation)... */\n      pop\n      jump\t// out\n        /* \"MultiSigWalletFactory.sol\":219:712  contract MultiSigWalletFactory is Factory {... */\n    tag_23:\n      mload(0x40)\n      dataSize(sub_0)\n      dup1\n      dataOffset(sub_0)\n      dup4\n      codecopy\n      add\n      swap1\n      jump\t// out\n    stop\n\n    sub_0: assembly {\n            /* \"MultiSigWallet.sol\":187:12815  contract MultiSigWallet {... */\n          mstore(0x40, 0x80)\n            /* \"MultiSigWallet.sol\":2816:3169  function MultiSigWallet(address[] _owners, uint _required)... */\n          callvalue\n            /* \"--CODEGEN--\":8:17   */\n          dup1\n            /* \"--CODEGEN--\":5:7   */\n          iszero\n          tag_1\n          jumpi\n            /* \"--CODEGEN--\":30:31   */\n          0x0\n            /* \"--CODEGEN--\":27:28   */\n          dup1\n            /* \"--CODEGEN--\":20:32   */\n          revert\n            /* \"--CODEGEN--\":5:7   */\n        tag_1:\n            /* \"MultiSigWallet.sol\":2816:3169  function MultiSigWallet(address[] _owners, uint _required)... */\n          pop\n          mload(0x40)\n          sub(codesize, bytecodeSize)\n          dup1\n          bytecodeSize\n          dup4\n          codecopy\n          dup2\n          add\n          dup1\n          0x40\n          mstore\n          dup2\n          add\n          swap1\n          dup1\n          dup1\n          mload\n          dup3\n          add\n          swap3\n          swap2\n          swap1\n          0x20\n          add\n          dup1\n          mload\n          swap1\n          0x20\n          add\n          swap1\n          swap3\n          swap2\n          swap1\n          pop\n          pop\n          pop\n            /* \"MultiSigWallet.sol\":2961:2967  uint i */\n          0x0\n            /* \"MultiSigWallet.sol\":2915:2922  _owners */\n          dup3\n            /* \"MultiSigWallet.sol\":2915:2929  _owners.length */\n          mload\n            /* \"MultiSigWallet.sol\":2931:2940  _required */\n          dup3\n            /* \"MultiSigWallet.sol\":820:822  50 */\n          0x32\n            /* \"MultiSigWallet.sol\":2254:2264  ownerCount */\n          dup3\n            /* \"MultiSigWallet.sol\":2254:2283  ownerCount <= MAX_OWNER_COUNT */\n          gt\n          iszero\n            /* \"MultiSigWallet.sol\":2254:2322  ownerCount <= MAX_OWNER_COUNT... */\n          dup1\n          iszero\n          tag_4\n          jumpi\n          pop\n            /* \"MultiSigWallet.sol\":2312:2322  ownerCount */\n          dup2\n            /* \"MultiSigWallet.sol\":2299:2308  _required */\n          dup2\n            /* \"MultiSigWallet.sol\":2299:2322  _required <= ownerCount */\n          gt\n          iszero\n            /* \"MultiSigWallet.sol\":2254:2322  ownerCount <= MAX_OWNER_COUNT... */\n        tag_4:\n            /* \"MultiSigWallet.sol\":2254:2352  ownerCount <= MAX_OWNER_COUNT... */\n          dup1\n          iszero\n          tag_5\n          jumpi\n          pop\n            /* \"MultiSigWallet.sol\":2351:2352  0 */\n          0x0\n            /* \"MultiSigWallet.sol\":2338:2347  _required */\n          dup2\n            /* \"MultiSigWallet.sol\":2338:2352  _required != 0 */\n          eq\n          iszero\n            /* \"MultiSigWallet.sol\":2254:2352  ownerCount <= MAX_OWNER_COUNT... */\n        tag_5:\n            /* \"MultiSigWallet.sol\":2254:2383  ownerCount <= MAX_OWNER_COUNT... */\n          dup1\n          iszero\n          tag_6\n          jumpi\n          pop\n            /* \"MultiSigWallet.sol\":2382:2383  0 */\n          0x0\n            /* \"MultiSigWallet.sol\":2368:2378  ownerCount */\n          dup3\n            /* \"MultiSigWallet.sol\":2368:2383  ownerCount != 0 */\n          eq\n          iszero\n            /* \"MultiSigWallet.sol\":2254:2383  ownerCount <= MAX_OWNER_COUNT... */\n        tag_6:\n            /* \"MultiSigWallet.sol\":2246:2384  require(ownerCount <= MAX_OWNER_COUNT... */\n          iszero\n          iszero\n          tag_7\n          jumpi\n          0x0\n          dup1\n          revert\n        tag_7:\n            /* \"MultiSigWallet.sol\":2968:2969  0 */\n          0x0\n            /* \"MultiSigWallet.sol\":2961:2969  uint i=0 */\n          swap3\n          pop\n            /* \"MultiSigWallet.sol\":2956:3107  for (uint i=0; i<_owners.length; i++) {... */\n        tag_9:\n            /* \"MultiSigWallet.sol\":2973:2980  _owners */\n          dup5\n            /* \"MultiSigWallet.sol\":2973:2987  _owners.length */\n          mload\n            /* \"MultiSigWallet.sol\":2971:2972  i */\n          dup4\n            /* \"MultiSigWallet.sol\":2971:2987  i<_owners.length */\n          lt\n            /* \"MultiSigWallet.sol\":2956:3107  for (uint i=0; i<_owners.length; i++) {... */\n          iszero\n          tag_10\n          jumpi\n            /* \"MultiSigWallet.sol\":3017:3024  isOwner */\n          0x2\n            /* \"MultiSigWallet.sol\":3017:3036  isOwner[_owners[i]] */\n          0x0\n            /* \"MultiSigWallet.sol\":3025:3032  _owners */\n          dup7\n            /* \"MultiSigWallet.sol\":3033:3034  i */\n          dup6\n            /* \"MultiSigWallet.sol\":3025:3035  _owners[i] */\n          dup2\n          mload\n          dup2\n          lt\n          iszero\n          iszero\n          tag_12\n          jumpi\n          invalid\n        tag_12:\n          swap1\n          0x20\n          add\n          swap1\n          0x20\n          mul\n          add\n          mload\n            /* \"MultiSigWallet.sol\":3017:3036  isOwner[_owners[i]] */\n          0xffffffffffffffffffffffffffffffffffffffff\n          and\n          0xffffffffffffffffffffffffffffffffffffffff\n          and\n          dup2\n          mstore\n          0x20\n          add\n          swap1\n          dup2\n          mstore\n          0x20\n          add\n          0x0\n          keccak256\n          0x0\n          swap1\n          sload\n          swap1\n          0x100\n          exp\n          swap1\n          div\n          0xff\n          and\n            /* \"MultiSigWallet.sol\":3016:3036  !isOwner[_owners[i]] */\n          iszero\n            /* \"MultiSigWallet.sol\":3016:3055  !isOwner[_owners[i]] && _owners[i] != 0 */\n          dup1\n          iszero\n          tag_13\n          jumpi\n          pop\n            /* \"MultiSigWallet.sol\":3054:3055  0 */\n          0x0\n            /* \"MultiSigWallet.sol\":3040:3047  _owners */\n          dup6\n            /* \"MultiSigWallet.sol\":3048:3049  i */\n          dup5\n            /* \"MultiSigWallet.sol\":3040:3050  _owners[i] */\n          dup2\n          mload\n          dup2\n          lt\n          iszero\n          iszero\n          tag_14\n          jumpi\n          invalid\n        tag_14:\n          swap1\n          0x20\n          add\n          swap1\n          0x20\n          mul\n          add\n          mload\n            /* \"MultiSigWallet.sol\":3040:3055  _owners[i] != 0 */\n          0xffffffffffffffffffffffffffffffffffffffff\n          and\n          eq\n          iszero\n            /* \"MultiSigWallet.sol\":3016:3055  !isOwner[_owners[i]] && _owners[i] != 0 */\n        tag_13:\n            /* \"MultiSigWallet.sol\":3008:3056  require(!isOwner[_owners[i]] && _owners[i] != 0) */\n          iszero\n          iszero\n          tag_15\n          jumpi\n          0x0\n          dup1\n          revert\n        tag_15:\n            /* \"MultiSigWallet.sol\":3092:3096  true */\n          0x1\n            /* \"MultiSigWallet.sol\":3070:3077  isOwner */\n          0x2\n            /* \"MultiSigWallet.sol\":3070:3089  isOwner[_owners[i]] */\n          0x0\n            /* \"MultiSigWallet.sol\":3078:3085  _owners */\n          dup8\n            /* \"MultiSigWallet.sol\":3086:3087  i */\n          dup7\n            /* \"MultiSigWallet.sol\":3078:3088  _owners[i] */\n          dup2\n          mload\n          dup2\n          lt\n          iszero\n          iszero\n          tag_16\n          jumpi\n          invalid\n        tag_16:\n          swap1\n          0x20\n          add\n          swap1\n          0x20\n          mul\n          add\n          mload\n            /* \"MultiSigWallet.sol\":3070:3089  isOwner[_owners[i]] */\n          0xffffffffffffffffffffffffffffffffffffffff\n          and\n          0xffffffffffffffffffffffffffffffffffffffff\n          and\n          dup2\n          mstore\n          0x20\n          add\n          swap1\n          dup2\n          mstore\n          0x20\n          add\n          0x0\n          keccak256\n          0x0\n            /* \"MultiSigWallet.sol\":3070:3096  isOwner[_owners[i]] = true */\n          0x100\n          exp\n          dup2\n          sload\n          dup2\n          0xff\n          mul\n          not\n          and\n          swap1\n          dup4\n          iszero\n          iszero\n          mul\n          or\n          swap1\n          sstore\n          pop\n            /* \"MultiSigWallet.sol\":2989:2992  i++ */\n          dup3\n          dup1\n          0x1\n          add\n          swap4\n          pop\n          pop\n            /* \"MultiSigWallet.sol\":2956:3107  for (uint i=0; i<_owners.length; i++) {... */\n          jump(tag_9)\n        tag_10:\n            /* \"MultiSigWallet.sol\":3125:3132  _owners */\n          dup5\n            /* \"MultiSigWallet.sol\":3116:3122  owners */\n          0x3\n            /* \"MultiSigWallet.sol\":3116:3132  owners = _owners */\n          swap1\n          dup1\n          mload\n          swap1\n          0x20\n          add\n          swap1\n          tag_17\n          swap3\n          swap2\n          swap1\n          jump\t// in(tag_18)\n        tag_17:\n          pop\n            /* \"MultiSigWallet.sol\":3153:3162  _required */\n          dup4\n            /* \"MultiSigWallet.sol\":3142:3150  required */\n          0x4\n            /* \"MultiSigWallet.sol\":3142:3162  required = _required */\n          dup2\n          swap1\n          sstore\n          pop\n            /* \"MultiSigWallet.sol\":2816:3169  function MultiSigWallet(address[] _owners, uint _required)... */\n          pop\n          pop\n          pop\n          pop\n          pop\n            /* \"MultiSigWallet.sol\":187:12815  contract MultiSigWallet {... */\n          jump(tag_19)\n        tag_18:\n          dup3\n          dup1\n          sload\n          dup3\n          dup3\n          sstore\n          swap1\n          0x0\n          mstore\n          keccak256(0x0, 0x20)\n          swap1\n          dup2\n          add\n          swap3\n          dup3\n          iszero\n          tag_20\n          jumpi\n          swap2\n          0x20\n          mul\n          dup3\n          add\n        tag_21:\n          dup3\n          dup2\n          gt\n          iszero\n          tag_22\n          jumpi\n          dup3\n          mload\n          dup3\n          exp(0x100, 0x0)\n          dup2\n          sload\n          dup2\n          0xffffffffffffffffffffffffffffffffffffffff\n          mul\n          not\n          and\n          swap1\n          dup4\n          0xffffffffffffffffffffffffffffffffffffffff\n          and\n          mul\n          or\n          swap1\n          sstore\n          pop\n          swap2\n          0x20\n          add\n          swap2\n          swap1\n          0x1\n          add\n          swap1\n          jump(tag_21)\n        tag_22:\n        tag_20:\n          pop\n          swap1\n          pop\n          tag_23\n          swap2\n          swap1\n          jump\t// in(tag_24)\n        tag_23:\n          pop\n          swap1\n          jump\t// out\n        tag_24:\n          tag_25\n          swap2\n          swap1\n        tag_26:\n          dup1\n          dup3\n          gt\n          iszero\n          tag_27\n          jumpi\n          0x0\n          dup2\n          dup2\n          0x100\n          exp\n          dup2\n          sload\n          swap1\n          0xffffffffffffffffffffffffffffffffffffffff\n          mul\n          not\n          and\n          swap1\n          sstore\n          pop\n          0x1\n          add\n          jump(tag_26)\n        tag_27:\n          pop\n          swap1\n          jump\n        tag_25:\n          swap1\n          jump\t// out\n        tag_19:\n          dataSize(sub_0)\n          dup1\n          dataOffset(sub_0)\n          0x0\n          codecopy\n          0x0\n          return\n        stop\n\n        sub_0: assembly {\n                /* \"MultiSigWallet.sol\":187:12815  contract MultiSigWallet {... */\n              mstore(0x40, 0x80)\n              jumpi(tag_1, lt(calldatasize, 0x4))\n              calldataload(0x0)\n              0x100000000000000000000000000000000000000000000000000000000\n              swap1\n              div\n              0xffffffff\n              and\n              dup1\n              0x25e7c27\n              eq\n              tag_2\n              jumpi\n              dup1\n              0x173825d9\n              eq\n              tag_3\n              jumpi\n              dup1\n              0x20ea8d86\n              eq\n              tag_4\n              jumpi\n              dup1\n              0x2f54bf6e\n              eq\n              tag_5\n              jumpi\n              dup1\n              0x3411c81c\n              eq\n              tag_6\n              jumpi\n              dup1\n              0x54741525\n              eq\n              tag_7\n              jumpi\n              dup1\n              0x7065cb48\n              eq\n              tag_8\n              jumpi\n              dup1\n              0x784547a7\n              eq\n              tag_9\n              jumpi\n              dup1\n              0x8b51d13f\n              eq\n              tag_10\n              jumpi\n              dup1\n              0x9ace38c2\n              eq\n              tag_11\n              jumpi\n              dup1\n              0xa0e67e2b\n              eq\n              tag_12\n              jumpi\n              dup1\n              0xa8abe69a\n              eq\n              tag_13\n              jumpi\n              dup1\n              0xb5dc40c3\n              eq\n              tag_14\n              jumpi\n              dup1\n              0xb77bf600\n              eq\n              tag_15\n              jumpi\n              dup1\n              0xba51a6df\n              eq\n              tag_16\n              jumpi\n              dup1\n              0xc01a8c84\n              eq\n              tag_17\n              jumpi\n              dup1\n              0xc6427474\n              eq\n              tag_18\n              jumpi\n              dup1\n              0xd74f8edd\n              eq\n              tag_19\n              jumpi\n              dup1\n              0xdc8452cd\n              eq\n              tag_20\n              jumpi\n              dup1\n              0xe20056e6\n              eq\n              tag_21\n              jumpi\n              dup1\n              0xee22610b\n              eq\n              tag_22\n              jumpi\n            tag_1:\n                /* \"MultiSigWallet.sol\":2521:2522  0 */\n              0x0\n                /* \"MultiSigWallet.sol\":2509:2518  msg.value */\n              callvalue\n                /* \"MultiSigWallet.sol\":2509:2522  msg.value > 0 */\n              gt\n                /* \"MultiSigWallet.sol\":2505:2566  if (msg.value > 0)... */\n              iszero\n              tag_25\n              jumpi\n                /* \"MultiSigWallet.sol\":2544:2554  msg.sender */\n              caller\n                /* \"MultiSigWallet.sol\":2536:2566  Deposit(msg.sender, msg.value) */\n              0xffffffffffffffffffffffffffffffffffffffff\n              and\n              0xe1fffcc4923d04b559f4d29a8bfc6cda04eb5b0d3c460751c2402c5c5cc9109c\n                /* \"MultiSigWallet.sol\":2556:2565  msg.value */\n              callvalue\n                /* \"MultiSigWallet.sol\":2536:2566  Deposit(msg.sender, msg.value) */\n              mload(0x40)\n              dup1\n              dup3\n              dup2\n              mstore\n              0x20\n              add\n              swap2\n              pop\n              pop\n              mload(0x40)\n              dup1\n              swap2\n              sub\n              swap1\n              log2\n                /* \"MultiSigWallet.sol\":2505:2566  if (msg.value > 0)... */\n            tag_25:\n                /* \"MultiSigWallet.sol\":187:12815  contract MultiSigWallet {... */\n              stop\n                /* \"MultiSigWallet.sol\":1031:1054  address[] public owners */\n            tag_2:\n              callvalue\n                /* \"--CODEGEN--\":8:17   */\n              dup1\n                /* \"--CODEGEN--\":5:7   */\n              iszero\n              tag_26\n              jumpi\n                /* \"--CODEGEN--\":30:31   */\n              0x0\n                /* \"--CODEGEN--\":27:28   */\n              dup1\n                /* \"--CODEGEN--\":20:32   */\n              revert\n                /* \"--CODEGEN--\":5:7   */\n            tag_26:\n                /* \"MultiSigWallet.sol\":1031:1054  address[] public owners */\n              pop\n              tag_27\n              0x4\n              dup1\n              calldatasize\n              sub\n              dup2\n              add\n              swap1\n              dup1\n              dup1\n              calldataload\n              swap1\n              0x20\n              add\n              swap1\n              swap3\n              swap2\n              swap1\n              pop\n              pop\n              pop\n              jump(tag_28)\n            tag_27:\n              mload(0x40)\n              dup1\n              dup3\n              0xffffffffffffffffffffffffffffffffffffffff\n              and\n              0xffffffffffffffffffffffffffffffffffffffff\n              and\n              dup2\n              mstore\n              0x20\n              add\n              swap2\n              pop\n              pop\n              mload(0x40)\n              dup1\n              swap2\n              sub\n              swap1\n              return\n                /* \"MultiSigWallet.sol\":3696:4156  function removeOwner(address owner)... */\n            tag_3:\n              callvalue\n                /* \"--CODEGEN--\":8:17   */\n              dup1\n                /* \"--CODEGEN--\":5:7   */\n              iszero\n              tag_29\n              jumpi\n                /* \"--CODEGEN--\":30:31   */\n              0x0\n                /* \"--CODEGEN--\":27:28   */\n              dup1\n                /* \"--CODEGEN--\":20:32   */\n              revert\n                /* \"--CODEGEN--\":5:7   */\n            tag_29:\n                /* \"MultiSigWallet.sol\":3696:4156  function removeOwner(address owner)... */\n              pop\n              tag_30\n              0x4\n              dup1\n              calldatasize\n              sub\n              dup2\n              add\n              swap1\n              dup1\n              dup1\n              calldataload\n              0xffffffffffffffffffffffffffffffffffffffff\n              and\n              swap1\n              0x20\n              add\n              swap1\n              swap3\n              swap2\n              swap1\n              pop\n              pop\n              pop\n              jump(tag_31)\n            tag_30:\n              stop\n                /* \"MultiSigWallet.sol\":6262:6553  function revokeConfirmation(uint transactionId)... */\n            tag_4:\n              callvalue\n                /* \"--CODEGEN--\":8:17   */\n              dup1\n                /* \"--CODEGEN--\":5:7   */\n              iszero\n              tag_32\n              jumpi\n                /* \"--CODEGEN--\":30:31   */\n              0x0\n                /* \"--CODEGEN--\":27:28   */\n              dup1\n                /* \"--CODEGEN--\":20:32   */\n              revert\n                /* \"--CODEGEN--\":5:7   */\n            tag_32:\n                /* \"MultiSigWallet.sol\":6262:6553  function revokeConfirmation(uint transactionId)... */\n              pop\n              tag_33\n              0x4\n              dup1\n              calldatasize\n              sub\n              dup2\n              add\n              swap1\n              dup1\n              dup1\n              calldataload\n              swap1\n              0x20\n              add\n              swap1\n              swap3\n              swap2\n              swap1\n              pop\n              pop\n              pop\n              jump(tag_34)\n            tag_33:\n              stop\n                /* \"MultiSigWallet.sol\":985:1025  mapping (address => bool) public isOwner */\n            tag_5:\n              callvalue\n                /* \"--CODEGEN--\":8:17   */\n              dup1\n                /* \"--CODEGEN--\":5:7   */\n              iszero\n              tag_35\n              jumpi\n                /* \"--CODEGEN--\":30:31   */\n              0x0\n                /* \"--CODEGEN--\":27:28   */\n              dup1\n                /* \"--CODEGEN--\":20:32   */\n              revert\n                /* \"--CODEGEN--\":5:7   */\n            tag_35:\n                /* \"MultiSigWallet.sol\":985:1025  mapping (address => bool) public isOwner */\n              pop\n              tag_36\n              0x4\n              dup1\n              calldatasize\n              sub\n              dup2\n              add\n              swap1\n              dup1\n              dup1\n              calldataload\n              0xffffffffffffffffffffffffffffffffffffffff\n              and\n              swap1\n              0x20\n              add\n              swap1\n              swap3\n              swap2\n              swap1\n              pop\n              pop\n              pop\n              jump(tag_37)\n            tag_36:\n              mload(0x40)\n              dup1\n              dup3\n              iszero\n              iszero\n              iszero\n              iszero\n              dup2\n              mstore\n              0x20\n              add\n              swap2\n              pop\n              pop\n              mload(0x40)\n              dup1\n              swap2\n              sub\n              swap1\n              return\n                /* \"MultiSigWallet.sol\":915:979  mapping (uint => mapping (address => bool)) public confirmations */\n            tag_6:\n              callvalue\n                /* \"--CODEGEN--\":8:17   */\n              dup1\n                /* \"--CODEGEN--\":5:7   */\n              iszero\n              tag_38\n              jumpi\n                /* \"--CODEGEN--\":30:31   */\n              0x0\n                /* \"--CODEGEN--\":27:28   */\n              dup1\n                /* \"--CODEGEN--\":20:32   */\n              revert\n                /* \"--CODEGEN--\":5:7   */\n            tag_38:\n                /* \"MultiSigWallet.sol\":915:979  mapping (uint => mapping (address => bool)) public confirmations */\n              pop\n              tag_39\n              0x4\n              dup1\n              calldatasize\n              sub\n              dup2\n              add\n              swap1\n              dup1\n              dup1\n              calldataload\n              swap1\n              0x20\n              add\n              swap1\n              swap3\n              swap2\n              swap1\n              dup1\n              calldataload\n              0xffffffffffffffffffffffffffffffffffffffff\n              and\n              swap1\n              0x20\n              add\n              swap1\n              swap3\n              swap2\n              swap1\n              pop\n              pop\n              pop\n              jump(tag_40)\n            tag_39:\n              mload(0x40)\n              dup1\n              dup3\n              iszero\n              iszero\n              iszero\n              iszero\n              dup2\n              mstore\n              0x20\n              add\n              swap2\n              pop\n              pop\n              mload(0x40)\n              dup1\n              swap2\n              sub\n              swap1\n              return\n                /* \"MultiSigWallet.sol\":10516:10835  function getTransactionCount(bool pending, bool executed)... */\n            tag_7:\n              callvalue\n                /* \"--CODEGEN--\":8:17   */\n              dup1\n                /* \"--CODEGEN--\":5:7   */\n              iszero\n              tag_41\n              jumpi\n                /* \"--CODEGEN--\":30:31   */\n              0x0\n                /* \"--CODEGEN--\":27:28   */\n              dup1\n                /* \"--CODEGEN--\":20:32   */\n              revert\n                /* \"--CODEGEN--\":5:7   */\n            tag_41:\n                /* \"MultiSigWallet.sol\":10516:10835  function getTransactionCount(bool pending, bool executed)... */\n              pop\n              tag_42\n              0x4\n              dup1\n              calldatasize\n              sub\n              dup2\n              add\n              swap1\n              dup1\n              dup1\n              calldataload\n              iszero\n              iszero\n              swap1\n              0x20\n              add\n              swap1\n              swap3\n              swap2\n              swap1\n              dup1\n              calldataload\n              iszero\n              iszero\n              swap1\n              0x20\n              add\n              swap1\n              swap3\n              swap2\n              swap1\n              pop\n              pop\n              pop\n              jump(tag_43)\n            tag_42:\n              mload(0x40)\n              dup1\n              dup3\n              dup2\n              mstore\n              0x20\n              add\n              swap2\n              pop\n              pop\n              mload(0x40)\n              dup1\n              swap2\n              sub\n              swap1\n              return\n                /* \"MultiSigWallet.sol\":3296:3573  function addOwner(address owner)... */\n            tag_8:\n              callvalue\n                /* \"--CODEGEN--\":8:17   */\n              dup1\n                /* \"--CODEGEN--\":5:7   */\n              iszero\n              tag_44\n              jumpi\n                /* \"--CODEGEN--\":30:31   */\n              0x0\n                /* \"--CODEGEN--\":27:28   */\n              dup1\n                /* \"--CODEGEN--\":20:32   */\n              revert\n                /* \"--CODEGEN--\":5:7   */\n            tag_44:\n                /* \"MultiSigWallet.sol\":3296:3573  function addOwner(address owner)... */\n              pop\n              tag_45\n              0x4\n              dup1\n              calldatasize\n              sub\n              dup2\n              add\n              swap1\n              dup1\n              dup1\n              calldataload\n              0xffffffffffffffffffffffffffffffffffffffff\n              and\n              swap1\n              0x20\n              add\n              swap1\n              swap3\n              swap2\n              swap1\n              pop\n              pop\n              pop\n              jump(tag_46)\n            tag_45:\n              stop\n                /* \"MultiSigWallet.sol\":8684:9021  function isConfirmed(uint transactionId)... */\n            tag_9:\n              callvalue\n                /* \"--CODEGEN--\":8:17   */\n              dup1\n                /* \"--CODEGEN--\":5:7   */\n              iszero\n              tag_47\n              jumpi\n                /* \"--CODEGEN--\":30:31   */\n              0x0\n                /* \"--CODEGEN--\":27:28   */\n              dup1\n                /* \"--CODEGEN--\":20:32   */\n              revert\n                /* \"--CODEGEN--\":5:7   */\n            tag_47:\n                /* \"MultiSigWallet.sol\":8684:9021  function isConfirmed(uint transactionId)... */\n              pop\n              tag_48\n              0x4\n              dup1\n              calldatasize\n              sub\n              dup2\n              add\n              swap1\n              dup1\n              dup1\n              calldataload\n              swap1\n              0x20\n              add\n              swap1\n              swap3\n              swap2\n              swap1\n              pop\n              pop\n              pop\n              jump(tag_49)\n            tag_48:\n              mload(0x40)\n              dup1\n              dup3\n              iszero\n              iszero\n              iszero\n              iszero\n              dup2\n              mstore\n              0x20\n              add\n              swap2\n              pop\n              pop\n              mload(0x40)\n              dup1\n              swap2\n              sub\n              swap1\n              return\n                /* \"MultiSigWallet.sol\":10002:10254  function getConfirmationCount(uint transactionId)... */\n            tag_10:\n              callvalue\n                /* \"--CODEGEN--\":8:17   */\n              dup1\n                /* \"--CODEGEN--\":5:7   */\n              iszero\n              tag_50\n              jumpi\n                /* \"--CODEGEN--\":30:31   */\n              0x0\n                /* \"--CODEGEN--\":27:28   */\n              dup1\n                /* \"--CODEGEN--\":20:32   */\n              revert\n                /* \"--CODEGEN--\":5:7   */\n            tag_50:\n                /* \"MultiSigWallet.sol\":10002:10254  function getConfirmationCount(uint transactionId)... */\n              pop\n              tag_51\n              0x4\n              dup1\n              calldatasize\n              sub\n              dup2\n              add\n              swap1\n              dup1\n              dup1\n              calldataload\n              swap1\n              0x20\n              add\n              swap1\n              swap3\n              swap2\n              swap1\n              pop\n              pop\n              pop\n              jump(tag_52)\n            tag_51:\n              mload(0x40)\n              dup1\n              dup3\n              dup2\n              mstore\n              0x20\n              add\n              swap2\n              pop\n              pop\n              mload(0x40)\n              dup1\n              swap2\n              sub\n              swap1\n              return\n                /* \"MultiSigWallet.sol\":860:909  mapping (uint => Transaction) public transactions */\n            tag_11:\n              callvalue\n                /* \"--CODEGEN--\":8:17   */\n              dup1\n                /* \"--CODEGEN--\":5:7   */\n              iszero\n              tag_53\n              jumpi\n                /* \"--CODEGEN--\":30:31   */\n              0x0\n                /* \"--CODEGEN--\":27:28   */\n              dup1\n                /* \"--CODEGEN--\":20:32   */\n              revert\n                /* \"--CODEGEN--\":5:7   */\n            tag_53:\n                /* \"MultiSigWallet.sol\":860:909  mapping (uint => Transaction) public transactions */\n              pop\n              tag_54\n              0x4\n              dup1\n              calldatasize\n              sub\n              dup2\n              add\n              swap1\n              dup1\n              dup1\n              calldataload\n              swap1\n              0x20\n              add\n              swap1\n              swap3\n              swap2\n              swap1\n              pop\n              pop\n              pop\n              jump(tag_55)\n            tag_54:\n              mload(0x40)\n              dup1\n              dup6\n              0xffffffffffffffffffffffffffffffffffffffff\n              and\n              0xffffffffffffffffffffffffffffffffffffffff\n              and\n              dup2\n              mstore\n              0x20\n              add\n              dup5\n              dup2\n              mstore\n              0x20\n              add\n              dup1\n              0x20\n              add\n              dup4\n              iszero\n              iszero\n              iszero\n              iszero\n              dup2\n              mstore\n              0x20\n              add\n              dup3\n              dup2\n              sub\n              dup3\n              mstore\n              dup5\n              dup2\n              dup2\n              mload\n              dup2\n              mstore\n              0x20\n              add\n              swap2\n              pop\n              dup1\n              mload\n              swap1\n              0x20\n              add\n              swap1\n              dup1\n              dup4\n              dup4\n                /* \"--CODEGEN--\":23:24   */\n              0x0\n                /* \"--CODEGEN--\":8:108   */\n            tag_56:\n                /* \"--CODEGEN--\":33:36   */\n              dup4\n                /* \"--CODEGEN--\":30:31   */\n              dup2\n                /* \"--CODEGEN--\":27:37   */\n              lt\n                /* \"--CODEGEN--\":8:108   */\n              iszero\n              tag_57\n              jumpi\n                /* \"--CODEGEN--\":99:100   */\n              dup1\n                /* \"--CODEGEN--\":94:97   */\n              dup3\n                /* \"--CODEGEN--\":90:101   */\n              add\n                /* \"--CODEGEN--\":84:102   */\n              mload\n                /* \"--CODEGEN--\":80:81   */\n              dup2\n                /* \"--CODEGEN--\":75:78   */\n              dup5\n                /* \"--CODEGEN--\":71:82   */\n              add\n                /* \"--CODEGEN--\":64:103   */\n              mstore\n                /* \"--CODEGEN--\":52:54   */\n              0x20\n                /* \"--CODEGEN--\":49:50   */\n              dup2\n                /* \"--CODEGEN--\":45:55   */\n              add\n                /* \"--CODEGEN--\":40:55   */\n              swap1\n              pop\n                /* \"--CODEGEN--\":8:108   */\n              jump(tag_56)\n            tag_57:\n                /* \"--CODEGEN--\":12:26   */\n              pop\n                /* \"MultiSigWallet.sol\":860:909  mapping (uint => Transaction) public transactions */\n              pop\n              pop\n              pop\n              swap1\n              pop\n              swap1\n              dup2\n              add\n              swap1\n              0x1f\n              and\n              dup1\n              iszero\n              tag_59\n              jumpi\n              dup1\n              dup3\n              sub\n              dup1\n              mload\n              0x1\n              dup4\n              0x20\n              sub\n              0x100\n              exp\n              sub\n              not\n              and\n              dup2\n              mstore\n              0x20\n              add\n              swap2\n              pop\n            tag_59:\n              pop\n              swap6\n              pop\n              pop\n              pop\n              pop\n              pop\n              pop\n              mload(0x40)\n              dup1\n              swap2\n              sub\n              swap1\n              return\n                /* \"MultiSigWallet.sol\":10919:11034  function getOwners()... */\n            tag_12:\n              callvalue\n                /* \"--CODEGEN--\":8:17   */\n              dup1\n                /* \"--CODEGEN--\":5:7   */\n              iszero\n              tag_60\n              jumpi\n                /* \"--CODEGEN--\":30:31   */\n              0x0\n                /* \"--CODEGEN--\":27:28   */\n              dup1\n                /* \"--CODEGEN--\":20:32   */\n              revert\n                /* \"--CODEGEN--\":5:7   */\n            tag_60:\n                /* \"MultiSigWallet.sol\":10919:11034  function getOwners()... */\n              pop\n              tag_61\n              jump(tag_62)\n            tag_61:\n              mload(0x40)\n              dup1\n              dup1\n              0x20\n              add\n              dup3\n              dup2\n              sub\n              dup3\n              mstore\n              dup4\n              dup2\n              dup2\n              mload\n              dup2\n              mstore\n              0x20\n              add\n              swap2\n              pop\n              dup1\n              mload\n              swap1\n              0x20\n              add\n              swap1\n              0x20\n              mul\n              dup1\n              dup4\n              dup4\n                /* \"--CODEGEN--\":23:24   */\n              0x0\n                /* \"--CODEGEN--\":8:108   */\n            tag_63:\n                /* \"--CODEGEN--\":33:36   */\n              dup4\n                /* \"--CODEGEN--\":30:31   */\n              dup2\n                /* \"--CODEGEN--\":27:37   */\n              lt\n                /* \"--CODEGEN--\":8:108   */\n              iszero\n              tag_64\n              jumpi\n                /* \"--CODEGEN--\":99:100   */\n              dup1\n                /* \"--CODEGEN--\":94:97   */\n              dup3\n                /* \"--CODEGEN--\":90:101   */\n              add\n                /* \"--CODEGEN--\":84:102   */\n              mload\n                /* \"--CODEGEN--\":80:81   */\n              dup2\n                /* \"--CODEGEN--\":75:78   */\n              dup5\n                /* \"--CODEGEN--\":71:82   */\n              add\n                /* \"--CODEGEN--\":64:103   */\n              mstore\n                /* \"--CODEGEN--\":52:54   */\n              0x20\n                /* \"--CODEGEN--\":49:50   */\n              dup2\n                /* \"--CODEGEN--\":45:55   */\n              add\n                /* \"--CODEGEN--\":40:55   */\n              swap1\n              pop\n                /* \"--CODEGEN--\":8:108   */\n              jump(tag_63)\n            tag_64:\n                /* \"--CODEGEN--\":12:26   */\n              pop\n                /* \"MultiSigWallet.sol\":10919:11034  function getOwners()... */\n              pop\n              pop\n              pop\n              swap1\n              pop\n              add\n              swap3\n              pop\n              pop\n              pop\n              mload(0x40)\n              dup1\n              swap2\n              sub\n              swap1\n              return\n                /* \"MultiSigWallet.sol\":12137:12813  function getTransactionIds(uint from, uint to, bool pending, bool executed)... */\n            tag_13:\n              callvalue\n                /* \"--CODEGEN--\":8:17   */\n              dup1\n                /* \"--CODEGEN--\":5:7   */\n              iszero\n              tag_66\n              jumpi\n                /* \"--CODEGEN--\":30:31   */\n              0x0\n                /* \"--CODEGEN--\":27:28   */\n              dup1\n                /* \"--CODEGEN--\":20:32   */\n              revert\n                /* \"--CODEGEN--\":5:7   */\n            tag_66:\n                /* \"MultiSigWallet.sol\":12137:12813  function getTransactionIds(uint from, uint to, bool pending, bool executed)... */\n              pop\n              tag_67\n              0x4\n              dup1\n              calldatasize\n              sub\n              dup2\n              add\n              swap1\n              dup1\n              dup1\n              calldataload\n              swap1\n              0x20\n              add\n              swap1\n              swap3\n              swap2\n              swap1\n              dup1\n              calldataload\n              swap1\n              0x20\n              add\n              swap1\n              swap3\n              swap2\n              swap1\n              dup1\n              calldataload\n              iszero\n              iszero\n              swap1\n              0x20\n              add\n              swap1\n              swap3\n              swap2\n              swap1\n              dup1\n              calldataload\n              iszero\n              iszero\n              swap1\n              0x20\n              add\n              swap1\n              swap3\n              swap2\n              swap1\n              pop\n              pop\n              pop\n              jump(tag_68)\n            tag_67:\n              mload(0x40)\n              dup1\n              dup1\n              0x20\n              add\n              dup3\n              dup2\n              sub\n              dup3\n              mstore\n              dup4\n              dup2\n              dup2\n              mload\n              dup2\n              mstore\n              0x20\n              add\n              swap2\n              pop\n              dup1\n              mload\n              swap1\n              0x20\n              add\n              swap1\n              0x20\n              mul\n              dup1\n              dup4\n              dup4\n                /* \"--CODEGEN--\":23:24   */\n              0x0\n                /* \"--CODEGEN--\":8:108   */\n            tag_69:\n                /* \"--CODEGEN--\":33:36   */\n              dup4\n                /* \"--CODEGEN--\":30:31   */\n              dup2\n                /* \"--CODEGEN--\":27:37   */\n              lt\n                /* \"--CODEGEN--\":8:108   */\n              iszero\n              tag_70\n              jumpi\n                /* \"--CODEGEN--\":99:100   */\n              dup1\n                /* \"--CODEGEN--\":94:97   */\n              dup3\n                /* \"--CODEGEN--\":90:101   */\n              add\n                /* \"--CODEGEN--\":84:102   */\n              mload\n                /* \"--CODEGEN--\":80:81   */\n              dup2\n                /* \"--CODEGEN--\":75:78   */\n              dup5\n                /* \"--CODEGEN--\":71:82   */\n              add\n                /* \"--CODEGEN--\":64:103   */\n              mstore\n                /* \"--CODEGEN--\":52:54   */\n              0x20\n                /* \"--CODEGEN--\":49:50   */\n              dup2\n                /* \"--CODEGEN--\":45:55   */\n              add\n                /* \"--CODEGEN--\":40:55   */\n              swap1\n              pop\n                /* \"--CODEGEN--\":8:108   */\n              jump(tag_69)\n            tag_70:\n                /* \"--CODEGEN--\":12:26   */\n              pop\n                /* \"MultiSigWallet.sol\":12137:12813  function getTransactionIds(uint from, uint to, bool pending, bool executed)... */\n              pop\n              pop\n              pop\n              swap1\n              pop\n              add\n              swap3\n              pop\n              pop\n              pop\n              mload(0x40)\n              dup1\n              swap2\n              sub\n              swap1\n              return\n                /* \"MultiSigWallet.sol\":11213:11788  function getConfirmations(uint transactionId)... */\n            tag_14:\n              callvalue\n                /* \"--CODEGEN--\":8:17   */\n              dup1\n                /* \"--CODEGEN--\":5:7   */\n              iszero\n              tag_72\n              jumpi\n                /* \"--CODEGEN--\":30:31   */\n              0x0\n                /* \"--CODEGEN--\":27:28   */\n              dup1\n                /* \"--CODEGEN--\":20:32   */\n              revert\n                /* \"--CODEGEN--\":5:7   */\n            tag_72:\n                /* \"MultiSigWallet.sol\":11213:11788  function getConfirmations(uint transactionId)... */\n              pop\n              tag_73\n              0x4\n              dup1\n              calldatasize\n              sub\n              dup2\n              add\n              swap1\n              dup1\n              dup1\n              calldataload\n              swap1\n              0x20\n              add\n              swap1\n              swap3\n              swap2\n              swap1\n              pop\n              pop\n              pop\n              jump(tag_74)\n            tag_73:\n              mload(0x40)\n              dup1\n              dup1\n              0x20\n              add\n              dup3\n              dup2\n              sub\n              dup3\n              mstore\n              dup4\n              dup2\n              dup2\n              mload\n              dup2\n              mstore\n              0x20\n              add\n              swap2\n              pop\n              dup1\n              mload\n              swap1\n              0x20\n              add\n              swap1\n              0x20\n              mul\n              dup1\n              dup4\n              dup4\n                /* \"--CODEGEN--\":23:24   */\n              0x0\n                /* \"--CODEGEN--\":8:108   */\n            tag_75:\n                /* \"--CODEGEN--\":33:36   */\n              dup4\n                /* \"--CODEGEN--\":30:31   */\n              dup2\n                /* \"--CODEGEN--\":27:37   */\n              lt\n                /* \"--CODEGEN--\":8:108   */\n              iszero\n              tag_76\n              jumpi\n                /* \"--CODEGEN--\":99:100   */\n              dup1\n                /* \"--CODEGEN--\":94:97   */\n              dup3\n                /* \"--CODEGEN--\":90:101   */\n              add\n                /* \"--CODEGEN--\":84:102   */\n              mload\n                /* \"--CODEGEN--\":80:81   */\n              dup2\n                /* \"--CODEGEN--\":75:78   */\n              dup5\n                /* \"--CODEGEN--\":71:82   */\n              add\n                /* \"--CODEGEN--\":64:103   */\n              mstore\n                /* \"--CODEGEN--\":52:54   */\n              0x20\n                /* \"--CODEGEN--\":49:50   */\n              dup2\n                /* \"--CODEGEN--\":45:55   */\n              add\n                /* \"--CODEGEN--\":40:55   */\n              swap1\n              pop\n                /* \"--CODEGEN--\":8:108   */\n              jump(tag_75)\n            tag_76:\n                /* \"--CODEGEN--\":12:26   */\n              pop\n                /* \"MultiSigWallet.sol\":11213:11788  function getConfirmations(uint transactionId)... */\n              pop\n              pop\n              pop\n              swap1\n              pop\n              add\n              swap3\n              pop\n              pop\n              pop\n              mload(0x40)\n              dup1\n              swap2\n              sub\n              swap1\n              return\n                /* \"MultiSigWallet.sol\":1086:1114  uint public transactionCount */\n            tag_15:\n              callvalue\n                /* \"--CODEGEN--\":8:17   */\n              dup1\n                /* \"--CODEGEN--\":5:7   */\n              iszero\n              tag_78\n              jumpi\n                /* \"--CODEGEN--\":30:31   */\n              0x0\n                /* \"--CODEGEN--\":27:28   */\n              dup1\n                /* \"--CODEGEN--\":20:32   */\n              revert\n                /* \"--CODEGEN--\":5:7   */\n            tag_78:\n                /* \"MultiSigWallet.sol\":1086:1114  uint public transactionCount */\n              pop\n              tag_79\n              jump(tag_80)\n            tag_79:\n              mload(0x40)\n              dup1\n              dup3\n              dup2\n              mstore\n              0x20\n              add\n              swap2\n              pop\n              pop\n              mload(0x40)\n              dup1\n              swap2\n              sub\n              swap1\n              return\n                /* \"MultiSigWallet.sol\":4978:5185  function changeRequirement(uint _required)... */\n            tag_16:\n              callvalue\n                /* \"--CODEGEN--\":8:17   */\n              dup1\n                /* \"--CODEGEN--\":5:7   */\n              iszero\n              tag_81\n              jumpi\n                /* \"--CODEGEN--\":30:31   */\n              0x0\n                /* \"--CODEGEN--\":27:28   */\n              dup1\n                /* \"--CODEGEN--\":20:32   */\n              revert\n                /* \"--CODEGEN--\":5:7   */\n            tag_81:\n                /* \"MultiSigWallet.sol\":4978:5185  function changeRequirement(uint _required)... */\n              pop\n              tag_82\n              0x4\n              dup1\n              calldatasize\n              sub\n              dup2\n              add\n              swap1\n              dup1\n              dup1\n              calldataload\n              swap1\n              0x20\n              add\n              swap1\n              swap3\n              swap2\n              swap1\n              pop\n              pop\n              pop\n              jump(tag_83)\n            tag_82:\n              stop\n                /* \"MultiSigWallet.sol\":5794:6138  function confirmTransaction(uint transactionId)... */\n            tag_17:\n              callvalue\n                /* \"--CODEGEN--\":8:17   */\n              dup1\n                /* \"--CODEGEN--\":5:7   */\n              iszero\n              tag_84\n              jumpi\n                /* \"--CODEGEN--\":30:31   */\n              0x0\n                /* \"--CODEGEN--\":27:28   */\n              dup1\n                /* \"--CODEGEN--\":20:32   */\n              revert\n                /* \"--CODEGEN--\":5:7   */\n            tag_84:\n                /* \"MultiSigWallet.sol\":5794:6138  function confirmTransaction(uint transactionId)... */\n              pop\n              tag_85\n              0x4\n              dup1\n              calldatasize\n              sub\n              dup2\n              add\n              swap1\n              dup1\n              dup1\n              calldataload\n              swap1\n              0x20\n              add\n              swap1\n              swap3\n              swap2\n              swap1\n              pop\n              pop\n              pop\n              jump(tag_86)\n            tag_85:\n              stop\n                /* \"MultiSigWallet.sol\":5444:5688  function submitTransaction(address destination, uint value, bytes data)... */\n            tag_18:\n              callvalue\n                /* \"--CODEGEN--\":8:17   */\n              dup1\n                /* \"--CODEGEN--\":5:7   */\n              iszero\n              tag_87\n              jumpi\n                /* \"--CODEGEN--\":30:31   */\n              0x0\n                /* \"--CODEGEN--\":27:28   */\n              dup1\n                /* \"--CODEGEN--\":20:32   */\n              revert\n                /* \"--CODEGEN--\":5:7   */\n            tag_87:\n                /* \"MultiSigWallet.sol\":5444:5688  function submitTransaction(address destination, uint value, bytes data)... */\n              pop\n              tag_88\n              0x4\n              dup1\n              calldatasize\n              sub\n              dup2\n              add\n              swap1\n              dup1\n              dup1\n              calldataload\n              0xffffffffffffffffffffffffffffffffffffffff\n              and\n              swap1\n              0x20\n              add\n              swap1\n              swap3\n              swap2\n              swap1\n              dup1\n              calldataload\n              swap1\n              0x20\n              add\n              swap1\n              swap3\n              swap2\n              swap1\n              dup1\n              calldataload\n              swap1\n              0x20\n              add\n              swap1\n              dup3\n              add\n              dup1\n              calldataload\n              swap1\n              0x20\n              add\n              swap1\n              dup1\n              dup1\n              0x1f\n              add\n              0x20\n              dup1\n              swap2\n              div\n              mul\n              0x20\n              add\n              mload(0x40)\n              swap1\n              dup2\n              add\n              0x40\n              mstore\n              dup1\n              swap4\n              swap3\n              swap2\n              swap1\n              dup2\n              dup2\n              mstore\n              0x20\n              add\n              dup4\n              dup4\n              dup1\n              dup3\n              dup5\n              calldatacopy\n              dup3\n              add\n              swap2\n              pop\n              pop\n              pop\n              pop\n              pop\n              pop\n              swap2\n              swap3\n              swap2\n              swap3\n              swap1\n              pop\n              pop\n              pop\n              jump(tag_89)\n            tag_88:\n              mload(0x40)\n              dup1\n              dup3\n              dup2\n              mstore\n              0x20\n              add\n              swap2\n              pop\n              pop\n              mload(0x40)\n              dup1\n              swap2\n              sub\n              swap1\n              return\n                /* \"MultiSigWallet.sol\":781:822  uint constant public MAX_OWNER_COUNT = 50 */\n            tag_19:\n              callvalue\n                /* \"--CODEGEN--\":8:17   */\n              dup1\n                /* \"--CODEGEN--\":5:7   */\n              iszero\n              tag_90\n              jumpi\n                /* \"--CODEGEN--\":30:31   */\n              0x0\n                /* \"--CODEGEN--\":27:28   */\n              dup1\n                /* \"--CODEGEN--\":20:32   */\n              revert\n                /* \"--CODEGEN--\":5:7   */\n            tag_90:\n                /* \"MultiSigWallet.sol\":781:822  uint constant public MAX_OWNER_COUNT = 50 */\n              pop\n              tag_91\n              jump(tag_92)\n            tag_91:\n              mload(0x40)\n              dup1\n              dup3\n              dup2\n              mstore\n              0x20\n              add\n              swap2\n              pop\n              pop\n              mload(0x40)\n              dup1\n              swap2\n              sub\n              swap1\n              return\n                /* \"MultiSigWallet.sol\":1060:1080  uint public required */\n            tag_20:\n              callvalue\n                /* \"--CODEGEN--\":8:17   */\n              dup1\n                /* \"--CODEGEN--\":5:7   */\n              iszero\n              tag_93\n              jumpi\n                /* \"--CODEGEN--\":30:31   */\n              0x0\n                /* \"--CODEGEN--\":27:28   */\n              dup1\n                /* \"--CODEGEN--\":20:32   */\n              revert\n                /* \"--CODEGEN--\":5:7   */\n            tag_93:\n                /* \"MultiSigWallet.sol\":1060:1080  uint public required */\n              pop\n              tag_94\n              jump(tag_95)\n            tag_94:\n              mload(0x40)\n              dup1\n              dup3\n              dup2\n              mstore\n              0x20\n              add\n              swap2\n              pop\n              pop\n              mload(0x40)\n              dup1\n              swap2\n              sub\n              swap1\n              return\n                /* \"MultiSigWallet.sol\":4358:4807  function replaceOwner(address owner, address newOwner)... */\n            tag_21:\n              callvalue\n                /* \"--CODEGEN--\":8:17   */\n              dup1\n                /* \"--CODEGEN--\":5:7   */\n              iszero\n              tag_96\n              jumpi\n                /* \"--CODEGEN--\":30:31   */\n              0x0\n                /* \"--CODEGEN--\":27:28   */\n              dup1\n                /* \"--CODEGEN--\":20:32   */\n              revert\n                /* \"--CODEGEN--\":5:7   */\n            tag_96:\n                /* \"MultiSigWallet.sol\":4358:4807  function replaceOwner(address owner, address newOwner)... */\n              pop\n              tag_97\n              0x4\n              dup1\n              calldatasize\n              sub\n              dup2\n              add\n              swap1\n              dup1\n              dup1\n              calldataload\n              0xffffffffffffffffffffffffffffffffffffffff\n              and\n              swap1\n              0x20\n              add\n              swap1\n              swap3\n              swap2\n              swap1\n              dup1\n              calldataload\n              0xffffffffffffffffffffffffffffffffffffffff\n              and\n              swap1\n              0x20\n              add\n              swap1\n              swap3\n              swap2\n              swap1\n              pop\n              pop\n              pop\n              jump(tag_98)\n            tag_97:\n              stop\n                /* \"MultiSigWallet.sol\":6667:7253  function executeTransaction(uint transactionId)... */\n            tag_22:\n              callvalue\n                /* \"--CODEGEN--\":8:17   */\n              dup1\n                /* \"--CODEGEN--\":5:7   */\n              iszero\n              tag_99\n              jumpi\n                /* \"--CODEGEN--\":30:31   */\n              0x0\n                /* \"--CODEGEN--\":27:28   */\n              dup1\n                /* \"--CODEGEN--\":20:32   */\n              revert\n                /* \"--CODEGEN--\":5:7   */\n            tag_99:\n                /* \"MultiSigWallet.sol\":6667:7253  function executeTransaction(uint transactionId)... */\n              pop\n              tag_100\n              0x4\n              dup1\n              calldatasize\n              sub\n              dup2\n              add\n              swap1\n              dup1\n              dup1\n              calldataload\n              swap1\n              0x20\n              add\n              swap1\n              swap3\n              swap2\n              swap1\n              pop\n              pop\n              pop\n              jump(tag_101)\n            tag_100:\n              stop\n                /* \"MultiSigWallet.sol\":1031:1054  address[] public owners */\n            tag_28:\n              0x3\n              dup2\n              dup2\n              sload\n              dup2\n              lt\n              iszero\n              iszero\n              tag_102\n              jumpi\n              invalid\n            tag_102:\n              swap1\n              0x0\n              mstore\n              keccak256(0x0, 0x20)\n              add\n              0x0\n              swap2\n              pop\n              sload\n              swap1\n              0x100\n              exp\n              swap1\n              div\n              0xffffffffffffffffffffffffffffffffffffffff\n              and\n              dup2\n              jump\t// out\n                /* \"MultiSigWallet.sol\":3696:4156  function removeOwner(address owner)... */\n            tag_31:\n                /* \"MultiSigWallet.sol\":3844:3850  uint i */\n              0x0\n                /* \"MultiSigWallet.sol\":1340:1344  this */\n              address\n                /* \"MultiSigWallet.sol\":1318:1345  msg.sender == address(this) */\n              0xffffffffffffffffffffffffffffffffffffffff\n              and\n                /* \"MultiSigWallet.sol\":1318:1328  msg.sender */\n              caller\n                /* \"MultiSigWallet.sol\":1318:1345  msg.sender == address(this) */\n              0xffffffffffffffffffffffffffffffffffffffff\n              and\n              eq\n                /* \"MultiSigWallet.sol\":1310:1346  require(msg.sender == address(this)) */\n              iszero\n              iszero\n              tag_105\n              jumpi\n              0x0\n              dup1\n              revert\n            tag_105:\n                /* \"MultiSigWallet.sol\":3786:3791  owner */\n              dup2\n                /* \"MultiSigWallet.sol\":1524:1531  isOwner */\n              0x2\n                /* \"MultiSigWallet.sol\":1524:1538  isOwner[owner] */\n              0x0\n                /* \"MultiSigWallet.sol\":1532:1537  owner */\n              dup3\n                /* \"MultiSigWallet.sol\":1524:1538  isOwner[owner] */\n              0xffffffffffffffffffffffffffffffffffffffff\n              and\n              0xffffffffffffffffffffffffffffffffffffffff\n              and\n              dup2\n              mstore\n              0x20\n              add\n              swap1\n              dup2\n              mstore\n              0x20\n              add\n              0x0\n              keccak256\n              0x0\n              swap1\n              sload\n              swap1\n              0x100\n              exp\n              swap1\n              div\n              0xff\n              and\n                /* \"MultiSigWallet.sol\":1516:1539  require(isOwner[owner]) */\n              iszero\n              iszero\n              tag_107\n              jumpi\n              0x0\n              dup1\n              revert\n            tag_107:\n                /* \"MultiSigWallet.sol\":3824:3829  false */\n              0x0\n                /* \"MultiSigWallet.sol\":3807:3814  isOwner */\n              0x2\n                /* \"MultiSigWallet.sol\":3807:3821  isOwner[owner] */\n              0x0\n                /* \"MultiSigWallet.sol\":3815:3820  owner */\n              dup6\n                /* \"MultiSigWallet.sol\":3807:3821  isOwner[owner] */\n              0xffffffffffffffffffffffffffffffffffffffff\n              and\n              0xffffffffffffffffffffffffffffffffffffffff\n              and\n              dup2\n              mstore\n              0x20\n              add\n              swap1\n              dup2\n              mstore\n              0x20\n              add\n              0x0\n              keccak256\n              0x0\n                /* \"MultiSigWallet.sol\":3807:3829  isOwner[owner] = false */\n              0x100\n              exp\n              dup2\n              sload\n              dup2\n              0xff\n              mul\n              not\n              and\n              swap1\n              dup4\n              iszero\n              iszero\n              mul\n              or\n              swap1\n              sstore\n              pop\n                /* \"MultiSigWallet.sol\":3851:3852  0 */\n              0x0\n                /* \"MultiSigWallet.sol\":3844:3852  uint i=0 */\n              swap2\n              pop\n                /* \"MultiSigWallet.sol\":3839:4009  for (uint i=0; i<owners.length - 1; i++)... */\n            tag_109:\n                /* \"MultiSigWallet.sol\":3872:3873  1 */\n              0x1\n                /* \"MultiSigWallet.sol\":3856:3862  owners */\n              0x3\n                /* \"MultiSigWallet.sol\":3856:3869  owners.length */\n              dup1\n              sload\n              swap1\n              pop\n                /* \"MultiSigWallet.sol\":3856:3873  owners.length - 1 */\n              sub\n                /* \"MultiSigWallet.sol\":3854:3855  i */\n              dup3\n                /* \"MultiSigWallet.sol\":3854:3873  i<owners.length - 1 */\n              lt\n                /* \"MultiSigWallet.sol\":3839:4009  for (uint i=0; i<owners.length - 1; i++)... */\n              iszero\n              tag_110\n              jumpi\n                /* \"MultiSigWallet.sol\":3909:3914  owner */\n              dup3\n                /* \"MultiSigWallet.sol\":3896:3914  owners[i] == owner */\n              0xffffffffffffffffffffffffffffffffffffffff\n              and\n                /* \"MultiSigWallet.sol\":3896:3902  owners */\n              0x3\n                /* \"MultiSigWallet.sol\":3903:3904  i */\n              dup4\n                /* \"MultiSigWallet.sol\":3896:3905  owners[i] */\n              dup2\n              sload\n              dup2\n              lt\n              iszero\n              iszero\n              tag_112\n              jumpi\n              invalid\n            tag_112:\n              swap1\n              0x0\n              mstore\n              keccak256(0x0, 0x20)\n              add\n              0x0\n              swap1\n              sload\n              swap1\n              0x100\n              exp\n              swap1\n              div\n              0xffffffffffffffffffffffffffffffffffffffff\n              and\n                /* \"MultiSigWallet.sol\":3896:3914  owners[i] == owner */\n              0xffffffffffffffffffffffffffffffffffffffff\n              and\n              eq\n                /* \"MultiSigWallet.sol\":3892:4009  if (owners[i] == owner) {... */\n              iszero\n              tag_114\n              jumpi\n                /* \"MultiSigWallet.sol\":3946:3952  owners */\n              0x3\n                /* \"MultiSigWallet.sol\":3969:3970  1 */\n              0x1\n                /* \"MultiSigWallet.sol\":3953:3959  owners */\n              0x3\n                /* \"MultiSigWallet.sol\":3953:3966  owners.length */\n              dup1\n              sload\n              swap1\n              pop\n                /* \"MultiSigWallet.sol\":3953:3970  owners.length - 1 */\n              sub\n                /* \"MultiSigWallet.sol\":3946:3971  owners[owners.length - 1] */\n              dup2\n              sload\n              dup2\n              lt\n              iszero\n              iszero\n              tag_115\n              jumpi\n              invalid\n            tag_115:\n              swap1\n              0x0\n              mstore\n              keccak256(0x0, 0x20)\n              add\n              0x0\n              swap1\n              sload\n              swap1\n              0x100\n              exp\n              swap1\n              div\n              0xffffffffffffffffffffffffffffffffffffffff\n              and\n                /* \"MultiSigWallet.sol\":3934:3940  owners */\n              0x3\n                /* \"MultiSigWallet.sol\":3941:3942  i */\n              dup4\n                /* \"MultiSigWallet.sol\":3934:3943  owners[i] */\n              dup2\n              sload\n              dup2\n              lt\n              iszero\n              iszero\n              tag_117\n              jumpi\n              invalid\n            tag_117:\n              swap1\n              0x0\n              mstore\n              keccak256(0x0, 0x20)\n              add\n              0x0\n                /* \"MultiSigWallet.sol\":3934:3971  owners[i] = owners[owners.length - 1] */\n              0x100\n              exp\n              dup2\n              sload\n              dup2\n              0xffffffffffffffffffffffffffffffffffffffff\n              mul\n              not\n              and\n              swap1\n              dup4\n              0xffffffffffffffffffffffffffffffffffffffff\n              and\n              mul\n              or\n              swap1\n              sstore\n              pop\n                /* \"MultiSigWallet.sol\":3989:3994  break */\n              jump(tag_110)\n                /* \"MultiSigWallet.sol\":3892:4009  if (owners[i] == owner) {... */\n            tag_114:\n                /* \"MultiSigWallet.sol\":3875:3878  i++ */\n              dup2\n              dup1\n              0x1\n              add\n              swap3\n              pop\n              pop\n                /* \"MultiSigWallet.sol\":3839:4009  for (uint i=0; i<owners.length - 1; i++)... */\n              jump(tag_109)\n            tag_110:\n                /* \"MultiSigWallet.sol\":4035:4036  1 */\n              0x1\n                /* \"MultiSigWallet.sol\":4018:4024  owners */\n              0x3\n                /* \"MultiSigWallet.sol\":4018:4036  owners.length -= 1 */\n              dup2\n              dup2\n              dup1\n              sload\n              swap1\n              pop\n              sub\n              swap2\n              pop\n              dup2\n              tag_119\n              swap2\n              swap1\n              jump\t// in(tag_120)\n            tag_119:\n              pop\n                /* \"MultiSigWallet.sol\":4061:4067  owners */\n              0x3\n                /* \"MultiSigWallet.sol\":4061:4074  owners.length */\n              dup1\n              sload\n              swap1\n              pop\n                /* \"MultiSigWallet.sol\":4050:4058  required */\n              sload(0x4)\n                /* \"MultiSigWallet.sol\":4050:4074  required > owners.length */\n              gt\n                /* \"MultiSigWallet.sol\":4046:4120  if (required > owners.length)... */\n              iszero\n              tag_121\n              jumpi\n                /* \"MultiSigWallet.sol\":4088:4120  changeRequirement(owners.length) */\n              tag_122\n                /* \"MultiSigWallet.sol\":4106:4112  owners */\n              0x3\n                /* \"MultiSigWallet.sol\":4106:4119  owners.length */\n              dup1\n              sload\n              swap1\n              pop\n                /* \"MultiSigWallet.sol\":4088:4105  changeRequirement */\n              tag_83\n                /* \"MultiSigWallet.sol\":4088:4120  changeRequirement(owners.length) */\n              jump\t// in\n            tag_122:\n                /* \"MultiSigWallet.sol\":4046:4120  if (required > owners.length)... */\n            tag_121:\n                /* \"MultiSigWallet.sol\":4143:4148  owner */\n              dup3\n                /* \"MultiSigWallet.sol\":4130:4149  OwnerRemoval(owner) */\n              0xffffffffffffffffffffffffffffffffffffffff\n              and\n              0x8001553a916ef2f495d26a907cc54d96ed840d7bda71e73194bf5a9df7a76b90\n              mload(0x40)\n              mload(0x40)\n              dup1\n              swap2\n              sub\n              swap1\n              log2\n                /* \"MultiSigWallet.sol\":1356:1357  _ */\n              pop\n                /* \"MultiSigWallet.sol\":3696:4156  function removeOwner(address owner)... */\n              pop\n              pop\n              jump\t// out\n                /* \"MultiSigWallet.sol\":6262:6553  function revokeConfirmation(uint transactionId)... */\n            tag_34:\n                /* \"MultiSigWallet.sol\":6345:6355  msg.sender */\n              caller\n                /* \"MultiSigWallet.sol\":1524:1531  isOwner */\n              0x2\n                /* \"MultiSigWallet.sol\":1524:1538  isOwner[owner] */\n              0x0\n                /* \"MultiSigWallet.sol\":1532:1537  owner */\n              dup3\n                /* \"MultiSigWallet.sol\":1524:1538  isOwner[owner] */\n              0xffffffffffffffffffffffffffffffffffffffff\n              and\n              0xffffffffffffffffffffffffffffffffffffffff\n              and\n              dup2\n              mstore\n              0x20\n              add\n              swap1\n              dup2\n              mstore\n              0x20\n              add\n              0x0\n              keccak256\n              0x0\n              swap1\n              sload\n              swap1\n              0x100\n              exp\n              swap1\n              div\n              0xff\n              and\n                /* \"MultiSigWallet.sol\":1516:1539  require(isOwner[owner]) */\n              iszero\n              iszero\n              tag_124\n              jumpi\n              0x0\n              dup1\n              revert\n            tag_124:\n                /* \"MultiSigWallet.sol\":6375:6388  transactionId */\n              dup2\n                /* \"MultiSigWallet.sol\":6390:6400  msg.sender */\n              caller\n                /* \"MultiSigWallet.sol\":1769:1782  confirmations */\n              0x1\n                /* \"MultiSigWallet.sol\":1769:1797  confirmations[transactionId] */\n              0x0\n                /* \"MultiSigWallet.sol\":1783:1796  transactionId */\n              dup4\n                /* \"MultiSigWallet.sol\":1769:1797  confirmations[transactionId] */\n              dup2\n              mstore\n              0x20\n              add\n              swap1\n              dup2\n              mstore\n              0x20\n              add\n              0x0\n              keccak256\n                /* \"MultiSigWallet.sol\":1769:1804  confirmations[transactionId][owner] */\n              0x0\n                /* \"MultiSigWallet.sol\":1798:1803  owner */\n              dup3\n                /* \"MultiSigWallet.sol\":1769:1804  confirmations[transactionId][owner] */\n              0xffffffffffffffffffffffffffffffffffffffff\n              and\n              0xffffffffffffffffffffffffffffffffffffffff\n              and\n              dup2\n              mstore\n              0x20\n              add\n              swap1\n              dup2\n              mstore\n              0x20\n              add\n              0x0\n              keccak256\n              0x0\n              swap1\n              sload\n              swap1\n              0x100\n              exp\n              swap1\n              div\n              0xff\n              and\n                /* \"MultiSigWallet.sol\":1761:1805  require(confirmations[transactionId][owner]) */\n              iszero\n              iszero\n              tag_126\n              jumpi\n              0x0\n              dup1\n              revert\n            tag_126:\n                /* \"MultiSigWallet.sol\":6422:6435  transactionId */\n              dup4\n                /* \"MultiSigWallet.sol\":2025:2037  transactions */\n              0x0\n                /* \"MultiSigWallet.sol\":2025:2052  transactions[transactionId] */\n              dup1\n                /* \"MultiSigWallet.sol\":2038:2051  transactionId */\n              dup3\n                /* \"MultiSigWallet.sol\":2025:2052  transactions[transactionId] */\n              dup2\n              mstore\n              0x20\n              add\n              swap1\n              dup2\n              mstore\n              0x20\n              add\n              0x0\n              keccak256\n                /* \"MultiSigWallet.sol\":2025:2061  transactions[transactionId].executed */\n              0x3\n              add\n              0x0\n              swap1\n              sload\n              swap1\n              0x100\n              exp\n              swap1\n              div\n              0xff\n              and\n                /* \"MultiSigWallet.sol\":2024:2061  !transactions[transactionId].executed */\n              iszero\n                /* \"MultiSigWallet.sol\":2016:2062  require(!transactions[transactionId].executed) */\n              iszero\n              iszero\n              tag_128\n              jumpi\n              0x0\n              dup1\n              revert\n            tag_128:\n                /* \"MultiSigWallet.sol\":6494:6499  false */\n              0x0\n                /* \"MultiSigWallet.sol\":6451:6464  confirmations */\n              0x1\n                /* \"MultiSigWallet.sol\":6451:6479  confirmations[transactionId] */\n              0x0\n                /* \"MultiSigWallet.sol\":6465:6478  transactionId */\n              dup8\n                /* \"MultiSigWallet.sol\":6451:6479  confirmations[transactionId] */\n              dup2\n              mstore\n              0x20\n              add\n              swap1\n              dup2\n              mstore\n              0x20\n              add\n              0x0\n              keccak256\n                /* \"MultiSigWallet.sol\":6451:6491  confirmations[transactionId][msg.sender] */\n              0x0\n                /* \"MultiSigWallet.sol\":6480:6490  msg.sender */\n              caller\n                /* \"MultiSigWallet.sol\":6451:6491  confirmations[transactionId][msg.sender] */\n              0xffffffffffffffffffffffffffffffffffffffff\n              and\n              0xffffffffffffffffffffffffffffffffffffffff\n              and\n              dup2\n              mstore\n              0x20\n              add\n              swap1\n              dup2\n              mstore\n              0x20\n              add\n              0x0\n              keccak256\n              0x0\n                /* \"MultiSigWallet.sol\":6451:6499  confirmations[transactionId][msg.sender] = false */\n              0x100\n              exp\n              dup2\n              sload\n              dup2\n              0xff\n              mul\n              not\n              and\n              swap1\n              dup4\n              iszero\n              iszero\n              mul\n              or\n              swap1\n              sstore\n              pop\n                /* \"MultiSigWallet.sol\":6532:6545  transactionId */\n              dup5\n                /* \"MultiSigWallet.sol\":6520:6530  msg.sender */\n              caller\n                /* \"MultiSigWallet.sol\":6509:6546  Revocation(msg.sender, transactionId) */\n              0xffffffffffffffffffffffffffffffffffffffff\n              and\n              0xf6a317157440607f36269043eb55f1287a5a19ba2216afeab88cd46cbcfb88e9\n              mload(0x40)\n              mload(0x40)\n              dup1\n              swap2\n              sub\n              swap1\n              log3\n                /* \"MultiSigWallet.sol\":1815:1816  _ */\n              pop\n                /* \"MultiSigWallet.sol\":1549:1550  _ */\n              pop\n              pop\n                /* \"MultiSigWallet.sol\":6262:6553  function revokeConfirmation(uint transactionId)... */\n              pop\n              pop\n              jump\t// out\n                /* \"MultiSigWallet.sol\":985:1025  mapping (address => bool) public isOwner */\n            tag_37:\n              mstore(0x20, 0x2)\n              dup1\n              0x0\n              mstore\n              keccak256(0x0, 0x40)\n              0x0\n              swap2\n              pop\n              sload\n              swap1\n              0x100\n              exp\n              swap1\n              div\n              0xff\n              and\n              dup2\n              jump\t// out\n                /* \"MultiSigWallet.sol\":915:979  mapping (uint => mapping (address => bool)) public confirmations */\n            tag_40:\n              mstore(0x20, 0x1)\n              dup2\n              0x0\n              mstore\n              mstore(0x20, keccak256(0x0, 0x40))\n              dup1\n              0x0\n              mstore\n              keccak256(0x0, 0x40)\n              0x0\n              swap2\n              pop\n              swap2\n              pop\n              swap1\n              sload\n              swap1\n              0x100\n              exp\n              swap1\n              div\n              0xff\n              and\n              dup2\n              jump\t// out\n                /* \"MultiSigWallet.sol\":10516:10835  function getTransactionCount(bool pending, bool executed)... */\n            tag_43:\n                /* \"MultiSigWallet.sol\":10623:10633  uint count */\n              0x0\n                /* \"MultiSigWallet.sol\":10654:10660  uint i */\n              dup1\n                /* \"MultiSigWallet.sol\":10661:10662  0 */\n              0x0\n                /* \"MultiSigWallet.sol\":10654:10662  uint i=0 */\n              swap1\n              pop\n                /* \"MultiSigWallet.sol\":10649:10828  for (uint i=0; i<transactionCount; i++)... */\n            tag_131:\n                /* \"MultiSigWallet.sol\":10666:10682  transactionCount */\n              sload(0x5)\n                /* \"MultiSigWallet.sol\":10664:10665  i */\n              dup2\n                /* \"MultiSigWallet.sol\":10664:10682  i<transactionCount */\n              lt\n                /* \"MultiSigWallet.sol\":10649:10828  for (uint i=0; i<transactionCount; i++)... */\n              iszero\n              tag_132\n              jumpi\n                /* \"MultiSigWallet.sol\":10708:10715  pending */\n              dup4\n                /* \"MultiSigWallet.sol\":10708:10744  pending && !transactions[i].executed */\n              dup1\n              iszero\n              tag_134\n              jumpi\n              pop\n                /* \"MultiSigWallet.sol\":10720:10732  transactions */\n              0x0\n                /* \"MultiSigWallet.sol\":10720:10735  transactions[i] */\n              dup1\n                /* \"MultiSigWallet.sol\":10733:10734  i */\n              dup3\n                /* \"MultiSigWallet.sol\":10720:10735  transactions[i] */\n              dup2\n              mstore\n              0x20\n              add\n              swap1\n              dup2\n              mstore\n              0x20\n              add\n              0x0\n              keccak256\n                /* \"MultiSigWallet.sol\":10720:10744  transactions[i].executed */\n              0x3\n              add\n              0x0\n              swap1\n              sload\n              swap1\n              0x100\n              exp\n              swap1\n              div\n              0xff\n              and\n                /* \"MultiSigWallet.sol\":10719:10744  !transactions[i].executed */\n              iszero\n                /* \"MultiSigWallet.sol\":10708:10744  pending && !transactions[i].executed */\n            tag_134:\n                /* \"MultiSigWallet.sol\":10708:10800  pending && !transactions[i].executed... */\n              dup1\n              tag_135\n              jumpi\n              pop\n                /* \"MultiSigWallet.sol\":10764:10772  executed */\n              dup3\n                /* \"MultiSigWallet.sol\":10764:10800  executed && transactions[i].executed */\n              dup1\n              iszero\n              tag_136\n              jumpi\n              pop\n                /* \"MultiSigWallet.sol\":10776:10788  transactions */\n              0x0\n                /* \"MultiSigWallet.sol\":10776:10791  transactions[i] */\n              dup1\n                /* \"MultiSigWallet.sol\":10789:10790  i */\n              dup3\n                /* \"MultiSigWallet.sol\":10776:10791  transactions[i] */\n              dup2\n              mstore\n              0x20\n              add\n              swap1\n              dup2\n              mstore\n              0x20\n              add\n              0x0\n              keccak256\n                /* \"MultiSigWallet.sol\":10776:10800  transactions[i].executed */\n              0x3\n              add\n              0x0\n              swap1\n              sload\n              swap1\n              0x100\n              exp\n              swap1\n              div\n              0xff\n              and\n                /* \"MultiSigWallet.sol\":10764:10800  executed && transactions[i].executed */\n            tag_136:\n                /* \"MultiSigWallet.sol\":10708:10800  pending && !transactions[i].executed... */\n            tag_135:\n                /* \"MultiSigWallet.sol\":10701:10828  if (   pending && !transactions[i].executed... */\n              iszero\n              tag_137\n              jumpi\n                /* \"MultiSigWallet.sol\":10827:10828  1 */\n              0x1\n                /* \"MultiSigWallet.sol\":10818:10828  count += 1 */\n              dup3\n              add\n              swap2\n              pop\n                /* \"MultiSigWallet.sol\":10701:10828  if (   pending && !transactions[i].executed... */\n            tag_137:\n                /* \"MultiSigWallet.sol\":10684:10687  i++ */\n              dup1\n              dup1\n              0x1\n              add\n              swap2\n              pop\n              pop\n                /* \"MultiSigWallet.sol\":10649:10828  for (uint i=0; i<transactionCount; i++)... */\n              jump(tag_131)\n            tag_132:\n                /* \"MultiSigWallet.sol\":10516:10835  function getTransactionCount(bool pending, bool executed)... */\n              pop\n              swap3\n              swap2\n              pop\n              pop\n              jump\t// out\n                /* \"MultiSigWallet.sol\":3296:3573  function addOwner(address owner)... */\n            tag_46:\n                /* \"MultiSigWallet.sol\":1340:1344  this */\n              address\n                /* \"MultiSigWallet.sol\":1318:1345  msg.sender == address(this) */\n              0xffffffffffffffffffffffffffffffffffffffff\n              and\n                /* \"MultiSigWallet.sol\":1318:1328  msg.sender */\n              caller\n                /* \"MultiSigWallet.sol\":1318:1345  msg.sender == address(this) */\n              0xffffffffffffffffffffffffffffffffffffffff\n              and\n              eq\n                /* \"MultiSigWallet.sol\":1310:1346  require(msg.sender == address(this)) */\n              iszero\n              iszero\n              tag_139\n              jumpi\n              0x0\n              dup1\n              revert\n            tag_139:\n                /* \"MultiSigWallet.sol\":3389:3394  owner */\n              dup1\n                /* \"MultiSigWallet.sol\":1431:1438  isOwner */\n              0x2\n                /* \"MultiSigWallet.sol\":1431:1445  isOwner[owner] */\n              0x0\n                /* \"MultiSigWallet.sol\":1439:1444  owner */\n              dup3\n                /* \"MultiSigWallet.sol\":1431:1445  isOwner[owner] */\n              0xffffffffffffffffffffffffffffffffffffffff\n              and\n              0xffffffffffffffffffffffffffffffffffffffff\n              and\n              dup2\n              mstore\n              0x20\n              add\n              swap1\n              dup2\n              mstore\n              0x20\n              add\n              0x0\n              keccak256\n              0x0\n              swap1\n              sload\n              swap1\n              0x100\n              exp\n              swap1\n              div\n              0xff\n              and\n                /* \"MultiSigWallet.sol\":1430:1445  !isOwner[owner] */\n              iszero\n                /* \"MultiSigWallet.sol\":1422:1446  require(!isOwner[owner]) */\n              iszero\n              iszero\n              tag_141\n              jumpi\n              0x0\n              dup1\n              revert\n            tag_141:\n                /* \"MultiSigWallet.sol\":3412:3417  owner */\n              dup2\n                /* \"MultiSigWallet.sol\":2151:2152  0 */\n              0x0\n                /* \"MultiSigWallet.sol\":2139:2147  _address */\n              dup2\n                /* \"MultiSigWallet.sol\":2139:2152  _address != 0 */\n              0xffffffffffffffffffffffffffffffffffffffff\n              and\n              eq\n              iszero\n                /* \"MultiSigWallet.sol\":2131:2153  require(_address != 0) */\n              iszero\n              iszero\n              tag_143\n              jumpi\n              0x0\n              dup1\n              revert\n            tag_143:\n                /* \"MultiSigWallet.sol\":3460:3461  1 */\n              0x1\n                /* \"MultiSigWallet.sol\":3444:3450  owners */\n              0x3\n                /* \"MultiSigWallet.sol\":3444:3457  owners.length */\n              dup1\n              sload\n              swap1\n              pop\n                /* \"MultiSigWallet.sol\":3444:3461  owners.length + 1 */\n              add\n                /* \"MultiSigWallet.sol\":3463:3471  required */\n              sload(0x4)\n                /* \"MultiSigWallet.sol\":820:822  50 */\n              0x32\n                /* \"MultiSigWallet.sol\":2254:2264  ownerCount */\n              dup3\n                /* \"MultiSigWallet.sol\":2254:2283  ownerCount <= MAX_OWNER_COUNT */\n              gt\n              iszero\n                /* \"MultiSigWallet.sol\":2254:2322  ownerCount <= MAX_OWNER_COUNT... */\n              dup1\n              iszero\n              tag_145\n              jumpi\n              pop\n                /* \"MultiSigWallet.sol\":2312:2322  ownerCount */\n              dup2\n                /* \"MultiSigWallet.sol\":2299:2308  _required */\n              dup2\n                /* \"MultiSigWallet.sol\":2299:2322  _required <= ownerCount */\n              gt\n              iszero\n                /* \"MultiSigWallet.sol\":2254:2322  ownerCount <= MAX_OWNER_COUNT... */\n            tag_145:\n                /* \"MultiSigWallet.sol\":2254:2352  ownerCount <= MAX_OWNER_COUNT... */\n              dup1\n              iszero\n              tag_146\n              jumpi\n              pop\n                /* \"MultiSigWallet.sol\":2351:2352  0 */\n              0x0\n                /* \"MultiSigWallet.sol\":2338:2347  _required */\n              dup2\n                /* \"MultiSigWallet.sol\":2338:2352  _required != 0 */\n              eq\n              iszero\n                /* \"MultiSigWallet.sol\":2254:2352  ownerCount <= MAX_OWNER_COUNT... */\n            tag_146:\n                /* \"MultiSigWallet.sol\":2254:2383  ownerCount <= MAX_OWNER_COUNT... */\n              dup1\n              iszero\n              tag_147\n              jumpi\n              pop\n                /* \"MultiSigWallet.sol\":2382:2383  0 */\n              0x0\n                /* \"MultiSigWallet.sol\":2368:2378  ownerCount */\n              dup3\n                /* \"MultiSigWallet.sol\":2368:2383  ownerCount != 0 */\n              eq\n              iszero\n                /* \"MultiSigWallet.sol\":2254:2383  ownerCount <= MAX_OWNER_COUNT... */\n            tag_147:\n                /* \"MultiSigWallet.sol\":2246:2384  require(ownerCount <= MAX_OWNER_COUNT... */\n              iszero\n              iszero\n              tag_148\n              jumpi\n              0x0\n              dup1\n              revert\n            tag_148:\n                /* \"MultiSigWallet.sol\":3504:3508  true */\n              0x1\n                /* \"MultiSigWallet.sol\":3487:3494  isOwner */\n              0x2\n                /* \"MultiSigWallet.sol\":3487:3501  isOwner[owner] */\n              0x0\n                /* \"MultiSigWallet.sol\":3495:3500  owner */\n              dup8\n                /* \"MultiSigWallet.sol\":3487:3501  isOwner[owner] */\n              0xffffffffffffffffffffffffffffffffffffffff\n              and\n              0xffffffffffffffffffffffffffffffffffffffff\n              and\n              dup2\n              mstore\n              0x20\n              add\n              swap1\n              dup2\n              mstore\n              0x20\n              add\n              0x0\n              keccak256\n              0x0\n                /* \"MultiSigWallet.sol\":3487:3508  isOwner[owner] = true */\n              0x100\n              exp\n              dup2\n              sload\n              dup2\n              0xff\n              mul\n              not\n              and\n              swap1\n              dup4\n              iszero\n              iszero\n              mul\n              or\n              swap1\n              sstore\n              pop\n                /* \"MultiSigWallet.sol\":3518:3524  owners */\n              0x3\n                /* \"MultiSigWallet.sol\":3530:3535  owner */\n              dup6\n                /* \"MultiSigWallet.sol\":3518:3536  owners.push(owner) */\n              swap1\n              dup1\n                /* \"--CODEGEN--\":39:40   */\n              0x1\n                /* \"--CODEGEN--\":33:36   */\n              dup2\n                /* \"--CODEGEN--\":27:37   */\n              sload\n                /* \"--CODEGEN--\":23:41   */\n              add\n                /* \"--CODEGEN--\":57:67   */\n              dup1\n                /* \"--CODEGEN--\":52:55   */\n              dup3\n                /* \"--CODEGEN--\":45:68   */\n              sstore\n                /* \"--CODEGEN--\":79:89   */\n              dup1\n                /* \"--CODEGEN--\":72:89   */\n              swap2\n              pop\n                /* \"--CODEGEN--\":0:93   */\n              pop\n                /* \"MultiSigWallet.sol\":3518:3536  owners.push(owner) */\n              swap1\n              0x1\n              dup3\n              sub\n              swap1\n              0x0\n              mstore\n              keccak256(0x0, 0x20)\n              add\n              0x0\n              swap1\n              swap2\n              swap3\n              swap1\n              swap2\n              swap1\n              swap2\n              0x100\n              exp\n              dup2\n              sload\n              dup2\n              0xffffffffffffffffffffffffffffffffffffffff\n              mul\n              not\n              and\n              swap1\n              dup4\n              0xffffffffffffffffffffffffffffffffffffffff\n              and\n              mul\n              or\n              swap1\n              sstore\n              pop\n              pop\n                /* \"MultiSigWallet.sol\":3560:3565  owner */\n              dup5\n                /* \"MultiSigWallet.sol\":3546:3566  OwnerAddition(owner) */\n              0xffffffffffffffffffffffffffffffffffffffff\n              and\n              0xf39e6e1eb0edcf53c221607b54b00cd28f3196fed0a24994dc308b8f611b682d\n              mload(0x40)\n              mload(0x40)\n              dup1\n              swap2\n              sub\n              swap1\n              log2\n                /* \"MultiSigWallet.sol\":2163:2164  _ */\n              pop\n              pop\n                /* \"MultiSigWallet.sol\":1456:1457  _ */\n              pop\n                /* \"MultiSigWallet.sol\":1356:1357  _ */\n              pop\n                /* \"MultiSigWallet.sol\":3296:3573  function addOwner(address owner)... */\n              pop\n              jump\t// out\n                /* \"MultiSigWallet.sol\":8684:9021  function isConfirmed(uint transactionId)... */\n            tag_49:\n                /* \"MultiSigWallet.sol\":8774:8778  bool */\n              0x0\n                /* \"MultiSigWallet.sol\":8794:8804  uint count */\n              dup1\n                /* \"MultiSigWallet.sol\":8823:8829  uint i */\n              0x0\n                /* \"MultiSigWallet.sol\":8807:8808  0 */\n              dup1\n                /* \"MultiSigWallet.sol\":8794:8808  uint count = 0 */\n              swap2\n              pop\n                /* \"MultiSigWallet.sol\":8830:8831  0 */\n              0x0\n                /* \"MultiSigWallet.sol\":8823:8831  uint i=0 */\n              swap1\n              pop\n                /* \"MultiSigWallet.sol\":8818:9015  for (uint i=0; i<owners.length; i++) {... */\n            tag_152:\n                /* \"MultiSigWallet.sol\":8835:8841  owners */\n              0x3\n                /* \"MultiSigWallet.sol\":8835:8848  owners.length */\n              dup1\n              sload\n              swap1\n              pop\n                /* \"MultiSigWallet.sol\":8833:8834  i */\n              dup2\n                /* \"MultiSigWallet.sol\":8833:8848  i<owners.length */\n              lt\n                /* \"MultiSigWallet.sol\":8818:9015  for (uint i=0; i<owners.length; i++) {... */\n              iszero\n              tag_153\n              jumpi\n                /* \"MultiSigWallet.sol\":8873:8886  confirmations */\n              0x1\n                /* \"MultiSigWallet.sol\":8873:8901  confirmations[transactionId] */\n              0x0\n                /* \"MultiSigWallet.sol\":8887:8900  transactionId */\n              dup6\n                /* \"MultiSigWallet.sol\":8873:8901  confirmations[transactionId] */\n              dup2\n              mstore\n              0x20\n              add\n              swap1\n              dup2\n              mstore\n              0x20\n              add\n              0x0\n              keccak256\n                /* \"MultiSigWallet.sol\":8873:8912  confirmations[transactionId][owners[i]] */\n              0x0\n                /* \"MultiSigWallet.sol\":8902:8908  owners */\n              0x3\n                /* \"MultiSigWallet.sol\":8909:8910  i */\n              dup4\n                /* \"MultiSigWallet.sol\":8902:8911  owners[i] */\n              dup2\n              sload\n              dup2\n              lt\n              iszero\n              iszero\n              tag_155\n              jumpi\n              invalid\n            tag_155:\n              swap1\n              0x0\n              mstore\n              keccak256(0x0, 0x20)\n              add\n              0x0\n              swap1\n              sload\n              swap1\n              0x100\n              exp\n              swap1\n              div\n              0xffffffffffffffffffffffffffffffffffffffff\n              and\n                /* \"MultiSigWallet.sol\":8873:8912  confirmations[transactionId][owners[i]] */\n              0xffffffffffffffffffffffffffffffffffffffff\n              and\n              0xffffffffffffffffffffffffffffffffffffffff\n              and\n              dup2\n              mstore\n              0x20\n              add\n              swap1\n              dup2\n              mstore\n              0x20\n              add\n              0x0\n              keccak256\n              0x0\n              swap1\n              sload\n              swap1\n              0x100\n              exp\n              swap1\n              div\n              0xff\n              and\n                /* \"MultiSigWallet.sol\":8869:8940  if (confirmations[transactionId][owners[i]])... */\n              iszero\n              tag_157\n              jumpi\n                /* \"MultiSigWallet.sol\":8939:8940  1 */\n              0x1\n                /* \"MultiSigWallet.sol\":8930:8940  count += 1 */\n              dup3\n              add\n              swap2\n              pop\n                /* \"MultiSigWallet.sol\":8869:8940  if (confirmations[transactionId][owners[i]])... */\n            tag_157:\n                /* \"MultiSigWallet.sol\":8967:8975  required */\n              sload(0x4)\n                /* \"MultiSigWallet.sol\":8958:8963  count */\n              dup3\n                /* \"MultiSigWallet.sol\":8958:8975  count == required */\n              eq\n                /* \"MultiSigWallet.sol\":8954:9004  if (count == required)... */\n              iszero\n              tag_158\n              jumpi\n                /* \"MultiSigWallet.sol\":9000:9004  true */\n              0x1\n                /* \"MultiSigWallet.sol\":8993:9004  return true */\n              swap3\n              pop\n              jump(tag_151)\n                /* \"MultiSigWallet.sol\":8954:9004  if (count == required)... */\n            tag_158:\n                /* \"MultiSigWallet.sol\":8850:8853  i++ */\n              dup1\n              dup1\n              0x1\n              add\n              swap2\n              pop\n              pop\n                /* \"MultiSigWallet.sol\":8818:9015  for (uint i=0; i<owners.length; i++) {... */\n              jump(tag_152)\n            tag_153:\n                /* \"MultiSigWallet.sol\":8684:9021  function isConfirmed(uint transactionId)... */\n            tag_151:\n              pop\n              pop\n              swap2\n              swap1\n              pop\n              jump\t// out\n                /* \"MultiSigWallet.sol\":10002:10254  function getConfirmationCount(uint transactionId)... */\n            tag_52:\n                /* \"MultiSigWallet.sol\":10101:10111  uint count */\n              0x0\n                /* \"MultiSigWallet.sol\":10132:10138  uint i */\n              dup1\n                /* \"MultiSigWallet.sol\":10139:10140  0 */\n              0x0\n                /* \"MultiSigWallet.sol\":10132:10140  uint i=0 */\n              swap1\n              pop\n                /* \"MultiSigWallet.sol\":10127:10247  for (uint i=0; i<owners.length; i++)... */\n            tag_160:\n                /* \"MultiSigWallet.sol\":10144:10150  owners */\n              0x3\n                /* \"MultiSigWallet.sol\":10144:10157  owners.length */\n              dup1\n              sload\n              swap1\n              pop\n                /* \"MultiSigWallet.sol\":10142:10143  i */\n              dup2\n                /* \"MultiSigWallet.sol\":10142:10157  i<owners.length */\n              lt\n                /* \"MultiSigWallet.sol\":10127:10247  for (uint i=0; i<owners.length; i++)... */\n              iszero\n              tag_161\n              jumpi\n                /* \"MultiSigWallet.sol\":10180:10193  confirmations */\n              0x1\n                /* \"MultiSigWallet.sol\":10180:10208  confirmations[transactionId] */\n              0x0\n                /* \"MultiSigWallet.sol\":10194:10207  transactionId */\n              dup5\n                /* \"MultiSigWallet.sol\":10180:10208  confirmations[transactionId] */\n              dup2\n              mstore\n              0x20\n              add\n              swap1\n              dup2\n              mstore\n              0x20\n              add\n              0x0\n              keccak256\n                /* \"MultiSigWallet.sol\":10180:10219  confirmations[transactionId][owners[i]] */\n              0x0\n                /* \"MultiSigWallet.sol\":10209:10215  owners */\n              0x3\n                /* \"MultiSigWallet.sol\":10216:10217  i */\n              dup4\n                /* \"MultiSigWallet.sol\":10209:10218  owners[i] */\n              dup2\n              sload\n              dup2\n              lt\n              iszero\n              iszero\n              tag_163\n              jumpi\n              invalid\n            tag_163:\n              swap1\n              0x0\n              mstore\n              keccak256(0x0, 0x20)\n              add\n              0x0\n              swap1\n              sload\n              swap1\n              0x100\n              exp\n              swap1\n              div\n              0xffffffffffffffffffffffffffffffffffffffff\n              and\n                /* \"MultiSigWallet.sol\":10180:10219  confirmations[transactionId][owners[i]] */\n              0xffffffffffffffffffffffffffffffffffffffff\n              and\n              0xffffffffffffffffffffffffffffffffffffffff\n              and\n              dup2\n              mstore\n              0x20\n              add\n              swap1\n              dup2\n              mstore\n              0x20\n              add\n              0x0\n              keccak256\n              0x0\n              swap1\n              sload\n              swap1\n              0x100\n              exp\n              swap1\n              div\n              0xff\n              and\n                /* \"MultiSigWallet.sol\":10176:10247  if (confirmations[transactionId][owners[i]])... */\n              iszero\n              tag_165\n              jumpi\n                /* \"MultiSigWallet.sol\":10246:10247  1 */\n              0x1\n                /* \"MultiSigWallet.sol\":10237:10247  count += 1 */\n              dup3\n              add\n              swap2\n              pop\n                /* \"MultiSigWallet.sol\":10176:10247  if (confirmations[transactionId][owners[i]])... */\n            tag_165:\n                /* \"MultiSigWallet.sol\":10159:10162  i++ */\n              dup1\n              dup1\n              0x1\n              add\n              swap2\n              pop\n              pop\n                /* \"MultiSigWallet.sol\":10127:10247  for (uint i=0; i<owners.length; i++)... */\n              jump(tag_160)\n            tag_161:\n                /* \"MultiSigWallet.sol\":10002:10254  function getConfirmationCount(uint transactionId)... */\n              pop\n              swap2\n              swap1\n              pop\n              jump\t// out\n                /* \"MultiSigWallet.sol\":860:909  mapping (uint => Transaction) public transactions */\n            tag_55:\n              mstore(0x20, 0x0)\n              dup1\n              0x0\n              mstore\n              keccak256(0x0, 0x40)\n              0x0\n              swap2\n              pop\n              swap1\n              pop\n              dup1\n              0x0\n              add\n              0x0\n              swap1\n              sload\n              swap1\n              0x100\n              exp\n              swap1\n              div\n              0xffffffffffffffffffffffffffffffffffffffff\n              and\n              swap1\n              dup1\n              0x1\n              add\n              sload\n              swap1\n              dup1\n              0x2\n              add\n              dup1\n              sload\n              0x1\n              dup2\n              0x1\n              and\n              iszero\n              0x100\n              mul\n              sub\n              and\n              0x2\n              swap1\n              div\n              dup1\n              0x1f\n              add\n              0x20\n              dup1\n              swap2\n              div\n              mul\n              0x20\n              add\n              mload(0x40)\n              swap1\n              dup2\n              add\n              0x40\n              mstore\n              dup1\n              swap3\n              swap2\n              swap1\n              dup2\n              dup2\n              mstore\n              0x20\n              add\n              dup3\n              dup1\n              sload\n              0x1\n              dup2\n              0x1\n              and\n              iszero\n              0x100\n              mul\n              sub\n              and\n              0x2\n              swap1\n              div\n              dup1\n              iszero\n              tag_166\n              jumpi\n              dup1\n              0x1f\n              lt\n              tag_167\n              jumpi\n              0x100\n              dup1\n              dup4\n              sload\n              div\n              mul\n              dup4\n              mstore\n              swap2\n              0x20\n              add\n              swap2\n              jump(tag_166)\n            tag_167:\n              dup3\n              add\n              swap2\n              swap1\n              0x0\n              mstore\n              keccak256(0x0, 0x20)\n              swap1\n            tag_168:\n              dup2\n              sload\n              dup2\n              mstore\n              swap1\n              0x1\n              add\n              swap1\n              0x20\n              add\n              dup1\n              dup4\n              gt\n              tag_168\n              jumpi\n              dup3\n              swap1\n              sub\n              0x1f\n              and\n              dup3\n              add\n              swap2\n            tag_166:\n              pop\n              pop\n              pop\n              pop\n              pop\n              swap1\n              dup1\n              0x3\n              add\n              0x0\n              swap1\n              sload\n              swap1\n              0x100\n              exp\n              swap1\n              div\n              0xff\n              and\n              swap1\n              pop\n              dup5\n              jump\t// out\n                /* \"MultiSigWallet.sol\":10919:11034  function getOwners()... */\n            tag_62:\n                /* \"MultiSigWallet.sol\":10989:10998  address[] */\n              0x60\n                /* \"MultiSigWallet.sol\":11021:11027  owners */\n              0x3\n                /* \"MultiSigWallet.sol\":11014:11027  return owners */\n              dup1\n              sload\n              dup1\n              0x20\n              mul\n              0x20\n              add\n              mload(0x40)\n              swap1\n              dup2\n              add\n              0x40\n              mstore\n              dup1\n              swap3\n              swap2\n              swap1\n              dup2\n              dup2\n              mstore\n              0x20\n              add\n              dup3\n              dup1\n              sload\n              dup1\n              iszero\n              tag_170\n              jumpi\n              0x20\n              mul\n              dup3\n              add\n              swap2\n              swap1\n              0x0\n              mstore\n              keccak256(0x0, 0x20)\n              swap1\n            tag_171:\n              dup2\n              0x0\n              swap1\n              sload\n              swap1\n              0x100\n              exp\n              swap1\n              div\n              0xffffffffffffffffffffffffffffffffffffffff\n              and\n              0xffffffffffffffffffffffffffffffffffffffff\n              and\n              dup2\n              mstore\n              0x20\n              add\n              swap1\n              0x1\n              add\n              swap1\n              dup1\n              dup4\n              gt\n              tag_171\n              jumpi\n            tag_170:\n              pop\n              pop\n              pop\n              pop\n              pop\n              swap1\n              pop\n                /* \"MultiSigWallet.sol\":10919:11034  function getOwners()... */\n              swap1\n              jump\t// out\n                /* \"MultiSigWallet.sol\":12137:12813  function getTransactionIds(uint from, uint to, bool pending, bool executed)... */\n            tag_68:\n                /* \"MultiSigWallet.sol\":12262:12284  uint[] _transactionIds */\n              0x60\n                /* \"MultiSigWallet.sol\":12300:12332  uint[] memory transactionIdsTemp */\n              dup1\n                /* \"MultiSigWallet.sol\":12373:12383  uint count */\n              0x0\n                /* \"MultiSigWallet.sol\":12397:12403  uint i */\n              dup1\n                /* \"MultiSigWallet.sol\":12346:12362  transactionCount */\n              sload(0x5)\n                /* \"MultiSigWallet.sol\":12335:12363  new uint[](transactionCount) */\n              mload(0x40)\n              swap1\n              dup1\n              dup3\n              mstore\n              dup1\n              0x20\n              mul\n              0x20\n              add\n              dup3\n              add\n              0x40\n              mstore\n              dup1\n              iszero\n              tag_173\n              jumpi\n              dup2\n              0x20\n              add\n                /* \"--CODEGEN--\":29:31   */\n              0x20\n                /* \"--CODEGEN--\":21:27   */\n              dup3\n                /* \"--CODEGEN--\":17:32   */\n              mul\n                /* \"--CODEGEN--\":117:121   */\n              dup1\n                /* \"--CODEGEN--\":105:115   */\n              codesize\n                /* \"--CODEGEN--\":97:103   */\n              dup4\n                /* \"--CODEGEN--\":88:122   */\n              codecopy\n                /* \"--CODEGEN--\":148:152   */\n              dup1\n                /* \"--CODEGEN--\":140:146   */\n              dup3\n                /* \"--CODEGEN--\":136:153   */\n              add\n                /* \"--CODEGEN--\":126:153   */\n              swap2\n              pop\n                /* \"--CODEGEN--\":0:157   */\n              pop\n                /* \"MultiSigWallet.sol\":12335:12363  new uint[](transactionCount) */\n              swap1\n              pop\n            tag_173:\n              pop\n                /* \"MultiSigWallet.sol\":12300:12363  uint[] memory transactionIdsTemp = new uint[](transactionCount) */\n              swap3\n              pop\n                /* \"MultiSigWallet.sol\":12386:12387  0 */\n              0x0\n                /* \"MultiSigWallet.sol\":12373:12387  uint count = 0 */\n              swap2\n              pop\n                /* \"MultiSigWallet.sol\":12420:12421  0 */\n              0x0\n                /* \"MultiSigWallet.sol\":12418:12421  i=0 */\n              swap1\n              pop\n                /* \"MultiSigWallet.sol\":12413:12663  for (i=0; i<transactionCount; i++)... */\n            tag_174:\n                /* \"MultiSigWallet.sol\":12425:12441  transactionCount */\n              sload(0x5)\n                /* \"MultiSigWallet.sol\":12423:12424  i */\n              dup2\n                /* \"MultiSigWallet.sol\":12423:12441  i<transactionCount */\n              lt\n                /* \"MultiSigWallet.sol\":12413:12663  for (i=0; i<transactionCount; i++)... */\n              iszero\n              tag_175\n              jumpi\n                /* \"MultiSigWallet.sol\":12467:12474  pending */\n              dup6\n                /* \"MultiSigWallet.sol\":12467:12503  pending && !transactions[i].executed */\n              dup1\n              iszero\n              tag_177\n              jumpi\n              pop\n                /* \"MultiSigWallet.sol\":12479:12491  transactions */\n              0x0\n                /* \"MultiSigWallet.sol\":12479:12494  transactions[i] */\n              dup1\n                /* \"MultiSigWallet.sol\":12492:12493  i */\n              dup3\n                /* \"MultiSigWallet.sol\":12479:12494  transactions[i] */\n              dup2\n              mstore\n              0x20\n              add\n              swap1\n              dup2\n              mstore\n              0x20\n              add\n              0x0\n              keccak256\n                /* \"MultiSigWallet.sol\":12479:12503  transactions[i].executed */\n              0x3\n              add\n              0x0\n              swap1\n              sload\n              swap1\n              0x100\n              exp\n              swap1\n              div\n              0xff\n              and\n                /* \"MultiSigWallet.sol\":12478:12503  !transactions[i].executed */\n              iszero\n                /* \"MultiSigWallet.sol\":12467:12503  pending && !transactions[i].executed */\n            tag_177:\n                /* \"MultiSigWallet.sol\":12467:12559  pending && !transactions[i].executed... */\n              dup1\n              tag_178\n              jumpi\n              pop\n                /* \"MultiSigWallet.sol\":12523:12531  executed */\n              dup5\n                /* \"MultiSigWallet.sol\":12523:12559  executed && transactions[i].executed */\n              dup1\n              iszero\n              tag_179\n              jumpi\n              pop\n                /* \"MultiSigWallet.sol\":12535:12547  transactions */\n              0x0\n                /* \"MultiSigWallet.sol\":12535:12550  transactions[i] */\n              dup1\n                /* \"MultiSigWallet.sol\":12548:12549  i */\n              dup3\n                /* \"MultiSigWallet.sol\":12535:12550  transactions[i] */\n              dup2\n              mstore\n              0x20\n              add\n              swap1\n              dup2\n              mstore\n              0x20\n              add\n              0x0\n              keccak256\n                /* \"MultiSigWallet.sol\":12535:12559  transactions[i].executed */\n              0x3\n              add\n              0x0\n              swap1\n              sload\n              swap1\n              0x100\n              exp\n              swap1\n              div\n              0xff\n              and\n                /* \"MultiSigWallet.sol\":12523:12559  executed && transactions[i].executed */\n            tag_179:\n                /* \"MultiSigWallet.sol\":12467:12559  pending && !transactions[i].executed... */\n            tag_178:\n                /* \"MultiSigWallet.sol\":12460:12663  if (   pending && !transactions[i].executed... */\n              iszero\n              tag_180\n              jumpi\n                /* \"MultiSigWallet.sol\":12619:12620  i */\n              dup1\n                /* \"MultiSigWallet.sol\":12591:12609  transactionIdsTemp */\n              dup4\n                /* \"MultiSigWallet.sol\":12610:12615  count */\n              dup4\n                /* \"MultiSigWallet.sol\":12591:12616  transactionIdsTemp[count] */\n              dup2\n              mload\n              dup2\n              lt\n              iszero\n              iszero\n              tag_181\n              jumpi\n              invalid\n            tag_181:\n              swap1\n              0x20\n              add\n              swap1\n              0x20\n              mul\n              add\n                /* \"MultiSigWallet.sol\":12591:12620  transactionIdsTemp[count] = i */\n              dup2\n              dup2\n              mstore\n              pop\n              pop\n                /* \"MultiSigWallet.sol\":12647:12648  1 */\n              0x1\n                /* \"MultiSigWallet.sol\":12638:12648  count += 1 */\n              dup3\n              add\n              swap2\n              pop\n                /* \"MultiSigWallet.sol\":12460:12663  if (   pending && !transactions[i].executed... */\n            tag_180:\n                /* \"MultiSigWallet.sol\":12443:12446  i++ */\n              dup1\n              dup1\n              0x1\n              add\n              swap2\n              pop\n              pop\n                /* \"MultiSigWallet.sol\":12413:12663  for (i=0; i<transactionCount; i++)... */\n              jump(tag_174)\n            tag_175:\n                /* \"MultiSigWallet.sol\":12706:12710  from */\n              dup8\n                /* \"MultiSigWallet.sol\":12701:12703  to */\n              dup8\n                /* \"MultiSigWallet.sol\":12701:12710  to - from */\n              sub\n                /* \"MultiSigWallet.sol\":12690:12711  new uint[](to - from) */\n              mload(0x40)\n              swap1\n              dup1\n              dup3\n              mstore\n              dup1\n              0x20\n              mul\n              0x20\n              add\n              dup3\n              add\n              0x40\n              mstore\n              dup1\n              iszero\n              tag_182\n              jumpi\n              dup2\n              0x20\n              add\n                /* \"--CODEGEN--\":29:31   */\n              0x20\n                /* \"--CODEGEN--\":21:27   */\n              dup3\n                /* \"--CODEGEN--\":17:32   */\n              mul\n                /* \"--CODEGEN--\":117:121   */\n              dup1\n                /* \"--CODEGEN--\":105:115   */\n              codesize\n                /* \"--CODEGEN--\":97:103   */\n              dup4\n                /* \"--CODEGEN--\":88:122   */\n              codecopy\n                /* \"--CODEGEN--\":148:152   */\n              dup1\n                /* \"--CODEGEN--\":140:146   */\n              dup3\n                /* \"--CODEGEN--\":136:153   */\n              add\n                /* \"--CODEGEN--\":126:153   */\n              swap2\n              pop\n                /* \"--CODEGEN--\":0:157   */\n              pop\n                /* \"MultiSigWallet.sol\":12690:12711  new uint[](to - from) */\n              swap1\n              pop\n            tag_182:\n              pop\n                /* \"MultiSigWallet.sol\":12672:12711  _transactionIds = new uint[](to - from) */\n              swap4\n              pop\n                /* \"MultiSigWallet.sol\":12728:12732  from */\n              dup8\n                /* \"MultiSigWallet.sol\":12726:12732  i=from */\n              swap1\n              pop\n                /* \"MultiSigWallet.sol\":12721:12806  for (i=from; i<to; i++)... */\n            tag_183:\n                /* \"MultiSigWallet.sol\":12736:12738  to */\n              dup7\n                /* \"MultiSigWallet.sol\":12734:12735  i */\n              dup2\n                /* \"MultiSigWallet.sol\":12734:12738  i<to */\n              lt\n                /* \"MultiSigWallet.sol\":12721:12806  for (i=from; i<to; i++)... */\n              iszero\n              tag_184\n              jumpi\n                /* \"MultiSigWallet.sol\":12785:12803  transactionIdsTemp */\n              dup3\n                /* \"MultiSigWallet.sol\":12804:12805  i */\n              dup2\n                /* \"MultiSigWallet.sol\":12785:12806  transactionIdsTemp[i] */\n              dup2\n              mload\n              dup2\n              lt\n              iszero\n              iszero\n              tag_186\n              jumpi\n              invalid\n            tag_186:\n              swap1\n              0x20\n              add\n              swap1\n              0x20\n              mul\n              add\n              mload\n                /* \"MultiSigWallet.sol\":12757:12772  _transactionIds */\n              dup5\n                /* \"MultiSigWallet.sol\":12777:12781  from */\n              dup10\n                /* \"MultiSigWallet.sol\":12773:12774  i */\n              dup4\n                /* \"MultiSigWallet.sol\":12773:12781  i - from */\n              sub\n                /* \"MultiSigWallet.sol\":12757:12782  _transactionIds[i - from] */\n              dup2\n              mload\n              dup2\n              lt\n              iszero\n              iszero\n              tag_187\n              jumpi\n              invalid\n            tag_187:\n              swap1\n              0x20\n              add\n              swap1\n              0x20\n              mul\n              add\n                /* \"MultiSigWallet.sol\":12757:12806  _transactionIds[i - from] = transactionIdsTemp[i] */\n              dup2\n              dup2\n              mstore\n              pop\n              pop\n                /* \"MultiSigWallet.sol\":12740:12743  i++ */\n              dup1\n              dup1\n              0x1\n              add\n              swap2\n              pop\n              pop\n                /* \"MultiSigWallet.sol\":12721:12806  for (i=from; i<to; i++)... */\n              jump(tag_183)\n            tag_184:\n                /* \"MultiSigWallet.sol\":12137:12813  function getTransactionIds(uint from, uint to, bool pending, bool executed)... */\n              pop\n              pop\n              pop\n              swap5\n              swap4\n              pop\n              pop\n              pop\n              pop\n              jump\t// out\n                /* \"MultiSigWallet.sol\":11213:11788  function getConfirmations(uint transactionId)... */\n            tag_74:\n                /* \"MultiSigWallet.sol\":11308:11332  address[] _confirmations */\n              0x60\n                /* \"MultiSigWallet.sol\":11348:11382  address[] memory confirmationsTemp */\n              dup1\n                /* \"MultiSigWallet.sol\":11423:11433  uint count */\n              0x0\n                /* \"MultiSigWallet.sol\":11447:11453  uint i */\n              dup1\n                /* \"MultiSigWallet.sol\":11399:11405  owners */\n              0x3\n                /* \"MultiSigWallet.sol\":11399:11412  owners.length */\n              dup1\n              sload\n              swap1\n              pop\n                /* \"MultiSigWallet.sol\":11385:11413  new address[](owners.length) */\n              mload(0x40)\n              swap1\n              dup1\n              dup3\n              mstore\n              dup1\n              0x20\n              mul\n              0x20\n              add\n              dup3\n              add\n              0x40\n              mstore\n              dup1\n              iszero\n              tag_189\n              jumpi\n              dup2\n              0x20\n              add\n                /* \"--CODEGEN--\":29:31   */\n              0x20\n                /* \"--CODEGEN--\":21:27   */\n              dup3\n                /* \"--CODEGEN--\":17:32   */\n              mul\n                /* \"--CODEGEN--\":117:121   */\n              dup1\n                /* \"--CODEGEN--\":105:115   */\n              codesize\n                /* \"--CODEGEN--\":97:103   */\n              dup4\n                /* \"--CODEGEN--\":88:122   */\n              codecopy\n                /* \"--CODEGEN--\":148:152   */\n              dup1\n                /* \"--CODEGEN--\":140:146   */\n              dup3\n                /* \"--CODEGEN--\":136:153   */\n              add\n                /* \"--CODEGEN--\":126:153   */\n              swap2\n              pop\n                /* \"--CODEGEN--\":0:157   */\n              pop\n                /* \"MultiSigWallet.sol\":11385:11413  new address[](owners.length) */\n              swap1\n              pop\n            tag_189:\n              pop\n                /* \"MultiSigWallet.sol\":11348:11413  address[] memory confirmationsTemp = new address[](owners.length) */\n              swap3\n              pop\n                /* \"MultiSigWallet.sol\":11436:11437  0 */\n              0x0\n                /* \"MultiSigWallet.sol\":11423:11437  uint count = 0 */\n              swap2\n              pop\n                /* \"MultiSigWallet.sol\":11470:11471  0 */\n              0x0\n                /* \"MultiSigWallet.sol\":11468:11471  i=0 */\n              swap1\n              pop\n                /* \"MultiSigWallet.sol\":11463:11649  for (i=0; i<owners.length; i++)... */\n            tag_190:\n                /* \"MultiSigWallet.sol\":11475:11481  owners */\n              0x3\n                /* \"MultiSigWallet.sol\":11475:11488  owners.length */\n              dup1\n              sload\n              swap1\n              pop\n                /* \"MultiSigWallet.sol\":11473:11474  i */\n              dup2\n                /* \"MultiSigWallet.sol\":11473:11488  i<owners.length */\n              lt\n                /* \"MultiSigWallet.sol\":11463:11649  for (i=0; i<owners.length; i++)... */\n              iszero\n              tag_191\n              jumpi\n                /* \"MultiSigWallet.sol\":11511:11524  confirmations */\n              0x1\n                /* \"MultiSigWallet.sol\":11511:11539  confirmations[transactionId] */\n              0x0\n                /* \"MultiSigWallet.sol\":11525:11538  transactionId */\n              dup7\n                /* \"MultiSigWallet.sol\":11511:11539  confirmations[transactionId] */\n              dup2\n              mstore\n              0x20\n              add\n              swap1\n              dup2\n              mstore\n              0x20\n              add\n              0x0\n              keccak256\n                /* \"MultiSigWallet.sol\":11511:11550  confirmations[transactionId][owners[i]] */\n              0x0\n                /* \"MultiSigWallet.sol\":11540:11546  owners */\n              0x3\n                /* \"MultiSigWallet.sol\":11547:11548  i */\n              dup4\n                /* \"MultiSigWallet.sol\":11540:11549  owners[i] */\n              dup2\n              sload\n              dup2\n              lt\n              iszero\n              iszero\n              tag_193\n              jumpi\n              invalid\n            tag_193:\n              swap1\n              0x0\n              mstore\n              keccak256(0x0, 0x20)\n              add\n              0x0\n              swap1\n              sload\n              swap1\n              0x100\n              exp\n              swap1\n              div\n              0xffffffffffffffffffffffffffffffffffffffff\n              and\n                /* \"MultiSigWallet.sol\":11511:11550  confirmations[transactionId][owners[i]] */\n              0xffffffffffffffffffffffffffffffffffffffff\n              and\n              0xffffffffffffffffffffffffffffffffffffffff\n              and\n              dup2\n              mstore\n              0x20\n              add\n              swap1\n              dup2\n              mstore\n              0x20\n              add\n              0x0\n              keccak256\n              0x0\n              swap1\n              sload\n              swap1\n              0x100\n              exp\n              swap1\n              div\n              0xff\n              and\n                /* \"MultiSigWallet.sol\":11507:11649  if (confirmations[transactionId][owners[i]]) {... */\n              iszero\n              tag_195\n              jumpi\n                /* \"MultiSigWallet.sol\":11597:11603  owners */\n              0x3\n                /* \"MultiSigWallet.sol\":11604:11605  i */\n              dup2\n                /* \"MultiSigWallet.sol\":11597:11606  owners[i] */\n              dup2\n              sload\n              dup2\n              lt\n              iszero\n              iszero\n              tag_196\n              jumpi\n              invalid\n            tag_196:\n              swap1\n              0x0\n              mstore\n              keccak256(0x0, 0x20)\n              add\n              0x0\n              swap1\n              sload\n              swap1\n              0x100\n              exp\n              swap1\n              div\n              0xffffffffffffffffffffffffffffffffffffffff\n              and\n                /* \"MultiSigWallet.sol\":11570:11587  confirmationsTemp */\n              dup4\n                /* \"MultiSigWallet.sol\":11588:11593  count */\n              dup4\n                /* \"MultiSigWallet.sol\":11570:11594  confirmationsTemp[count] */\n              dup2\n              mload\n              dup2\n              lt\n              iszero\n              iszero\n              tag_198\n              jumpi\n              invalid\n            tag_198:\n              swap1\n              0x20\n              add\n              swap1\n              0x20\n              mul\n              add\n                /* \"MultiSigWallet.sol\":11570:11606  confirmationsTemp[count] = owners[i] */\n              swap1\n              0xffffffffffffffffffffffffffffffffffffffff\n              and\n              swap1\n              dup2\n              0xffffffffffffffffffffffffffffffffffffffff\n              and\n              dup2\n              mstore\n              pop\n              pop\n                /* \"MultiSigWallet.sol\":11633:11634  1 */\n              0x1\n                /* \"MultiSigWallet.sol\":11624:11634  count += 1 */\n              dup3\n              add\n              swap2\n              pop\n                /* \"MultiSigWallet.sol\":11507:11649  if (confirmations[transactionId][owners[i]]) {... */\n            tag_195:\n                /* \"MultiSigWallet.sol\":11490:11493  i++ */\n              dup1\n              dup1\n              0x1\n              add\n              swap2\n              pop\n              pop\n                /* \"MultiSigWallet.sol\":11463:11649  for (i=0; i<owners.length; i++)... */\n              jump(tag_190)\n            tag_191:\n                /* \"MultiSigWallet.sol\":11689:11694  count */\n              dup2\n                /* \"MultiSigWallet.sol\":11675:11695  new address[](count) */\n              mload(0x40)\n              swap1\n              dup1\n              dup3\n              mstore\n              dup1\n              0x20\n              mul\n              0x20\n              add\n              dup3\n              add\n              0x40\n              mstore\n              dup1\n              iszero\n              tag_199\n              jumpi\n              dup2\n              0x20\n              add\n                /* \"--CODEGEN--\":29:31   */\n              0x20\n                /* \"--CODEGEN--\":21:27   */\n              dup3\n                /* \"--CODEGEN--\":17:32   */\n              mul\n                /* \"--CODEGEN--\":117:121   */\n              dup1\n                /* \"--CODEGEN--\":105:115   */\n              codesize\n                /* \"--CODEGEN--\":97:103   */\n              dup4\n                /* \"--CODEGEN--\":88:122   */\n              codecopy\n                /* \"--CODEGEN--\":148:152   */\n              dup1\n                /* \"--CODEGEN--\":140:146   */\n              dup3\n                /* \"--CODEGEN--\":136:153   */\n              add\n                /* \"--CODEGEN--\":126:153   */\n              swap2\n              pop\n                /* \"--CODEGEN--\":0:157   */\n              pop\n                /* \"MultiSigWallet.sol\":11675:11695  new address[](count) */\n              swap1\n              pop\n            tag_199:\n              pop\n                /* \"MultiSigWallet.sol\":11658:11695  _confirmations = new address[](count) */\n              swap4\n              pop\n                /* \"MultiSigWallet.sol\":11712:11713  0 */\n              0x0\n                /* \"MultiSigWallet.sol\":11710:11713  i=0 */\n              swap1\n              pop\n                /* \"MultiSigWallet.sol\":11705:11781  for (i=0; i<count; i++)... */\n            tag_200:\n                /* \"MultiSigWallet.sol\":11717:11722  count */\n              dup2\n                /* \"MultiSigWallet.sol\":11715:11716  i */\n              dup2\n                /* \"MultiSigWallet.sol\":11715:11722  i<count */\n              lt\n                /* \"MultiSigWallet.sol\":11705:11781  for (i=0; i<count; i++)... */\n              iszero\n              tag_201\n              jumpi\n                /* \"MultiSigWallet.sol\":11761:11778  confirmationsTemp */\n              dup3\n                /* \"MultiSigWallet.sol\":11779:11780  i */\n              dup2\n                /* \"MultiSigWallet.sol\":11761:11781  confirmationsTemp[i] */\n              dup2\n              mload\n              dup2\n              lt\n              iszero\n              iszero\n              tag_203\n              jumpi\n              invalid\n            tag_203:\n              swap1\n              0x20\n              add\n              swap1\n              0x20\n              mul\n              add\n              mload\n                /* \"MultiSigWallet.sol\":11741:11755  _confirmations */\n              dup5\n                /* \"MultiSigWallet.sol\":11756:11757  i */\n              dup3\n                /* \"MultiSigWallet.sol\":11741:11758  _confirmations[i] */\n              dup2\n              mload\n              dup2\n              lt\n              iszero\n              iszero\n              tag_204\n              jumpi\n              invalid\n            tag_204:\n              swap1\n              0x20\n              add\n              swap1\n              0x20\n              mul\n              add\n                /* \"MultiSigWallet.sol\":11741:11781  _confirmations[i] = confirmationsTemp[i] */\n              swap1\n              0xffffffffffffffffffffffffffffffffffffffff\n              and\n              swap1\n              dup2\n              0xffffffffffffffffffffffffffffffffffffffff\n              and\n              dup2\n              mstore\n              pop\n              pop\n                /* \"MultiSigWallet.sol\":11724:11727  i++ */\n              dup1\n              dup1\n              0x1\n              add\n              swap2\n              pop\n              pop\n                /* \"MultiSigWallet.sol\":11705:11781  for (i=0; i<count; i++)... */\n              jump(tag_200)\n            tag_201:\n                /* \"MultiSigWallet.sol\":11213:11788  function getConfirmations(uint transactionId)... */\n              pop\n              pop\n              pop\n              swap2\n              swap1\n              pop\n              jump\t// out\n                /* \"MultiSigWallet.sol\":1086:1114  uint public transactionCount */\n            tag_80:\n              sload(0x5)\n              dup2\n              jump\t// out\n                /* \"MultiSigWallet.sol\":4978:5185  function changeRequirement(uint _required)... */\n            tag_83:\n                /* \"MultiSigWallet.sol\":1340:1344  this */\n              address\n                /* \"MultiSigWallet.sol\":1318:1345  msg.sender == address(this) */\n              0xffffffffffffffffffffffffffffffffffffffff\n              and\n                /* \"MultiSigWallet.sol\":1318:1328  msg.sender */\n              caller\n                /* \"MultiSigWallet.sol\":1318:1345  msg.sender == address(this) */\n              0xffffffffffffffffffffffffffffffffffffffff\n              and\n              eq\n                /* \"MultiSigWallet.sol\":1310:1346  require(msg.sender == address(this)) */\n              iszero\n              iszero\n              tag_206\n              jumpi\n              0x0\n              dup1\n              revert\n            tag_206:\n                /* \"MultiSigWallet.sol\":5080:5086  owners */\n              0x3\n                /* \"MultiSigWallet.sol\":5080:5093  owners.length */\n              dup1\n              sload\n              swap1\n              pop\n                /* \"MultiSigWallet.sol\":5095:5104  _required */\n              dup2\n                /* \"MultiSigWallet.sol\":820:822  50 */\n              0x32\n                /* \"MultiSigWallet.sol\":2254:2264  ownerCount */\n              dup3\n                /* \"MultiSigWallet.sol\":2254:2283  ownerCount <= MAX_OWNER_COUNT */\n              gt\n              iszero\n                /* \"MultiSigWallet.sol\":2254:2322  ownerCount <= MAX_OWNER_COUNT... */\n              dup1\n              iszero\n              tag_208\n              jumpi\n              pop\n                /* \"MultiSigWallet.sol\":2312:2322  ownerCount */\n              dup2\n                /* \"MultiSigWallet.sol\":2299:2308  _required */\n              dup2\n                /* \"MultiSigWallet.sol\":2299:2322  _required <= ownerCount */\n              gt\n              iszero\n                /* \"MultiSigWallet.sol\":2254:2322  ownerCount <= MAX_OWNER_COUNT... */\n            tag_208:\n                /* \"MultiSigWallet.sol\":2254:2352  ownerCount <= MAX_OWNER_COUNT... */\n              dup1\n              iszero\n              tag_209\n              jumpi\n              pop\n                /* \"MultiSigWallet.sol\":2351:2352  0 */\n              0x0\n                /* \"MultiSigWallet.sol\":2338:2347  _required */\n              dup2\n                /* \"MultiSigWallet.sol\":2338:2352  _required != 0 */\n              eq\n              iszero\n                /* \"MultiSigWallet.sol\":2254:2352  ownerCount <= MAX_OWNER_COUNT... */\n            tag_209:\n                /* \"MultiSigWallet.sol\":2254:2383  ownerCount <= MAX_OWNER_COUNT... */\n              dup1\n              iszero\n              tag_210\n              jumpi\n              pop\n                /* \"MultiSigWallet.sol\":2382:2383  0 */\n              0x0\n                /* \"MultiSigWallet.sol\":2368:2378  ownerCount */\n              dup3\n                /* \"MultiSigWallet.sol\":2368:2383  ownerCount != 0 */\n              eq\n              iszero\n                /* \"MultiSigWallet.sol\":2254:2383  ownerCount <= MAX_OWNER_COUNT... */\n            tag_210:\n                /* \"MultiSigWallet.sol\":2246:2384  require(ownerCount <= MAX_OWNER_COUNT... */\n              iszero\n              iszero\n              tag_211\n              jumpi\n              0x0\n              dup1\n              revert\n            tag_211:\n                /* \"MultiSigWallet.sol\":5131:5140  _required */\n              dup3\n                /* \"MultiSigWallet.sol\":5120:5128  required */\n              0x4\n                /* \"MultiSigWallet.sol\":5120:5140  required = _required */\n              dup2\n              swap1\n              sstore\n              pop\n                /* \"MultiSigWallet.sol\":5150:5178  RequirementChange(_required) */\n              0xa3f1ee9126a074d9326c682f561767f710e927faa811f7a99829d49dc421797a\n                /* \"MultiSigWallet.sol\":5168:5177  _required */\n              dup4\n                /* \"MultiSigWallet.sol\":5150:5178  RequirementChange(_required) */\n              mload(0x40)\n              dup1\n              dup3\n              dup2\n              mstore\n              0x20\n              add\n              swap2\n              pop\n              pop\n              mload(0x40)\n              dup1\n              swap2\n              sub\n              swap1\n              log1\n                /* \"MultiSigWallet.sol\":1356:1357  _ */\n              pop\n              pop\n                /* \"MultiSigWallet.sol\":4978:5185  function changeRequirement(uint _required)... */\n              pop\n              jump\t// out\n                /* \"MultiSigWallet.sol\":5794:6138  function confirmTransaction(uint transactionId)... */\n            tag_86:\n                /* \"MultiSigWallet.sol\":5877:5887  msg.sender */\n              caller\n                /* \"MultiSigWallet.sol\":1524:1531  isOwner */\n              0x2\n                /* \"MultiSigWallet.sol\":1524:1538  isOwner[owner] */\n              0x0\n                /* \"MultiSigWallet.sol\":1532:1537  owner */\n              dup3\n                /* \"MultiSigWallet.sol\":1524:1538  isOwner[owner] */\n              0xffffffffffffffffffffffffffffffffffffffff\n              and\n              0xffffffffffffffffffffffffffffffffffffffff\n              and\n              dup2\n              mstore\n              0x20\n              add\n              swap1\n              dup2\n              mstore\n              0x20\n              add\n              0x0\n              keccak256\n              0x0\n              swap1\n              sload\n              swap1\n              0x100\n              exp\n              swap1\n              div\n              0xff\n              and\n                /* \"MultiSigWallet.sol\":1516:1539  require(isOwner[owner]) */\n              iszero\n              iszero\n              tag_214\n              jumpi\n              0x0\n              dup1\n              revert\n            tag_214:\n                /* \"MultiSigWallet.sol\":5915:5928  transactionId */\n              dup2\n                /* \"MultiSigWallet.sol\":1671:1672  0 */\n              0x0\n                /* \"MultiSigWallet.sol\":1628:1640  transactions */\n              dup1\n                /* \"MultiSigWallet.sol\":1628:1655  transactions[transactionId] */\n              0x0\n                /* \"MultiSigWallet.sol\":1641:1654  transactionId */\n              dup4\n                /* \"MultiSigWallet.sol\":1628:1655  transactions[transactionId] */\n              dup2\n              mstore\n              0x20\n              add\n              swap1\n              dup2\n              mstore\n              0x20\n              add\n              0x0\n              keccak256\n                /* \"MultiSigWallet.sol\":1628:1667  transactions[transactionId].destination */\n              0x0\n              add\n              0x0\n              swap1\n              sload\n              swap1\n              0x100\n              exp\n              swap1\n              div\n              0xffffffffffffffffffffffffffffffffffffffff\n              and\n                /* \"MultiSigWallet.sol\":1628:1672  transactions[transactionId].destination != 0 */\n              0xffffffffffffffffffffffffffffffffffffffff\n              and\n              eq\n              iszero\n                /* \"MultiSigWallet.sol\":1620:1673  require(transactions[transactionId].destination != 0) */\n              iszero\n              iszero\n              tag_216\n              jumpi\n              0x0\n              dup1\n              revert\n            tag_216:\n                /* \"MultiSigWallet.sol\":5951:5964  transactionId */\n              dup3\n                /* \"MultiSigWallet.sol\":5966:5976  msg.sender */\n              caller\n                /* \"MultiSigWallet.sol\":1905:1918  confirmations */\n              0x1\n                /* \"MultiSigWallet.sol\":1905:1933  confirmations[transactionId] */\n              0x0\n                /* \"MultiSigWallet.sol\":1919:1932  transactionId */\n              dup4\n                /* \"MultiSigWallet.sol\":1905:1933  confirmations[transactionId] */\n              dup2\n              mstore\n              0x20\n              add\n              swap1\n              dup2\n              mstore\n              0x20\n              add\n              0x0\n              keccak256\n                /* \"MultiSigWallet.sol\":1905:1940  confirmations[transactionId][owner] */\n              0x0\n                /* \"MultiSigWallet.sol\":1934:1939  owner */\n              dup3\n                /* \"MultiSigWallet.sol\":1905:1940  confirmations[transactionId][owner] */\n              0xffffffffffffffffffffffffffffffffffffffff\n              and\n              0xffffffffffffffffffffffffffffffffffffffff\n              and\n              dup2\n              mstore\n              0x20\n              add\n              swap1\n              dup2\n              mstore\n              0x20\n              add\n              0x0\n              keccak256\n              0x0\n              swap1\n              sload\n              swap1\n              0x100\n              exp\n              swap1\n              div\n              0xff\n              and\n                /* \"MultiSigWallet.sol\":1904:1940  !confirmations[transactionId][owner] */\n              iszero\n                /* \"MultiSigWallet.sol\":1896:1941  require(!confirmations[transactionId][owner]) */\n              iszero\n              iszero\n              tag_218\n              jumpi\n              0x0\n              dup1\n              revert\n            tag_218:\n                /* \"MultiSigWallet.sol\":6035:6039  true */\n              0x1\n                /* \"MultiSigWallet.sol\":5992:6005  confirmations */\n              dup1\n                /* \"MultiSigWallet.sol\":5992:6020  confirmations[transactionId] */\n              0x0\n                /* \"MultiSigWallet.sol\":6006:6019  transactionId */\n              dup8\n                /* \"MultiSigWallet.sol\":5992:6020  confirmations[transactionId] */\n              dup2\n              mstore\n              0x20\n              add\n              swap1\n              dup2\n              mstore\n              0x20\n              add\n              0x0\n              keccak256\n                /* \"MultiSigWallet.sol\":5992:6032  confirmations[transactionId][msg.sender] */\n              0x0\n                /* \"MultiSigWallet.sol\":6021:6031  msg.sender */\n              caller\n                /* \"MultiSigWallet.sol\":5992:6032  confirmations[transactionId][msg.sender] */\n              0xffffffffffffffffffffffffffffffffffffffff\n              and\n              0xffffffffffffffffffffffffffffffffffffffff\n              and\n              dup2\n              mstore\n              0x20\n              add\n              swap1\n              dup2\n              mstore\n              0x20\n              add\n              0x0\n              keccak256\n              0x0\n                /* \"MultiSigWallet.sol\":5992:6039  confirmations[transactionId][msg.sender] = true */\n              0x100\n              exp\n              dup2\n              sload\n              dup2\n              0xff\n              mul\n              not\n              and\n              swap1\n              dup4\n              iszero\n              iszero\n              mul\n              or\n              swap1\n              sstore\n              pop\n                /* \"MultiSigWallet.sol\":6074:6087  transactionId */\n              dup5\n                /* \"MultiSigWallet.sol\":6062:6072  msg.sender */\n              caller\n                /* \"MultiSigWallet.sol\":6049:6088  Confirmation(msg.sender, transactionId) */\n              0xffffffffffffffffffffffffffffffffffffffff\n              and\n              0x4a504a94899432a9846e1aa406dceb1bcfd538bb839071d49d1e5e23f5be30ef\n              mload(0x40)\n              mload(0x40)\n              dup1\n              swap2\n              sub\n              swap1\n              log3\n                /* \"MultiSigWallet.sol\":6098:6131  executeTransaction(transactionId) */\n              tag_220\n                /* \"MultiSigWallet.sol\":6117:6130  transactionId */\n              dup6\n                /* \"MultiSigWallet.sol\":6098:6116  executeTransaction */\n              tag_101\n                /* \"MultiSigWallet.sol\":6098:6131  executeTransaction(transactionId) */\n              jump\t// in\n            tag_220:\n                /* \"MultiSigWallet.sol\":1683:1684  _ */\n              pop\n              pop\n                /* \"MultiSigWallet.sol\":1549:1550  _ */\n              pop\n                /* \"MultiSigWallet.sol\":5794:6138  function confirmTransaction(uint transactionId)... */\n              pop\n              pop\n              jump\t// out\n                /* \"MultiSigWallet.sol\":5444:5688  function submitTransaction(address destination, uint value, bytes data)... */\n            tag_89:\n                /* \"MultiSigWallet.sol\":5548:5566  uint transactionId */\n              0x0\n                /* \"MultiSigWallet.sol\":5598:5638  addTransaction(destination, value, data) */\n              tag_222\n                /* \"MultiSigWallet.sol\":5613:5624  destination */\n              dup5\n                /* \"MultiSigWallet.sol\":5626:5631  value */\n              dup5\n                /* \"MultiSigWallet.sol\":5633:5637  data */\n              dup5\n                /* \"MultiSigWallet.sol\":5598:5612  addTransaction */\n              tag_223\n                /* \"MultiSigWallet.sol\":5598:5638  addTransaction(destination, value, data) */\n              jump\t// in\n            tag_222:\n                /* \"MultiSigWallet.sol\":5582:5638  transactionId = addTransaction(destination, value, data) */\n              swap1\n              pop\n                /* \"MultiSigWallet.sol\":5648:5681  confirmTransaction(transactionId) */\n              tag_224\n                /* \"MultiSigWallet.sol\":5667:5680  transactionId */\n              dup2\n                /* \"MultiSigWallet.sol\":5648:5666  confirmTransaction */\n              tag_86\n                /* \"MultiSigWallet.sol\":5648:5681  confirmTransaction(transactionId) */\n              jump\t// in\n            tag_224:\n                /* \"MultiSigWallet.sol\":5444:5688  function submitTransaction(address destination, uint value, bytes data)... */\n              swap4\n              swap3\n              pop\n              pop\n              pop\n              jump\t// out\n                /* \"MultiSigWallet.sol\":781:822  uint constant public MAX_OWNER_COUNT = 50 */\n            tag_92:\n                /* \"MultiSigWallet.sol\":820:822  50 */\n              0x32\n                /* \"MultiSigWallet.sol\":781:822  uint constant public MAX_OWNER_COUNT = 50 */\n              dup2\n              jump\t// out\n                /* \"MultiSigWallet.sol\":1060:1080  uint public required */\n            tag_95:\n              sload(0x4)\n              dup2\n              jump\t// out\n                /* \"MultiSigWallet.sol\":4358:4807  function replaceOwner(address owner, address newOwner)... */\n            tag_98:\n                /* \"MultiSigWallet.sol\":4529:4535  uint i */\n              0x0\n                /* \"MultiSigWallet.sol\":1340:1344  this */\n              address\n                /* \"MultiSigWallet.sol\":1318:1345  msg.sender == address(this) */\n              0xffffffffffffffffffffffffffffffffffffffff\n              and\n                /* \"MultiSigWallet.sol\":1318:1328  msg.sender */\n              caller\n                /* \"MultiSigWallet.sol\":1318:1345  msg.sender == address(this) */\n              0xffffffffffffffffffffffffffffffffffffffff\n              and\n              eq\n                /* \"MultiSigWallet.sol\":1310:1346  require(msg.sender == address(this)) */\n              iszero\n              iszero\n              tag_226\n              jumpi\n              0x0\n              dup1\n              revert\n            tag_226:\n                /* \"MultiSigWallet.sol\":4467:4472  owner */\n              dup3\n                /* \"MultiSigWallet.sol\":1524:1531  isOwner */\n              0x2\n                /* \"MultiSigWallet.sol\":1524:1538  isOwner[owner] */\n              0x0\n                /* \"MultiSigWallet.sol\":1532:1537  owner */\n              dup3\n                /* \"MultiSigWallet.sol\":1524:1538  isOwner[owner] */\n              0xffffffffffffffffffffffffffffffffffffffff\n              and\n              0xffffffffffffffffffffffffffffffffffffffff\n              and\n              dup2\n              mstore\n              0x20\n              add\n              swap1\n              dup2\n              mstore\n              0x20\n              add\n              0x0\n              keccak256\n              0x0\n              swap1\n              sload\n              swap1\n              0x100\n              exp\n              swap1\n              div\n              0xff\n              and\n                /* \"MultiSigWallet.sol\":1516:1539  require(isOwner[owner]) */\n              iszero\n              iszero\n              tag_228\n              jumpi\n              0x0\n              dup1\n              revert\n            tag_228:\n                /* \"MultiSigWallet.sol\":4500:4508  newOwner */\n              dup3\n                /* \"MultiSigWallet.sol\":1431:1438  isOwner */\n              0x2\n                /* \"MultiSigWallet.sol\":1431:1445  isOwner[owner] */\n              0x0\n                /* \"MultiSigWallet.sol\":1439:1444  owner */\n              dup3\n                /* \"MultiSigWallet.sol\":1431:1445  isOwner[owner] */\n              0xffffffffffffffffffffffffffffffffffffffff\n              and\n              0xffffffffffffffffffffffffffffffffffffffff\n              and\n              dup2\n              mstore\n              0x20\n              add\n              swap1\n              dup2\n              mstore\n              0x20\n              add\n              0x0\n              keccak256\n              0x0\n              swap1\n              sload\n              swap1\n              0x100\n              exp\n              swap1\n              div\n              0xff\n              and\n                /* \"MultiSigWallet.sol\":1430:1445  !isOwner[owner] */\n              iszero\n                /* \"MultiSigWallet.sol\":1422:1446  require(!isOwner[owner]) */\n              iszero\n              iszero\n              tag_230\n              jumpi\n              0x0\n              dup1\n              revert\n            tag_230:\n                /* \"MultiSigWallet.sol\":4536:4537  0 */\n              0x0\n                /* \"MultiSigWallet.sol\":4529:4537  uint i=0 */\n              swap3\n              pop\n                /* \"MultiSigWallet.sol\":4524:4673  for (uint i=0; i<owners.length; i++)... */\n            tag_232:\n                /* \"MultiSigWallet.sol\":4541:4547  owners */\n              0x3\n                /* \"MultiSigWallet.sol\":4541:4554  owners.length */\n              dup1\n              sload\n              swap1\n              pop\n                /* \"MultiSigWallet.sol\":4539:4540  i */\n              dup4\n                /* \"MultiSigWallet.sol\":4539:4554  i<owners.length */\n              lt\n                /* \"MultiSigWallet.sol\":4524:4673  for (uint i=0; i<owners.length; i++)... */\n              iszero\n              tag_233\n              jumpi\n                /* \"MultiSigWallet.sol\":4590:4595  owner */\n              dup5\n                /* \"MultiSigWallet.sol\":4577:4595  owners[i] == owner */\n              0xffffffffffffffffffffffffffffffffffffffff\n              and\n                /* \"MultiSigWallet.sol\":4577:4583  owners */\n              0x3\n                /* \"MultiSigWallet.sol\":4584:4585  i */\n              dup5\n                /* \"MultiSigWallet.sol\":4577:4586  owners[i] */\n              dup2\n              sload\n              dup2\n              lt\n              iszero\n              iszero\n              tag_235\n              jumpi\n              invalid\n            tag_235:\n              swap1\n              0x0\n              mstore\n              keccak256(0x0, 0x20)\n              add\n              0x0\n              swap1\n              sload\n              swap1\n              0x100\n              exp\n              swap1\n              div\n              0xffffffffffffffffffffffffffffffffffffffff\n              and\n                /* \"MultiSigWallet.sol\":4577:4595  owners[i] == owner */\n              0xffffffffffffffffffffffffffffffffffffffff\n              and\n              eq\n                /* \"MultiSigWallet.sol\":4573:4673  if (owners[i] == owner) {... */\n              iszero\n              tag_237\n              jumpi\n                /* \"MultiSigWallet.sol\":4627:4635  newOwner */\n              dup4\n                /* \"MultiSigWallet.sol\":4615:4621  owners */\n              0x3\n                /* \"MultiSigWallet.sol\":4622:4623  i */\n              dup5\n                /* \"MultiSigWallet.sol\":4615:4624  owners[i] */\n              dup2\n              sload\n              dup2\n              lt\n              iszero\n              iszero\n              tag_238\n              jumpi\n              invalid\n            tag_238:\n              swap1\n              0x0\n              mstore\n              keccak256(0x0, 0x20)\n              add\n              0x0\n                /* \"MultiSigWallet.sol\":4615:4635  owners[i] = newOwner */\n              0x100\n              exp\n              dup2\n              sload\n              dup2\n              0xffffffffffffffffffffffffffffffffffffffff\n              mul\n              not\n              and\n              swap1\n              dup4\n              0xffffffffffffffffffffffffffffffffffffffff\n              and\n              mul\n              or\n              swap1\n              sstore\n              pop\n                /* \"MultiSigWallet.sol\":4653:4658  break */\n              jump(tag_233)\n                /* \"MultiSigWallet.sol\":4573:4673  if (owners[i] == owner) {... */\n            tag_237:\n                /* \"MultiSigWallet.sol\":4556:4559  i++ */\n              dup3\n              dup1\n              0x1\n              add\n              swap4\n              pop\n              pop\n                /* \"MultiSigWallet.sol\":4524:4673  for (uint i=0; i<owners.length; i++)... */\n              jump(tag_232)\n            tag_233:\n                /* \"MultiSigWallet.sol\":4699:4704  false */\n              0x0\n                /* \"MultiSigWallet.sol\":4682:4689  isOwner */\n              0x2\n                /* \"MultiSigWallet.sol\":4682:4696  isOwner[owner] */\n              0x0\n                /* \"MultiSigWallet.sol\":4690:4695  owner */\n              dup8\n                /* \"MultiSigWallet.sol\":4682:4696  isOwner[owner] */\n              0xffffffffffffffffffffffffffffffffffffffff\n              and\n              0xffffffffffffffffffffffffffffffffffffffff\n              and\n              dup2\n              mstore\n              0x20\n              add\n              swap1\n              dup2\n              mstore\n              0x20\n              add\n              0x0\n              keccak256\n              0x0\n                /* \"MultiSigWallet.sol\":4682:4704  isOwner[owner] = false */\n              0x100\n              exp\n              dup2\n              sload\n              dup2\n              0xff\n              mul\n              not\n              and\n              swap1\n              dup4\n              iszero\n              iszero\n              mul\n              or\n              swap1\n              sstore\n              pop\n                /* \"MultiSigWallet.sol\":4734:4738  true */\n              0x1\n                /* \"MultiSigWallet.sol\":4714:4721  isOwner */\n              0x2\n                /* \"MultiSigWallet.sol\":4714:4731  isOwner[newOwner] */\n              0x0\n                /* \"MultiSigWallet.sol\":4722:4730  newOwner */\n              dup7\n                /* \"MultiSigWallet.sol\":4714:4731  isOwner[newOwner] */\n              0xffffffffffffffffffffffffffffffffffffffff\n              and\n              0xffffffffffffffffffffffffffffffffffffffff\n              and\n              dup2\n              mstore\n              0x20\n              add\n              swap1\n              dup2\n              mstore\n              0x20\n              add\n              0x0\n              keccak256\n              0x0\n                /* \"MultiSigWallet.sol\":4714:4738  isOwner[newOwner] = true */\n              0x100\n              exp\n              dup2\n              sload\n              dup2\n              0xff\n              mul\n              not\n              and\n              swap1\n              dup4\n              iszero\n              iszero\n              mul\n              or\n              swap1\n              sstore\n              pop\n                /* \"MultiSigWallet.sol\":4761:4766  owner */\n              dup5\n                /* \"MultiSigWallet.sol\":4748:4767  OwnerRemoval(owner) */\n              0xffffffffffffffffffffffffffffffffffffffff\n              and\n              0x8001553a916ef2f495d26a907cc54d96ed840d7bda71e73194bf5a9df7a76b90\n              mload(0x40)\n              mload(0x40)\n              dup1\n              swap2\n              sub\n              swap1\n              log2\n                /* \"MultiSigWallet.sol\":4791:4799  newOwner */\n              dup4\n                /* \"MultiSigWallet.sol\":4777:4800  OwnerAddition(newOwner) */\n              0xffffffffffffffffffffffffffffffffffffffff\n              and\n              0xf39e6e1eb0edcf53c221607b54b00cd28f3196fed0a24994dc308b8f611b682d\n              mload(0x40)\n              mload(0x40)\n              dup1\n              swap2\n              sub\n              swap1\n              log2\n                /* \"MultiSigWallet.sol\":1549:1550  _ */\n              pop\n                /* \"MultiSigWallet.sol\":1356:1357  _ */\n              pop\n                /* \"MultiSigWallet.sol\":4358:4807  function replaceOwner(address owner, address newOwner)... */\n              pop\n              pop\n              pop\n              jump\t// out\n                /* \"MultiSigWallet.sol\":6667:7253  function executeTransaction(uint transactionId)... */\n            tag_101:\n                /* \"MultiSigWallet.sol\":6902:6925  Transaction storage txn */\n              0x0\n                /* \"MultiSigWallet.sol\":6750:6760  msg.sender */\n              caller\n                /* \"MultiSigWallet.sol\":1524:1531  isOwner */\n              0x2\n                /* \"MultiSigWallet.sol\":1524:1538  isOwner[owner] */\n              0x0\n                /* \"MultiSigWallet.sol\":1532:1537  owner */\n              dup3\n                /* \"MultiSigWallet.sol\":1524:1538  isOwner[owner] */\n              0xffffffffffffffffffffffffffffffffffffffff\n              and\n              0xffffffffffffffffffffffffffffffffffffffff\n              and\n              dup2\n              mstore\n              0x20\n              add\n              swap1\n              dup2\n              mstore\n              0x20\n              add\n              0x0\n              keccak256\n              0x0\n              swap1\n              sload\n              swap1\n              0x100\n              exp\n              swap1\n              div\n              0xff\n              and\n                /* \"MultiSigWallet.sol\":1516:1539  require(isOwner[owner]) */\n              iszero\n              iszero\n              tag_241\n              jumpi\n              0x0\n              dup1\n              revert\n            tag_241:\n                /* \"MultiSigWallet.sol\":6780:6793  transactionId */\n              dup3\n                /* \"MultiSigWallet.sol\":6795:6805  msg.sender */\n              caller\n                /* \"MultiSigWallet.sol\":1769:1782  confirmations */\n              0x1\n                /* \"MultiSigWallet.sol\":1769:1797  confirmations[transactionId] */\n              0x0\n                /* \"MultiSigWallet.sol\":1783:1796  transactionId */\n              dup4\n                /* \"MultiSigWallet.sol\":1769:1797  confirmations[transactionId] */\n              dup2\n              mstore\n              0x20\n              add\n              swap1\n              dup2\n              mstore\n              0x20\n              add\n              0x0\n              keccak256\n                /* \"MultiSigWallet.sol\":1769:1804  confirmations[transactionId][owner] */\n              0x0\n                /* \"MultiSigWallet.sol\":1798:1803  owner */\n              dup3\n                /* \"MultiSigWallet.sol\":1769:1804  confirmations[transactionId][owner] */\n              0xffffffffffffffffffffffffffffffffffffffff\n              and\n              0xffffffffffffffffffffffffffffffffffffffff\n              and\n              dup2\n              mstore\n              0x20\n              add\n              swap1\n              dup2\n              mstore\n              0x20\n              add\n              0x0\n              keccak256\n              0x0\n              swap1\n              sload\n              swap1\n              0x100\n              exp\n              swap1\n              div\n              0xff\n              and\n                /* \"MultiSigWallet.sol\":1761:1805  require(confirmations[transactionId][owner]) */\n              iszero\n              iszero\n              tag_243\n              jumpi\n              0x0\n              dup1\n              revert\n            tag_243:\n                /* \"MultiSigWallet.sol\":6827:6840  transactionId */\n              dup5\n                /* \"MultiSigWallet.sol\":2025:2037  transactions */\n              0x0\n                /* \"MultiSigWallet.sol\":2025:2052  transactions[transactionId] */\n              dup1\n                /* \"MultiSigWallet.sol\":2038:2051  transactionId */\n              dup3\n                /* \"MultiSigWallet.sol\":2025:2052  transactions[transactionId] */\n              dup2\n              mstore\n              0x20\n              add\n              swap1\n              dup2\n              mstore\n              0x20\n              add\n              0x0\n              keccak256\n                /* \"MultiSigWallet.sol\":2025:2061  transactions[transactionId].executed */\n              0x3\n              add\n              0x0\n              swap1\n              sload\n              swap1\n              0x100\n              exp\n              swap1\n              div\n              0xff\n              and\n                /* \"MultiSigWallet.sol\":2024:2061  !transactions[transactionId].executed */\n              iszero\n                /* \"MultiSigWallet.sol\":2016:2062  require(!transactions[transactionId].executed) */\n              iszero\n              iszero\n              tag_245\n              jumpi\n              0x0\n              dup1\n              revert\n            tag_245:\n                /* \"MultiSigWallet.sol\":6860:6886  isConfirmed(transactionId) */\n              tag_247\n                /* \"MultiSigWallet.sol\":6872:6885  transactionId */\n              dup7\n                /* \"MultiSigWallet.sol\":6860:6871  isConfirmed */\n              tag_49\n                /* \"MultiSigWallet.sol\":6860:6886  isConfirmed(transactionId) */\n              jump\t// in\n            tag_247:\n                /* \"MultiSigWallet.sol\":6856:7247  if (isConfirmed(transactionId)) {... */\n              iszero\n              tag_248\n              jumpi\n                /* \"MultiSigWallet.sol\":6928:6940  transactions */\n              0x0\n                /* \"MultiSigWallet.sol\":6928:6955  transactions[transactionId] */\n              dup1\n                /* \"MultiSigWallet.sol\":6941:6954  transactionId */\n              dup8\n                /* \"MultiSigWallet.sol\":6928:6955  transactions[transactionId] */\n              dup2\n              mstore\n              0x20\n              add\n              swap1\n              dup2\n              mstore\n              0x20\n              add\n              0x0\n              keccak256\n                /* \"MultiSigWallet.sol\":6902:6955  Transaction storage txn = transactions[transactionId] */\n              swap5\n              pop\n                /* \"MultiSigWallet.sol\":6984:6988  true */\n              0x1\n                /* \"MultiSigWallet.sol\":6969:6972  txn */\n              dup6\n                /* \"MultiSigWallet.sol\":6969:6981  txn.executed */\n              0x3\n              add\n              0x0\n                /* \"MultiSigWallet.sol\":6969:6988  txn.executed = true */\n              0x100\n              exp\n              dup2\n              sload\n              dup2\n              0xff\n              mul\n              not\n              and\n              swap1\n              dup4\n              iszero\n              iszero\n              mul\n              or\n              swap1\n              sstore\n              pop\n                /* \"MultiSigWallet.sol\":7006:7074  external_call(txn.destination, txn.value, txn.data.length, txn.data) */\n              tag_249\n                /* \"MultiSigWallet.sol\":7020:7023  txn */\n              dup6\n                /* \"MultiSigWallet.sol\":7020:7035  txn.destination */\n              0x0\n              add\n              0x0\n              swap1\n              sload\n              swap1\n              0x100\n              exp\n              swap1\n              div\n              0xffffffffffffffffffffffffffffffffffffffff\n              and\n                /* \"MultiSigWallet.sol\":7037:7040  txn */\n              dup7\n                /* \"MultiSigWallet.sol\":7037:7046  txn.value */\n              0x1\n              add\n              sload\n                /* \"MultiSigWallet.sol\":7048:7051  txn */\n              dup8\n                /* \"MultiSigWallet.sol\":7048:7056  txn.data */\n              0x2\n              add\n                /* \"MultiSigWallet.sol\":7048:7063  txn.data.length */\n              dup1\n              sload\n              0x1\n              dup2\n              0x1\n              and\n              iszero\n              0x100\n              mul\n              sub\n              and\n              0x2\n              swap1\n              div\n              swap1\n              pop\n                /* \"MultiSigWallet.sol\":7065:7068  txn */\n              dup9\n                /* \"MultiSigWallet.sol\":7065:7073  txn.data */\n              0x2\n              add\n                /* \"MultiSigWallet.sol\":7006:7074  external_call(txn.destination, txn.value, txn.data.length, txn.data) */\n              dup1\n              sload\n              0x1\n              dup2\n              0x1\n              and\n              iszero\n              0x100\n              mul\n              sub\n              and\n              0x2\n              swap1\n              div\n              dup1\n              0x1f\n              add\n              0x20\n              dup1\n              swap2\n              div\n              mul\n              0x20\n              add\n              mload(0x40)\n              swap1\n              dup2\n              add\n              0x40\n              mstore\n              dup1\n              swap3\n              swap2\n              swap1\n              dup2\n              dup2\n              mstore\n              0x20\n              add\n              dup3\n              dup1\n              sload\n              0x1\n              dup2\n              0x1\n              and\n              iszero\n              0x100\n              mul\n              sub\n              and\n              0x2\n              swap1\n              div\n              dup1\n              iszero\n              tag_250\n              jumpi\n              dup1\n              0x1f\n              lt\n              tag_251\n              jumpi\n              0x100\n              dup1\n              dup4\n              sload\n              div\n              mul\n              dup4\n              mstore\n              swap2\n              0x20\n              add\n              swap2\n              jump(tag_250)\n            tag_251:\n              dup3\n              add\n              swap2\n              swap1\n              0x0\n              mstore\n              keccak256(0x0, 0x20)\n              swap1\n            tag_252:\n              dup2\n              sload\n              dup2\n              mstore\n              swap1\n              0x1\n              add\n              swap1\n              0x20\n              add\n              dup1\n              dup4\n              gt\n              tag_252\n              jumpi\n              dup3\n              swap1\n              sub\n              0x1f\n              and\n              dup3\n              add\n              swap2\n            tag_250:\n              pop\n              pop\n              pop\n              pop\n              pop\n                /* \"MultiSigWallet.sol\":7006:7019  external_call */\n              tag_253\n                /* \"MultiSigWallet.sol\":7006:7074  external_call(txn.destination, txn.value, txn.data.length, txn.data) */\n              jump\t// in\n            tag_249:\n                /* \"MultiSigWallet.sol\":7002:7237  if (external_call(txn.destination, txn.value, txn.data.length, txn.data))... */\n              iszero\n              tag_254\n              jumpi\n                /* \"MultiSigWallet.sol\":7102:7115  transactionId */\n              dup6\n                /* \"MultiSigWallet.sol\":7092:7116  Execution(transactionId) */\n              0x33e13ecb54c3076d8e8bb8c2881800a4d972b792045ffae98fdf46df365fed75\n              mload(0x40)\n              mload(0x40)\n              dup1\n              swap2\n              sub\n              swap1\n              log2\n                /* \"MultiSigWallet.sol\":7002:7237  if (external_call(txn.destination, txn.value, txn.data.length, txn.data))... */\n              jump(tag_255)\n            tag_254:\n                /* \"MultiSigWallet.sol\":7170:7183  transactionId */\n              dup6\n                /* \"MultiSigWallet.sol\":7153:7184  ExecutionFailure(transactionId) */\n              0x526441bb6c1aba3c9a4a6ca1d6545da9c2333c8c48343ef398eb858d72b79236\n              mload(0x40)\n              mload(0x40)\n              dup1\n              swap2\n              sub\n              swap1\n              log2\n                /* \"MultiSigWallet.sol\":7217:7222  false */\n              0x0\n                /* \"MultiSigWallet.sol\":7202:7205  txn */\n              dup6\n                /* \"MultiSigWallet.sol\":7202:7214  txn.executed */\n              0x3\n              add\n              0x0\n                /* \"MultiSigWallet.sol\":7202:7222  txn.executed = false */\n              0x100\n              exp\n              dup2\n              sload\n              dup2\n              0xff\n              mul\n              not\n              and\n              swap1\n              dup4\n              iszero\n              iszero\n              mul\n              or\n              swap1\n              sstore\n              pop\n                /* \"MultiSigWallet.sol\":7002:7237  if (external_call(txn.destination, txn.value, txn.data.length, txn.data))... */\n            tag_255:\n                /* \"MultiSigWallet.sol\":6856:7247  if (isConfirmed(transactionId)) {... */\n            tag_248:\n                /* \"MultiSigWallet.sol\":1815:1816  _ */\n              pop\n                /* \"MultiSigWallet.sol\":1549:1550  _ */\n              pop\n              pop\n                /* \"MultiSigWallet.sol\":6667:7253  function executeTransaction(uint transactionId)... */\n              pop\n              pop\n              pop\n              jump\t// out\n                /* \"MultiSigWallet.sol\":9354:9805  function addTransaction(address destination, uint value, bytes data)... */\n            tag_223:\n                /* \"MultiSigWallet.sol\":9486:9504  uint transactionId */\n              0x0\n                /* \"MultiSigWallet.sol\":9456:9467  destination */\n              dup4\n                /* \"MultiSigWallet.sol\":2151:2152  0 */\n              0x0\n                /* \"MultiSigWallet.sol\":2139:2147  _address */\n              dup2\n                /* \"MultiSigWallet.sol\":2139:2152  _address != 0 */\n              0xffffffffffffffffffffffffffffffffffffffff\n              and\n              eq\n              iszero\n                /* \"MultiSigWallet.sol\":2131:2153  require(_address != 0) */\n              iszero\n              iszero\n              tag_257\n              jumpi\n              0x0\n              dup1\n              revert\n            tag_257:\n                /* \"MultiSigWallet.sol\":9536:9552  transactionCount */\n              sload(0x5)\n                /* \"MultiSigWallet.sol\":9520:9552  transactionId = transactionCount */\n              swap2\n              pop\n                /* \"MultiSigWallet.sol\":9592:9732  Transaction({... */\n              0x80\n              mload(0x40)\n              swap1\n              dup2\n              add\n              0x40\n              mstore\n              dup1\n                /* \"MultiSigWallet.sol\":9631:9642  destination */\n              dup7\n                /* \"MultiSigWallet.sol\":9592:9732  Transaction({... */\n              0xffffffffffffffffffffffffffffffffffffffff\n              and\n              dup2\n              mstore\n              0x20\n              add\n                /* \"MultiSigWallet.sol\":9663:9668  value */\n              dup6\n                /* \"MultiSigWallet.sol\":9592:9732  Transaction({... */\n              dup2\n              mstore\n              0x20\n              add\n                /* \"MultiSigWallet.sol\":9688:9692  data */\n              dup5\n                /* \"MultiSigWallet.sol\":9592:9732  Transaction({... */\n              dup2\n              mstore\n              0x20\n              add\n                /* \"MultiSigWallet.sol\":9716:9721  false */\n              0x0\n                /* \"MultiSigWallet.sol\":9592:9732  Transaction({... */\n              iszero\n              iszero\n              dup2\n              mstore\n              pop\n                /* \"MultiSigWallet.sol\":9562:9574  transactions */\n              0x0\n                /* \"MultiSigWallet.sol\":9562:9589  transactions[transactionId] */\n              dup1\n                /* \"MultiSigWallet.sol\":9575:9588  transactionId */\n              dup5\n                /* \"MultiSigWallet.sol\":9562:9589  transactions[transactionId] */\n              dup2\n              mstore\n              0x20\n              add\n              swap1\n              dup2\n              mstore\n              0x20\n              add\n              0x0\n              keccak256\n                /* \"MultiSigWallet.sol\":9562:9732  transactions[transactionId] = Transaction({... */\n              0x0\n              dup3\n              add\n              mload\n              dup2\n              0x0\n              add\n              exp(0x100, 0x0)\n              dup2\n              sload\n              dup2\n              0xffffffffffffffffffffffffffffffffffffffff\n              mul\n              not\n              and\n              swap1\n              dup4\n              0xffffffffffffffffffffffffffffffffffffffff\n              and\n              mul\n              or\n              swap1\n              sstore\n              pop\n              0x20\n              dup3\n              add\n              mload\n              dup2\n              0x1\n              add\n              sstore\n              0x40\n              dup3\n              add\n              mload\n              dup2\n              0x2\n              add\n              swap1\n              dup1\n              mload\n              swap1\n              0x20\n              add\n              swap1\n              tag_259\n              swap3\n              swap2\n              swap1\n              jump\t// in(tag_260)\n            tag_259:\n              pop\n              0x60\n              dup3\n              add\n              mload\n              dup2\n              0x3\n              add\n              exp(0x100, 0x0)\n              dup2\n              sload\n              dup2\n              0xff\n              mul\n              not\n              and\n              swap1\n              dup4\n              iszero\n              iszero\n              mul\n              or\n              swap1\n              sstore\n              pop\n              swap1\n              pop\n              pop\n                /* \"MultiSigWallet.sol\":9762:9763  1 */\n              0x1\n                /* \"MultiSigWallet.sol\":9742:9758  transactionCount */\n              0x5\n              0x0\n                /* \"MultiSigWallet.sol\":9742:9763  transactionCount += 1 */\n              dup3\n              dup3\n              sload\n              add\n              swap3\n              pop\n              pop\n              dup2\n              swap1\n              sstore\n              pop\n                /* \"MultiSigWallet.sol\":9784:9797  transactionId */\n              dup2\n                /* \"MultiSigWallet.sol\":9773:9798  Submission(transactionId) */\n              0xc0ba8fe4b176c1714197d43b9cc6bcf797a4a7461c5fe8d0ef6e184ae7601e51\n              mload(0x40)\n              mload(0x40)\n              dup1\n              swap2\n              sub\n              swap1\n              log2\n                /* \"MultiSigWallet.sol\":9354:9805  function addTransaction(address destination, uint value, bytes data)... */\n              pop\n              swap4\n              swap3\n              pop\n              pop\n              pop\n              jump\t// out\n                /* \"MultiSigWallet.sol\":7430:8533  function external_call(address destination, uint value, uint dataLength, bytes data) internal returns (bool) {... */\n            tag_253:\n                /* \"MultiSigWallet.sol\":7533:7537  bool */\n              0x0\n                /* \"MultiSigWallet.sol\":7549:7560  bool result */\n              dup1\n                /* \"MultiSigWallet.sol\":7608:7612  0x40 */\n              0x40\n                /* \"MultiSigWallet.sol\":7602:7613  mload(0x40) */\n              mload\n                /* \"MultiSigWallet.sol\":7741:7743  32 */\n              0x20\n                /* \"MultiSigWallet.sol\":7735:7739  data */\n              dup5\n                /* \"MultiSigWallet.sol\":7731:7744  add(data, 32) */\n              add\n                /* \"MultiSigWallet.sol\":8406:8407  0 */\n              0x0\n                /* \"MultiSigWallet.sol\":8387:8388  x */\n              dup3\n                /* \"MultiSigWallet.sol\":8279:8289  dataLength */\n              dup8\n                /* \"MultiSigWallet.sol\":8260:8261  d */\n              dup4\n                /* \"MultiSigWallet.sol\":8237:8242  value */\n              dup11\n                /* \"MultiSigWallet.sol\":8208:8219  destination */\n              dup13\n                /* \"MultiSigWallet.sol\":7863:7868  34710 */\n              0x8796\n                /* \"MultiSigWallet.sol\":7858:7861  gas */\n              gas\n                /* \"MultiSigWallet.sol\":7854:7869  sub(gas, 34710) */\n              sub\n                /* \"MultiSigWallet.sol\":7832:8494  call(... */\n              call\n                /* \"MultiSigWallet.sol\":7822:8494  result := call(... */\n              swap3\n              pop\n                /* \"MultiSigWallet.sol\":7579:8504  {... */\n              pop\n              pop\n                /* \"MultiSigWallet.sol\":8520:8526  result */\n              dup1\n                /* \"MultiSigWallet.sol\":8513:8526  return result */\n              swap2\n              pop\n                /* \"MultiSigWallet.sol\":7430:8533  function external_call(address destination, uint value, uint dataLength, bytes data) internal returns (bool) {... */\n              pop\n              swap5\n              swap4\n              pop\n              pop\n              pop\n              pop\n              jump\t// out\n                /* \"MultiSigWallet.sol\":187:12815  contract MultiSigWallet {... */\n            tag_120:\n              dup2\n              sload\n              dup2\n              dup4\n              sstore\n              dup2\n              dup2\n              gt\n              iszero\n              tag_262\n              jumpi\n              dup2\n              dup4\n              0x0\n              mstore\n              keccak256(0x0, 0x20)\n              swap2\n              dup3\n              add\n              swap2\n              add\n              tag_263\n              swap2\n              swap1\n              jump\t// in(tag_264)\n            tag_263:\n            tag_262:\n              pop\n              pop\n              pop\n              jump\t// out\n            tag_260:\n              dup3\n              dup1\n              sload\n              0x1\n              dup2\n              0x1\n              and\n              iszero\n              0x100\n              mul\n              sub\n              and\n              0x2\n              swap1\n              div\n              swap1\n              0x0\n              mstore\n              keccak256(0x0, 0x20)\n              swap1\n              0x1f\n              add\n              0x20\n              swap1\n              div\n              dup2\n              add\n              swap3\n              dup3\n              0x1f\n              lt\n              tag_266\n              jumpi\n              dup1\n              mload\n              not(0xff)\n              and\n              dup4\n              dup1\n              add\n              or\n              dup6\n              sstore\n              jump(tag_265)\n            tag_266:\n              dup3\n              dup1\n              add\n              0x1\n              add\n              dup6\n              sstore\n              dup3\n              iszero\n              tag_265\n              jumpi\n              swap2\n              dup3\n              add\n            tag_267:\n              dup3\n              dup2\n              gt\n              iszero\n              tag_268\n              jumpi\n              dup3\n              mload\n              dup3\n              sstore\n              swap2\n              0x20\n              add\n              swap2\n              swap1\n              0x1\n              add\n              swap1\n              jump(tag_267)\n            tag_268:\n            tag_265:\n              pop\n              swap1\n              pop\n              tag_269\n              swap2\n              swap1\n              jump\t// in(tag_264)\n            tag_269:\n              pop\n              swap1\n              jump\t// out\n            tag_264:\n              tag_270\n              swap2\n              swap1\n            tag_271:\n              dup1\n              dup3\n              gt\n              iszero\n              tag_272\n              jumpi\n              0x0\n              dup2\n              0x0\n              swap1\n              sstore\n              pop\n              0x1\n              add\n              jump(tag_271)\n            tag_272:\n              pop\n              swap1\n              jump\n            tag_270:\n              swap1\n              jump\t// out\n\n            auxdata: 0xa165627a7a723058207f70106af20cb1fcc7808bf43524bb09136e653b8166044090f7660d20e444cb0029\n        }\n    }\n\n    auxdata: 0xa165627a7a723058204c74bd11a698d490aec665ee46c473c03fab61e69a9af96491c26afc4e36a9f20029\n}\n",
				"bytecode": {
					"linkReferences": {},
					"object": "608060405234801561001057600080fd5b50612a33806100206000396000f300608060405260043610610062576000357c0100000000000000000000000000000000000000000000000000000000900463ffffffff1680632f4f33161461006757806357183c82146100c25780638f8384781461014f578063f8f73808146101a6575b600080fd5b34801561007357600080fd5b506100a8600480360381019080803573ffffffffffffffffffffffffffffffffffffffff169060200190929190505050610256565b604051808215151515815260200191505060405180910390f35b3480156100ce57600080fd5b5061010d600480360381019080803573ffffffffffffffffffffffffffffffffffffffff16906020019092919080359060200190929190505050610276565b604051808273ffffffffffffffffffffffffffffffffffffffff1673ffffffffffffffffffffffffffffffffffffffff16815260200191505060405180910390f35b34801561015b57600080fd5b50610190600480360381019080803573ffffffffffffffffffffffffffffffffffffffff1690602001909291905050506102c3565b6040518082815260200191505060405180910390f35b3480156101b257600080fd5b50610214600480360381019080803590602001908201803590602001908080602002602001604051908101604052809392919081815260200183836020028082843782019150505050505091929192908035906020019092919050505061030f565b604051808273ffffffffffffffffffffffffffffffffffffffff1673ffffffffffffffffffffffffffffffffffffffff16815260200191505060405180910390f35b60006020528060005260406000206000915054906101000a900460ff1681565b60016020528160005260406000208181548110151561029157fe5b906000526020600020016000915091509054906101000a900473ffffffffffffffffffffffffffffffffffffffff1681565b6000600160008373ffffffffffffffffffffffffffffffffffffffff1673ffffffffffffffffffffffffffffffffffffffff168152602001908152602001600020805490509050919050565b6000828261031b61052f565b8080602001838152602001828103825284818151815260200191508051906020019060200280838360005b83811015610361578082015181840152602081019050610346565b505050509050019350505050604051809103906000f080158015610389573d6000803e3d6000fd5b5090506103958161039b565b92915050565b60016000808373ffffffffffffffffffffffffffffffffffffffff1673ffffffffffffffffffffffffffffffffffffffff16815260200190815260200160002060006101000a81548160ff021916908315150217905550600160003373ffffffffffffffffffffffffffffffffffffffff1673ffffffffffffffffffffffffffffffffffffffff1681526020019081526020016000208190806001815401808255809150509060018203906000526020600020016000909192909190916101000a81548173ffffffffffffffffffffffffffffffffffffffff021916908373ffffffffffffffffffffffffffffffffffffffff160217905550507f4fb057ad4a26ed17a57957fa69c306f11987596069b89521c511fc9a894e61613382604051808373ffffffffffffffffffffffffffffffffffffffff1673ffffffffffffffffffffffffffffffffffffffff1681526020018273ffffffffffffffffffffffffffffffffffffffff1673ffffffffffffffffffffffffffffffffffffffff1681526020019250505060405180910390a150565b6040516124c88061054083390190560060806040523480156200001157600080fd5b50604051620024c8380380620024c883398101806040528101908080518201929190602001805190602001909291905050506000825182603282111580156200005a5750818111155b801562000068575060008114155b801562000076575060008214155b15156200008257600080fd5b600092505b8451831015620001bd57600260008685815181101515620000a457fe5b9060200190602002015173ffffffffffffffffffffffffffffffffffffffff1673ffffffffffffffffffffffffffffffffffffffff16815260200190815260200160002060009054906101000a900460ff16158015620001335750600085848151811015156200011057fe5b9060200190602002015173ffffffffffffffffffffffffffffffffffffffff1614155b15156200013f57600080fd5b60016002600087868151811015156200015457fe5b9060200190602002015173ffffffffffffffffffffffffffffffffffffffff1673ffffffffffffffffffffffffffffffffffffffff16815260200190815260200160002060006101000a81548160ff021916908315150217905550828060010193505062000087565b8460039080519060200190620001d5929190620001e8565b50836004819055505050505050620002bd565b82805482825590600052602060002090810192821562000264579160200282015b82811115620002635782518260006101000a81548173ffffffffffffffffffffffffffffffffffffffff021916908373ffffffffffffffffffffffffffffffffffffffff1602179055509160200191906001019062000209565b5b50905062000273919062000277565b5090565b620002ba91905b80821115620002b657600081816101000a81549073ffffffffffffffffffffffffffffffffffffffff0219169055506001016200027e565b5090565b90565b6121fb80620002cd6000396000f30060806040526004361061011d576000357c0100000000000000000000000000000000000000000000000000000000900463ffffffff168063025e7c2714610177578063173825d9146101e457806320ea8d86146102275780632f54bf6e146102545780633411c81c146102af57806354741525146103145780637065cb4814610363578063784547a7146103a65780638b51d13f146103eb5780639ace38c21461042c578063a0e67e2b14610517578063a8abe69a14610583578063b5dc40c314610627578063b77bf600146106a9578063ba51a6df146106d4578063c01a8c8414610701578063c64274741461072e578063d74f8edd146107d5578063dc8452cd14610800578063e20056e61461082b578063ee22610b1461088e575b6000341115610175573373ffffffffffffffffffffffffffffffffffffffff167fe1fffcc4923d04b559f4d29a8bfc6cda04eb5b0d3c460751c2402c5c5cc9109c346040518082815260200191505060405180910390a25b005b34801561018357600080fd5b506101a2600480360381019080803590602001909291905050506108bb565b604051808273ffffffffffffffffffffffffffffffffffffffff1673ffffffffffffffffffffffffffffffffffffffff16815260200191505060405180910390f35b3480156101f057600080fd5b50610225600480360381019080803573ffffffffffffffffffffffffffffffffffffffff1690602001909291905050506108f9565b005b34801561023357600080fd5b5061025260048036038101908080359060200190929190505050610b92565b005b34801561026057600080fd5b50610295600480360381019080803573ffffffffffffffffffffffffffffffffffffffff169060200190929190505050610d3a565b604051808215151515815260200191505060405180910390f35b3480156102bb57600080fd5b506102fa60048036038101908080359060200190929190803573ffffffffffffffffffffffffffffffffffffffff169060200190929190505050610d5a565b604051808215151515815260200191505060405180910390f35b34801561032057600080fd5b5061034d600480360381019080803515159060200190929190803515159060200190929190505050610d89565b6040518082815260200191505060405180910390f35b34801561036f57600080fd5b506103a4600480360381019080803573ffffffffffffffffffffffffffffffffffffffff169060200190929190505050610e1b565b005b3480156103b257600080fd5b506103d160048036038101908080359060200190929190505050611020565b604051808215151515815260200191505060405180910390f35b3480156103f757600080fd5b5061041660048036038101908080359060200190929190505050611105565b6040518082815260200191505060405180910390f35b34801561043857600080fd5b50610457600480360381019080803590602001909291905050506111d0565b604051808573ffffffffffffffffffffffffffffffffffffffff1673ffffffffffffffffffffffffffffffffffffffff1681526020018481526020018060200183151515158152602001828103825284818151815260200191508051906020019080838360005b838110156104d95780820151818401526020810190506104be565b50505050905090810190601f1680156105065780820380516001836020036101000a031916815260200191505b509550505050505060405180910390f35b34801561052357600080fd5b5061052c6112c5565b6040518080602001828103825283818151815260200191508051906020019060200280838360005b8381101561056f578082015181840152602081019050610554565b505050509050019250505060405180910390f35b34801561058f57600080fd5b506105d06004803603810190808035906020019092919080359060200190929190803515159060200190929190803515159060200190929190505050611353565b6040518080602001828103825283818151815260200191508051906020019060200280838360005b838110156106135780820151818401526020810190506105f8565b505050509050019250505060405180910390f35b34801561063357600080fd5b50610652600480360381019080803590602001909291905050506114c4565b6040518080602001828103825283818151815260200191508051906020019060200280838360005b8381101561069557808201518184015260208101905061067a565b505050509050019250505060405180910390f35b3480156106b557600080fd5b506106be611701565b6040518082815260200191505060405180910390f35b3480156106e057600080fd5b506106ff60048036038101908080359060200190929190505050611707565b005b34801561070d57600080fd5b5061072c600480360381019080803590602001909291905050506117c1565b005b34801561073a57600080fd5b506107bf600480360381019080803573ffffffffffffffffffffffffffffffffffffffff16906020019092919080359060200190929190803590602001908201803590602001908080601f016020809104026020016040519081016040528093929190818152602001838380828437820191505050505050919291929050505061199e565b6040518082815260200191505060405180910390f35b3480156107e157600080fd5b506107ea6119bd565b6040518082815260200191505060405180910390f35b34801561080c57600080fd5b506108156119c2565b6040518082815260200191505060405180910390f35b34801561083757600080fd5b5061088c600480360381019080803573ffffffffffffffffffffffffffffffffffffffff169060200190929190803573ffffffffffffffffffffffffffffffffffffffff1690602001909291905050506119c8565b005b34801561089a57600080fd5b506108b960048036038101908080359060200190929190505050611cdd565b005b6003818154811015156108ca57fe5b906000526020600020016000915054906101000a900473ffffffffffffffffffffffffffffffffffffffff1681565b60003073ffffffffffffffffffffffffffffffffffffffff163373ffffffffffffffffffffffffffffffffffffffff1614151561093557600080fd5b81600260008273ffffffffffffffffffffffffffffffffffffffff1673ffffffffffffffffffffffffffffffffffffffff16815260200190815260200160002060009054906101000a900460ff16151561098e57600080fd5b6000600260008573ffffffffffffffffffffffffffffffffffffffff1673ffffffffffffffffffffffffffffffffffffffff16815260200190815260200160002060006101000a81548160ff021916908315150217905550600091505b600160038054905003821015610b13578273ffffffffffffffffffffffffffffffffffffffff16600383815481101515610a2157fe5b9060005260206000200160009054906101000a900473ffffffffffffffffffffffffffffffffffffffff1673ffffffffffffffffffffffffffffffffffffffff161415610b06576003600160038054905003815481101515610a7f57fe5b9060005260206000200160009054906101000a900473ffffffffffffffffffffffffffffffffffffffff16600383815481101515610ab957fe5b9060005260206000200160006101000a81548173ffffffffffffffffffffffffffffffffffffffff021916908373ffffffffffffffffffffffffffffffffffffffff160217905550610b13565b81806001019250506109eb565b6001600381818054905003915081610b2b91906120fe565b506003805490506004541115610b4a57610b49600380549050611707565b5b8273ffffffffffffffffffffffffffffffffffffffff167f8001553a916ef2f495d26a907cc54d96ed840d7bda71e73194bf5a9df7a76b9060405160405180910390a2505050565b33600260008273ffffffffffffffffffffffffffffffffffffffff1673ffffffffffffffffffffffffffffffffffffffff16815260200190815260200160002060009054906101000a900460ff161515610beb57600080fd5b81336001600083815260200190815260200160002060008273ffffffffffffffffffffffffffffffffffffffff1673ffffffffffffffffffffffffffffffffffffffff16815260200190815260200160002060009054906101000a900460ff161515610c5657600080fd5b8360008082815260200190815260200160002060030160009054906101000a900460ff16151515610c8657600080fd5b60006001600087815260200190815260200160002060003373ffffffffffffffffffffffffffffffffffffffff1673ffffffffffffffffffffffffffffffffffffffff16815260200190815260200160002060006101000a81548160ff021916908315150217905550843373ffffffffffffffffffffffffffffffffffffffff167ff6a317157440607f36269043eb55f1287a5a19ba2216afeab88cd46cbcfb88e960405160405180910390a35050505050565b60026020528060005260406000206000915054906101000a900460ff1681565b60016020528160005260406000206020528060005260406000206000915091509054906101000a900460ff1681565b600080600090505b600554811015610e1457838015610dc8575060008082815260200190815260200160002060030160009054906101000a900460ff16155b80610dfb5750828015610dfa575060008082815260200190815260200160002060030160009054906101000a900460ff165b5b15610e07576001820191505b8080600101915050610d91565b5092915050565b3073ffffffffffffffffffffffffffffffffffffffff163373ffffffffffffffffffffffffffffffffffffffff16141515610e5557600080fd5b80600260008273ffffffffffffffffffffffffffffffffffffffff1673ffffffffffffffffffffffffffffffffffffffff16815260200190815260200160002060009054906101000a900460ff16151515610eaf57600080fd5b8160008173ffffffffffffffffffffffffffffffffffffffff1614151515610ed657600080fd5b60016003805490500160045460328211158015610ef35750818111155b8015610f00575060008114155b8015610f0d575060008214155b1515610f1857600080fd5b6001600260008773ffffffffffffffffffffffffffffffffffffffff1673ffffffffffffffffffffffffffffffffffffffff16815260200190815260200160002060006101000a81548160ff02191690831515021790555060038590806001815401808255809150509060018203906000526020600020016000909192909190916101000a81548173ffffffffffffffffffffffffffffffffffffffff021916908373ffffffffffffffffffffffffffffffffffffffff160217905550508473ffffffffffffffffffffffffffffffffffffffff167ff39e6e1eb0edcf53c221607b54b00cd28f3196fed0a24994dc308b8f611b682d60405160405180910390a25050505050565b6000806000809150600090505b6003805490508110156110fd5760016000858152602001908152602001600020600060038381548110151561105e57fe5b9060005260206000200160009054906101000a900473ffffffffffffffffffffffffffffffffffffffff1673ffffffffffffffffffffffffffffffffffffffff1673ffffffffffffffffffffffffffffffffffffffff16815260200190815260200160002060009054906101000a900460ff16156110dd576001820191505b6004548214156110f057600192506110fe565b808060010191505061102d565b5b5050919050565b600080600090505b6003805490508110156111ca5760016000848152602001908152602001600020600060038381548110151561113e57fe5b9060005260206000200160009054906101000a900473ffffffffffffffffffffffffffffffffffffffff1673ffffffffffffffffffffffffffffffffffffffff1673ffffffffffffffffffffffffffffffffffffffff16815260200190815260200160002060009054906101000a900460ff16156111bd576001820191505b808060010191505061110d565b50919050565b60006020528060005260406000206000915090508060000160009054906101000a900473ffffffffffffffffffffffffffffffffffffffff1690806001015490806002018054600181600116156101000203166002900480601f0160208091040260200160405190810160405280929190818152602001828054600181600116156101000203166002900480156112a85780601f1061127d576101008083540402835291602001916112a8565b820191906000526020600020905b81548152906001019060200180831161128b57829003601f168201915b5050505050908060030160009054906101000a900460ff16905084565b6060600380548060200260200160405190810160405280929190818152602001828054801561134957602002820191906000526020600020905b8160009054906101000a900473ffffffffffffffffffffffffffffffffffffffff1673ffffffffffffffffffffffffffffffffffffffff16815260200190600101908083116112ff575b5050505050905090565b60608060008060055460405190808252806020026020018201604052801561138a5781602001602082028038833980820191505090505b50925060009150600090505b600554811015611436578580156113cd575060008082815260200190815260200160002060030160009054906101000a900460ff16155b8061140057508480156113ff575060008082815260200190815260200160002060030160009054906101000a900460ff165b5b156114295780838381518110151561141457fe5b90602001906020020181815250506001820191505b8080600101915050611396565b8787036040519080825280602002602001820160405280156114675781602001602082028038833980820191505090505b5093508790505b868110156114b957828181518110151561148457fe5b906020019060200201518489830381518110151561149e57fe5b9060200190602002018181525050808060010191505061146e565b505050949350505050565b6060806000806003805490506040519080825280602002602001820160405280156114fe5781602001602082028038833980820191505090505b50925060009150600090505b60038054905081101561164b5760016000868152602001908152602001600020600060038381548110151561153b57fe5b9060005260206000200160009054906101000a900473ffffffffffffffffffffffffffffffffffffffff1673ffffffffffffffffffffffffffffffffffffffff1673ffffffffffffffffffffffffffffffffffffffff16815260200190815260200160002060009054906101000a900460ff161561163e576003818154811015156115c257fe5b9060005260206000200160009054906101000a900473ffffffffffffffffffffffffffffffffffffffff1683838151811015156115fb57fe5b9060200190602002019073ffffffffffffffffffffffffffffffffffffffff16908173ffffffffffffffffffffffffffffffffffffffff16815250506001820191505b808060010191505061150a565b8160405190808252806020026020018201604052801561167a5781602001602082028038833980820191505090505b509350600090505b818110156116f957828181518110151561169857fe5b9060200190602002015184828151811015156116b057fe5b9060200190602002019073ffffffffffffffffffffffffffffffffffffffff16908173ffffffffffffffffffffffffffffffffffffffff16815250508080600101915050611682565b505050919050565b60055481565b3073ffffffffffffffffffffffffffffffffffffffff163373ffffffffffffffffffffffffffffffffffffffff1614151561174157600080fd5b60038054905081603282111580156117595750818111155b8015611766575060008114155b8015611773575060008214155b151561177e57600080fd5b826004819055507fa3f1ee9126a074d9326c682f561767f710e927faa811f7a99829d49dc421797a836040518082815260200191505060405180910390a1505050565b33600260008273ffffffffffffffffffffffffffffffffffffffff1673ffffffffffffffffffffffffffffffffffffffff16815260200190815260200160002060009054906101000a900460ff16151561181a57600080fd5b81600080600083815260200190815260200160002060000160009054906101000a900473ffffffffffffffffffffffffffffffffffffffff1673ffffffffffffffffffffffffffffffffffffffff161415151561187657600080fd5b82336001600083815260200190815260200160002060008273ffffffffffffffffffffffffffffffffffffffff1673ffffffffffffffffffffffffffffffffffffffff16815260200190815260200160002060009054906101000a900460ff161515156118e257600080fd5b600180600087815260200190815260200160002060003373ffffffffffffffffffffffffffffffffffffffff1673ffffffffffffffffffffffffffffffffffffffff16815260200190815260200160002060006101000a81548160ff021916908315150217905550843373ffffffffffffffffffffffffffffffffffffffff167f4a504a94899432a9846e1aa406dceb1bcfd538bb839071d49d1e5e23f5be30ef60405160405180910390a361199785611cdd565b5050505050565b60006119ab848484611f85565b90506119b6816117c1565b9392505050565b603281565b60045481565b60003073ffffffffffffffffffffffffffffffffffffffff163373ffffffffffffffffffffffffffffffffffffffff16141515611a0457600080fd5b82600260008273ffffffffffffffffffffffffffffffffffffffff1673ffffffffffffffffffffffffffffffffffffffff16815260200190815260200160002060009054906101000a900460ff161515611a5d57600080fd5b82600260008273ffffffffffffffffffffffffffffffffffffffff1673ffffffffffffffffffffffffffffffffffffffff16815260200190815260200160002060009054906101000a900460ff16151515611ab757600080fd5b600092505b600380549050831015611ba0578473ffffffffffffffffffffffffffffffffffffffff16600384815481101515611aef57fe5b9060005260206000200160009054906101000a900473ffffffffffffffffffffffffffffffffffffffff1673ffffffffffffffffffffffffffffffffffffffff161415611b935783600384815481101515611b4657fe5b9060005260206000200160006101000a81548173ffffffffffffffffffffffffffffffffffffffff021916908373ffffffffffffffffffffffffffffffffffffffff160217905550611ba0565b8280600101935050611abc565b6000600260008773ffffffffffffffffffffffffffffffffffffffff1673ffffffffffffffffffffffffffffffffffffffff16815260200190815260200160002060006101000a81548160ff0219169083151502179055506001600260008673ffffffffffffffffffffffffffffffffffffffff1673ffffffffffffffffffffffffffffffffffffffff16815260200190815260200160002060006101000a81548160ff0219169083151502179055508473ffffffffffffffffffffffffffffffffffffffff167f8001553a916ef2f495d26a907cc54d96ed840d7bda71e73194bf5a9df7a76b9060405160405180910390a28373ffffffffffffffffffffffffffffffffffffffff167ff39e6e1eb0edcf53c221607b54b00cd28f3196fed0a24994dc308b8f611b682d60405160405180910390a25050505050565b600033600260008273ffffffffffffffffffffffffffffffffffffffff1673ffffffffffffffffffffffffffffffffffffffff16815260200190815260200160002060009054906101000a900460ff161515611d3857600080fd5b82336001600083815260200190815260200160002060008273ffffffffffffffffffffffffffffffffffffffff1673ffffffffffffffffffffffffffffffffffffffff16815260200190815260200160002060009054906101000a900460ff161515611da357600080fd5b8460008082815260200190815260200160002060030160009054906101000a900460ff16151515611dd357600080fd5b611ddc86611020565b15611f7d57600080878152602001908152602001600020945060018560030160006101000a81548160ff021916908315150217905550611efa8560000160009054906101000a900473ffffffffffffffffffffffffffffffffffffffff16866001015487600201805460018160011615610100020316600290049050886002018054600181600116156101000203166002900480601f016020809104026020016040519081016040528092919081815260200182805460018160011615610100020316600290048015611ef05780601f10611ec557610100808354040283529160200191611ef0565b820191906000526020600020905b815481529060010190602001808311611ed357829003601f168201915b50505050506120d7565b15611f3157857f33e13ecb54c3076d8e8bb8c2881800a4d972b792045ffae98fdf46df365fed7560405160405180910390a2611f7c565b857f526441bb6c1aba3c9a4a6ca1d6545da9c2333c8c48343ef398eb858d72b7923660405160405180910390a260008560030160006101000a81548160ff0219169083151502179055505b5b505050505050565b60008360008173ffffffffffffffffffffffffffffffffffffffff1614151515611fae57600080fd5b60055491506080604051908101604052808673ffffffffffffffffffffffffffffffffffffffff1681526020018581526020018481526020016000151581525060008084815260200190815260200160002060008201518160000160006101000a81548173ffffffffffffffffffffffffffffffffffffffff021916908373ffffffffffffffffffffffffffffffffffffffff16021790555060208201518160010155604082015181600201908051906020019061206d92919061212a565b5060608201518160030160006101000a81548160ff0219169083151502179055509050506001600560008282540192505081905550817fc0ba8fe4b176c1714197d43b9cc6bcf797a4a7461c5fe8d0ef6e184ae7601e5160405160405180910390a2509392505050565b6000806040516020840160008287838a8c6187965a03f19250505080915050949350505050565b8154818355818111156121255781836000526020600020918201910161212491906121aa565b5b505050565b828054600181600116156101000203166002900490600052602060002090601f016020900481019282601f1061216b57805160ff1916838001178555612199565b82800160010185558215612199579182015b8281111561219857825182559160200191906001019061217d565b5b5090506121a691906121aa565b5090565b6121cc91905b808211156121c85760008160009055506001016121b0565b5090565b905600a165627a7a723058207f70106af20cb1fcc7808bf43524bb09136e653b8166044090f7660d20e444cb0029a165627a7a723058204c74bd11a698d490aec665ee46c473c03fab61e69a9af96491c26afc4e36a9f20029",
					"opcodes": "PUSH1 0x80 PUSH1 0x40 MSTORE CALLVALUE DUP1 ISZERO PUSH2 0x10 JUMPI PUSH1 0x0 DUP1 REVERT JUMPDEST POP PUSH2 0x2A33 DUP1 PUSH2 0x20 PUSH1 0x0 CODECOPY PUSH1 0x0 RETURN STOP PUSH1 0x80 PUSH1 0x40 MSTORE PUSH1 0x4 CALLDATASIZE LT PUSH2 0x62 JUMPI PUSH1 0x0 CALLDATALOAD PUSH29 0x100000000000000000000000000000000000000000000000000000000 SWAP1 DIV PUSH4 0xFFFFFFFF AND DUP1 PUSH4 0x2F4F3316 EQ PUSH2 0x67 JUMPI DUP1 PUSH4 0x57183C82 EQ PUSH2 0xC2 JUMPI DUP1 PUSH4 0x8F838478 EQ PUSH2 0x14F JUMPI DUP1 PUSH4 0xF8F73808 EQ PUSH2 0x1A6 JUMPI JUMPDEST PUSH1 0x0 DUP1 REVERT JUMPDEST CALLVALUE DUP1 ISZERO PUSH2 0x73 JUMPI PUSH1 0x0 DUP1 REVERT JUMPDEST POP PUSH2 0xA8 PUSH1 0x4 DUP1 CALLDATASIZE SUB DUP2 ADD SWAP1 DUP1 DUP1 CALLDATALOAD PUSH20 0xFFFFFFFFFFFFFFFFFFFFFFFFFFFFFFFFFFFFFFFF AND SWAP1 PUSH1 0x20 ADD SWAP1 SWAP3 SWAP2 SWAP1 POP POP POP PUSH2 0x256 JUMP JUMPDEST PUSH1 0x40 MLOAD DUP1 DUP3 ISZERO ISZERO ISZERO ISZERO DUP2 MSTORE PUSH1 0x20 ADD SWAP2 POP POP PUSH1 0x40 MLOAD DUP1 SWAP2 SUB SWAP1 RETURN JUMPDEST CALLVALUE DUP1 ISZERO PUSH2 0xCE JUMPI PUSH1 0x0 DUP1 REVERT JUMPDEST POP PUSH2 0x10D PUSH1 0x4 DUP1 CALLDATASIZE SUB DUP2 ADD SWAP1 DUP1 DUP1 CALLDATALOAD PUSH20 0xFFFFFFFFFFFFFFFFFFFFFFFFFFFFFFFFFFFFFFFF AND SWAP1 PUSH1 0x20 ADD SWAP1 SWAP3 SWAP2 SWAP1 DUP1 CALLDATALOAD SWAP1 PUSH1 0x20 ADD SWAP1 SWAP3 SWAP2 SWAP1 POP POP POP PUSH2 0x276 JUMP JUMPDEST PUSH1 0x40 MLOAD DUP1 DUP3 PUSH20 0xFFFFFFFFFFFFFFFFFFFFFFFFFFFFFFFFFFFFFFFF AND PUSH20 0xFFFFFFFFFFFFFFFFFFFFFFFFFFFFFFFFFFFFFFFF AND DUP2 MSTORE PUSH1 0x20 ADD SWAP2 POP POP PUSH1 0x40 MLOAD DUP1 SWAP2 SUB SWAP1 RETURN JUMPDEST CALLVALUE DUP1 ISZERO PUSH2 0x15B JUMPI PUSH1 0x0 DUP1 REVERT JUMPDEST POP PUSH2 0x190 PUSH1 0x4 DUP1 CALLDATASIZE SUB DUP2 ADD SWAP1 DUP1 DUP1 CALLDATALOAD PUSH20 0xFFFFFFFFFFFFFFFFFFFFFFFFFFFFFFFFFFFFFFFF AND SWAP1 PUSH1 0x20 ADD SWAP1 SWAP3 SWAP2 SWAP1 POP POP POP PUSH2 0x2C3 JUMP JUMPDEST PUSH1 0x40 MLOAD DUP1 DUP3 DUP2 MSTORE PUSH1 0x20 ADD SWAP2 POP POP PUSH1 0x40 MLOAD DUP1 SWAP2 SUB SWAP1 RETURN JUMPDEST CALLVALUE DUP1 ISZERO PUSH2 0x1B2 JUMPI PUSH1 0x0 DUP1 REVERT JUMPDEST POP PUSH2 0x214 PUSH1 0x4 DUP1 CALLDATASIZE SUB DUP2 ADD SWAP1 DUP1 DUP1 CALLDATALOAD SWAP1 PUSH1 0x20 ADD SWAP1 DUP3 ADD DUP1 CALLDATALOAD SWAP1 PUSH1 0x20 ADD SWAP1 DUP1 DUP1 PUSH1 0x20 MUL PUSH1 0x20 ADD PUSH1 0x40 MLOAD SWAP1 DUP2 ADD PUSH1 0x40 MSTORE DUP1 SWAP4 SWAP3 SWAP2 SWAP1 DUP2 DUP2 MSTORE PUSH1 0x20 ADD DUP4 DUP4 PUSH1 0x20 MUL DUP1 DUP3 DUP5 CALLDATACOPY DUP3 ADD SWAP2 POP POP POP POP POP POP SWAP2 SWAP3 SWAP2 SWAP3 SWAP1 DUP1 CALLDATALOAD SWAP1 PUSH1 0x20 ADD SWAP1 SWAP3 SWAP2 SWAP1 POP POP POP PUSH2 0x30F JUMP JUMPDEST PUSH1 0x40 MLOAD DUP1 DUP3 PUSH20 0xFFFFFFFFFFFFFFFFFFFFFFFFFFFFFFFFFFFFFFFF AND PUSH20 0xFFFFFFFFFFFFFFFFFFFFFFFFFFFFFFFFFFFFFFFF AND DUP2 MSTORE PUSH1 0x20 ADD SWAP2 POP POP PUSH1 0x40 MLOAD DUP1 SWAP2 SUB SWAP1 RETURN JUMPDEST PUSH1 0x0 PUSH1 0x20 MSTORE DUP1 PUSH1 0x0 MSTORE PUSH1 0x40 PUSH1 0x0 KECCAK256 PUSH1 0x0 SWAP2 POP SLOAD SWAP1 PUSH2 0x100 EXP SWAP1 DIV PUSH1 0xFF AND DUP2 JUMP JUMPDEST PUSH1 0x1 PUSH1 0x20 MSTORE DUP2 PUSH1 0x0 MSTORE PUSH1 0x40 PUSH1 0x0 KECCAK256 DUP2 DUP2 SLOAD DUP2 LT ISZERO ISZERO PUSH2 0x291 JUMPI INVALID JUMPDEST SWAP1 PUSH1 0x0 MSTORE PUSH1 0x20 PUSH1 0x0 KECCAK256 ADD PUSH1 0x0 SWAP2 POP SWAP2 POP SWAP1 SLOAD SWAP1 PUSH2 0x100 EXP SWAP1 DIV PUSH20 0xFFFFFFFFFFFFFFFFFFFFFFFFFFFFFFFFFFFFFFFF AND DUP2 JUMP JUMPDEST PUSH1 0x0 PUSH1 0x1 PUSH1 0x0 DUP4 PUSH20 0xFFFFFFFFFFFFFFFFFFFFFFFFFFFFFFFFFFFFFFFF AND PUSH20 0xFFFFFFFFFFFFFFFFFFFFFFFFFFFFFFFFFFFFFFFF AND DUP2 MSTORE PUSH1 0x20 ADD SWAP1 DUP2 MSTORE PUSH1 0x20 ADD PUSH1 0x0 KECCAK256 DUP1 SLOAD SWAP1 POP SWAP1 POP SWAP2 SWAP1 POP JUMP JUMPDEST PUSH1 0x0 DUP3 DUP3 PUSH2 0x31B PUSH2 0x52F JUMP JUMPDEST DUP1 DUP1 PUSH1 0x20 ADD DUP4 DUP2 MSTORE PUSH1 0x20 ADD DUP3 DUP2 SUB DUP3 MSTORE DUP5 DUP2 DUP2 MLOAD DUP2 MSTORE PUSH1 0x20 ADD SWAP2 POP DUP1 MLOAD SWAP1 PUSH1 0x20 ADD SWAP1 PUSH1 0x20 MUL DUP1 DUP4 DUP4 PUSH1 0x0 JUMPDEST DUP4 DUP2 LT ISZERO PUSH2 0x361 JUMPI DUP1 DUP3 ADD MLOAD DUP2 DUP5 ADD MSTORE PUSH1 0x20 DUP2 ADD SWAP1 POP PUSH2 0x346 JUMP JUMPDEST POP POP POP POP SWAP1 POP ADD SWAP4 POP POP POP POP PUSH1 0x40 MLOAD DUP1 SWAP2 SUB SWAP1 PUSH1 0x0 CREATE DUP1 ISZERO DUP1 ISZERO PUSH2 0x389 JUMPI RETURNDATASIZE PUSH1 0x0 DUP1 RETURNDATACOPY RETURNDATASIZE PUSH1 0x0 REVERT JUMPDEST POP SWAP1 POP PUSH2 0x395 DUP2 PUSH2 0x39B JUMP JUMPDEST SWAP3 SWAP2 POP POP JUMP JUMPDEST PUSH1 0x1 PUSH1 0x0 DUP1 DUP4 PUSH20 0xFFFFFFFFFFFFFFFFFFFFFFFFFFFFFFFFFFFFFFFF AND PUSH20 0xFFFFFFFFFFFFFFFFFFFFFFFFFFFFFFFFFFFFFFFF AND DUP2 MSTORE PUSH1 0x20 ADD SWAP1 DUP2 MSTORE PUSH1 0x20 ADD PUSH1 0x0 KECCAK256 PUSH1 0x0 PUSH2 0x100 EXP DUP2 SLOAD DUP2 PUSH1 0xFF MUL NOT AND SWAP1 DUP4 ISZERO ISZERO MUL OR SWAP1 SSTORE POP PUSH1 0x1 PUSH1 0x0 CALLER PUSH20 0xFFFFFFFFFFFFFFFFFFFFFFFFFFFFFFFFFFFFFFFF AND PUSH20 0xFFFFFFFFFFFFFFFFFFFFFFFFFFFFFFFFFFFFFFFF AND DUP2 MSTORE PUSH1 0x20 ADD SWAP1 DUP2 MSTORE PUSH1 0x20 ADD PUSH1 0x0 KECCAK256 DUP2 SWAP1 DUP1 PUSH1 0x1 DUP2 SLOAD ADD DUP1 DUP3 SSTORE DUP1 SWAP2 POP POP SWAP1 PUSH1 0x1 DUP3 SUB SWAP1 PUSH1 0x0 MSTORE PUSH1 0x20 PUSH1 0x0 KECCAK256 ADD PUSH1 0x0 SWAP1 SWAP2 SWAP3 SWAP1 SWAP2 SWAP1 SWAP2 PUSH2 0x100 EXP DUP2 SLOAD DUP2 PUSH20 0xFFFFFFFFFFFFFFFFFFFFFFFFFFFFFFFFFFFFFFFF MUL NOT AND SWAP1 DUP4 PUSH20 0xFFFFFFFFFFFFFFFFFFFFFFFFFFFFFFFFFFFFFFFF AND MUL OR SWAP1 SSTORE POP POP PUSH32 0x4FB057AD4A26ED17A57957FA69C306F11987596069B89521C511FC9A894E6161 CALLER DUP3 PUSH1 0x40 MLOAD DUP1 DUP4 PUSH20 0xFFFFFFFFFFFFFFFFFFFFFFFFFFFFFFFFFFFFFFFF AND PUSH20 0xFFFFFFFFFFFFFFFFFFFFFFFFFFFFFFFFFFFFFFFF AND DUP2 MSTORE PUSH1 0x20 ADD DUP3 PUSH20 0xFFFFFFFFFFFFFFFFFFFFFFFFFFFFFFFFFFFFFFFF AND PUSH20 0xFFFFFFFFFFFFFFFFFFFFFFFFFFFFFFFFFFFFFFFF AND DUP2 MSTORE PUSH1 0x20 ADD SWAP3 POP POP POP PUSH1 0x40 MLOAD DUP1 SWAP2 SUB SWAP1 LOG1 POP JUMP JUMPDEST PUSH1 0x40 MLOAD PUSH2 0x24C8 DUP1 PUSH2 0x540 DUP4 CODECOPY ADD SWAP1 JUMP STOP PUSH1 0x80 PUSH1 0x40 MSTORE CALLVALUE DUP1 ISZERO PUSH3 0x11 JUMPI PUSH1 0x0 DUP1 REVERT JUMPDEST POP PUSH1 0x40 MLOAD PUSH3 0x24C8 CODESIZE SUB DUP1 PUSH3 0x24C8 DUP4 CODECOPY DUP2 ADD DUP1 PUSH1 0x40 MSTORE DUP2 ADD SWAP1 DUP1 DUP1 MLOAD DUP3 ADD SWAP3 SWAP2 SWAP1 PUSH1 0x20 ADD DUP1 MLOAD SWAP1 PUSH1 0x20 ADD SWAP1 SWAP3 SWAP2 SWAP1 POP POP POP PUSH1 0x0 DUP3 MLOAD DUP3 PUSH1 0x32 DUP3 GT ISZERO DUP1 ISZERO PUSH3 0x5A JUMPI POP DUP2 DUP2 GT ISZERO JUMPDEST DUP1 ISZERO PUSH3 0x68 JUMPI POP PUSH1 0x0 DUP2 EQ ISZERO JUMPDEST DUP1 ISZERO PUSH3 0x76 JUMPI POP PUSH1 0x0 DUP3 EQ ISZERO JUMPDEST ISZERO ISZERO PUSH3 0x82 JUMPI PUSH1 0x0 DUP1 REVERT JUMPDEST PUSH1 0x0 SWAP3 POP JUMPDEST DUP5 MLOAD DUP4 LT ISZERO PUSH3 0x1BD JUMPI PUSH1 0x2 PUSH1 0x0 DUP7 DUP6 DUP2 MLOAD DUP2 LT ISZERO ISZERO PUSH3 0xA4 JUMPI INVALID JUMPDEST SWAP1 PUSH1 0x20 ADD SWAP1 PUSH1 0x20 MUL ADD MLOAD PUSH20 0xFFFFFFFFFFFFFFFFFFFFFFFFFFFFFFFFFFFFFFFF AND PUSH20 0xFFFFFFFFFFFFFFFFFFFFFFFFFFFFFFFFFFFFFFFF AND DUP2 MSTORE PUSH1 0x20 ADD SWAP1 DUP2 MSTORE PUSH1 0x20 ADD PUSH1 0x0 KECCAK256 PUSH1 0x0 SWAP1 SLOAD SWAP1 PUSH2 0x100 EXP SWAP1 DIV PUSH1 0xFF AND ISZERO DUP1 ISZERO PUSH3 0x133 JUMPI POP PUSH1 0x0 DUP6 DUP5 DUP2 MLOAD DUP2 LT ISZERO ISZERO PUSH3 0x110 JUMPI INVALID JUMPDEST SWAP1 PUSH1 0x20 ADD SWAP1 PUSH1 0x20 MUL ADD MLOAD PUSH20 0xFFFFFFFFFFFFFFFFFFFFFFFFFFFFFFFFFFFFFFFF AND EQ ISZERO JUMPDEST ISZERO ISZERO PUSH3 0x13F JUMPI PUSH1 0x0 DUP1 REVERT JUMPDEST PUSH1 0x1 PUSH1 0x2 PUSH1 0x0 DUP8 DUP7 DUP2 MLOAD DUP2 LT ISZERO ISZERO PUSH3 0x154 JUMPI INVALID JUMPDEST SWAP1 PUSH1 0x20 ADD SWAP1 PUSH1 0x20 MUL ADD MLOAD PUSH20 0xFFFFFFFFFFFFFFFFFFFFFFFFFFFFFFFFFFFFFFFF AND PUSH20 0xFFFFFFFFFFFFFFFFFFFFFFFFFFFFFFFFFFFFFFFF AND DUP2 MSTORE PUSH1 0x20 ADD SWAP1 DUP2 MSTORE PUSH1 0x20 ADD PUSH1 0x0 KECCAK256 PUSH1 0x0 PUSH2 0x100 EXP DUP2 SLOAD DUP2 PUSH1 0xFF MUL NOT AND SWAP1 DUP4 ISZERO ISZERO MUL OR SWAP1 SSTORE POP DUP3 DUP1 PUSH1 0x1 ADD SWAP4 POP POP PUSH3 0x87 JUMP JUMPDEST DUP5 PUSH1 0x3 SWAP1 DUP1 MLOAD SWAP1 PUSH1 0x20 ADD SWAP1 PUSH3 0x1D5 SWAP3 SWAP2 SWAP1 PUSH3 0x1E8 JUMP JUMPDEST POP DUP4 PUSH1 0x4 DUP2 SWAP1 SSTORE POP POP POP POP POP POP PUSH3 0x2BD JUMP JUMPDEST DUP3 DUP1 SLOAD DUP3 DUP3 SSTORE SWAP1 PUSH1 0x0 MSTORE PUSH1 0x20 PUSH1 0x0 KECCAK256 SWAP1 DUP2 ADD SWAP3 DUP3 ISZERO PUSH3 0x264 JUMPI SWAP2 PUSH1 0x20 MUL DUP3 ADD JUMPDEST DUP3 DUP2 GT ISZERO PUSH3 0x263 JUMPI DUP3 MLOAD DUP3 PUSH1 0x0 PUSH2 0x100 EXP DUP2 SLOAD DUP2 PUSH20 0xFFFFFFFFFFFFFFFFFFFFFFFFFFFFFFFFFFFFFFFF MUL NOT AND SWAP1 DUP4 PUSH20 0xFFFFFFFFFFFFFFFFFFFFFFFFFFFFFFFFFFFFFFFF AND MUL OR SWAP1 SSTORE POP SWAP2 PUSH1 0x20 ADD SWAP2 SWAP1 PUSH1 0x1 ADD SWAP1 PUSH3 0x209 JUMP JUMPDEST JUMPDEST POP SWAP1 POP PUSH3 0x273 SWAP2 SWAP1 PUSH3 0x277 JUMP JUMPDEST POP SWAP1 JUMP JUMPDEST PUSH3 0x2BA SWAP2 SWAP1 JUMPDEST DUP1 DUP3 GT ISZERO PUSH3 0x2B6 JUMPI PUSH1 0x0 DUP2 DUP2 PUSH2 0x100 EXP DUP2 SLOAD SWAP1 PUSH20 0xFFFFFFFFFFFFFFFFFFFFFFFFFFFFFFFFFFFFFFFF MUL NOT AND SWAP1 SSTORE POP PUSH1 0x1 ADD PUSH3 0x27E JUMP JUMPDEST POP SWAP1 JUMP JUMPDEST SWAP1 JUMP JUMPDEST PUSH2 0x21FB DUP1 PUSH3 0x2CD PUSH1 0x0 CODECOPY PUSH1 0x0 RETURN STOP PUSH1 0x80 PUSH1 0x40 MSTORE PUSH1 0x4 CALLDATASIZE LT PUSH2 0x11D JUMPI PUSH1 0x0 CALLDATALOAD PUSH29 0x100000000000000000000000000000000000000000000000000000000 SWAP1 DIV PUSH4 0xFFFFFFFF AND DUP1 PUSH4 0x25E7C27 EQ PUSH2 0x177 JUMPI DUP1 PUSH4 0x173825D9 EQ PUSH2 0x1E4 JUMPI DUP1 PUSH4 0x20EA8D86 EQ PUSH2 0x227 JUMPI DUP1 PUSH4 0x2F54BF6E EQ PUSH2 0x254 JUMPI DUP1 PUSH4 0x3411C81C EQ PUSH2 0x2AF JUMPI DUP1 PUSH4 0x54741525 EQ PUSH2 0x314 JUMPI DUP1 PUSH4 0x7065CB48 EQ PUSH2 0x363 JUMPI DUP1 PUSH4 0x784547A7 EQ PUSH2 0x3A6 JUMPI DUP1 PUSH4 0x8B51D13F EQ PUSH2 0x3EB JUMPI DUP1 PUSH4 0x9ACE38C2 EQ PUSH2 0x42C JUMPI DUP1 PUSH4 0xA0E67E2B EQ PUSH2 0x517 JUMPI DUP1 PUSH4 0xA8ABE69A EQ PUSH2 0x583 JUMPI DUP1 PUSH4 0xB5DC40C3 EQ PUSH2 0x627 JUMPI DUP1 PUSH4 0xB77BF600 EQ PUSH2 0x6A9 JUMPI DUP1 PUSH4 0xBA51A6DF EQ PUSH2 0x6D4 JUMPI DUP1 PUSH4 0xC01A8C84 EQ PUSH2 0x701 JUMPI DUP1 PUSH4 0xC6427474 EQ PUSH2 0x72E JUMPI DUP1 PUSH4 0xD74F8EDD EQ PUSH2 0x7D5 JUMPI DUP1 PUSH4 0xDC8452CD EQ PUSH2 0x800 JUMPI DUP1 PUSH4 0xE20056E6 EQ PUSH2 0x82B JUMPI DUP1 PUSH4 0xEE22610B EQ PUSH2 0x88E JUMPI JUMPDEST PUSH1 0x0 CALLVALUE GT ISZERO PUSH2 0x175 JUMPI CALLER PUSH20 0xFFFFFFFFFFFFFFFFFFFFFFFFFFFFFFFFFFFFFFFF AND PUSH32 0xE1FFFCC4923D04B559F4D29A8BFC6CDA04EB5B0D3C460751C2402C5C5CC9109C CALLVALUE PUSH1 0x40 MLOAD DUP1 DUP3 DUP2 MSTORE PUSH1 0x20 ADD SWAP2 POP POP PUSH1 0x40 MLOAD DUP1 SWAP2 SUB SWAP1 LOG2 JUMPDEST STOP JUMPDEST CALLVALUE DUP1 ISZERO PUSH2 0x183 JUMPI PUSH1 0x0 DUP1 REVERT JUMPDEST POP PUSH2 0x1A2 PUSH1 0x4 DUP1 CALLDATASIZE SUB DUP2 ADD SWAP1 DUP1 DUP1 CALLDATALOAD SWAP1 PUSH1 0x20 ADD SWAP1 SWAP3 SWAP2 SWAP1 POP POP POP PUSH2 0x8BB JUMP JUMPDEST PUSH1 0x40 MLOAD DUP1 DUP3 PUSH20 0xFFFFFFFFFFFFFFFFFFFFFFFFFFFFFFFFFFFFFFFF AND PUSH20 0xFFFFFFFFFFFFFFFFFFFFFFFFFFFFFFFFFFFFFFFF AND DUP2 MSTORE PUSH1 0x20 ADD SWAP2 POP POP PUSH1 0x40 MLOAD DUP1 SWAP2 SUB SWAP1 RETURN JUMPDEST CALLVALUE DUP1 ISZERO PUSH2 0x1F0 JUMPI PUSH1 0x0 DUP1 REVERT JUMPDEST POP PUSH2 0x225 PUSH1 0x4 DUP1 CALLDATASIZE SUB DUP2 ADD SWAP1 DUP1 DUP1 CALLDATALOAD PUSH20 0xFFFFFFFFFFFFFFFFFFFFFFFFFFFFFFFFFFFFFFFF AND SWAP1 PUSH1 0x20 ADD SWAP1 SWAP3 SWAP2 SWAP1 POP POP POP PUSH2 0x8F9 JUMP JUMPDEST STOP JUMPDEST CALLVALUE DUP1 ISZERO PUSH2 0x233 JUMPI PUSH1 0x0 DUP1 REVERT JUMPDEST POP PUSH2 0x252 PUSH1 0x4 DUP1 CALLDATASIZE SUB DUP2 ADD SWAP1 DUP1 DUP1 CALLDATALOAD SWAP1 PUSH1 0x20 ADD SWAP1 SWAP3 SWAP2 SWAP1 POP POP POP PUSH2 0xB92 JUMP JUMPDEST STOP JUMPDEST CALLVALUE DUP1 ISZERO PUSH2 0x260 JUMPI PUSH1 0x0 DUP1 REVERT JUMPDEST POP PUSH2 0x295 PUSH1 0x4 DUP1 CALLDATASIZE SUB DUP2 ADD SWAP1 DUP1 DUP1 CALLDATALOAD PUSH20 0xFFFFFFFFFFFFFFFFFFFFFFFFFFFFFFFFFFFFFFFF AND SWAP1 PUSH1 0x20 ADD SWAP1 SWAP3 SWAP2 SWAP1 POP POP POP PUSH2 0xD3A JUMP JUMPDEST PUSH1 0x40 MLOAD DUP1 DUP3 ISZERO ISZERO ISZERO ISZERO DUP2 MSTORE PUSH1 0x20 ADD SWAP2 POP POP PUSH1 0x40 MLOAD DUP1 SWAP2 SUB SWAP1 RETURN JUMPDEST CALLVALUE DUP1 ISZERO PUSH2 0x2BB JUMPI PUSH1 0x0 DUP1 REVERT JUMPDEST POP PUSH2 0x2FA PUSH1 0x4 DUP1 CALLDATASIZE SUB DUP2 ADD SWAP1 DUP1 DUP1 CALLDATALOAD SWAP1 PUSH1 0x20 ADD SWAP1 SWAP3 SWAP2 SWAP1 DUP1 CALLDATALOAD PUSH20 0xFFFFFFFFFFFFFFFFFFFFFFFFFFFFFFFFFFFFFFFF AND SWAP1 PUSH1 0x20 ADD SWAP1 SWAP3 SWAP2 SWAP1 POP POP POP PUSH2 0xD5A JUMP JUMPDEST PUSH1 0x40 MLOAD DUP1 DUP3 ISZERO ISZERO ISZERO ISZERO DUP2 MSTORE PUSH1 0x20 ADD SWAP2 POP POP PUSH1 0x40 MLOAD DUP1 SWAP2 SUB SWAP1 RETURN JUMPDEST CALLVALUE DUP1 ISZERO PUSH2 0x320 JUMPI PUSH1 0x0 DUP1 REVERT JUMPDEST POP PUSH2 0x34D PUSH1 0x4 DUP1 CALLDATASIZE SUB DUP2 ADD SWAP1 DUP1 DUP1 CALLDATALOAD ISZERO ISZERO SWAP1 PUSH1 0x20 ADD SWAP1 SWAP3 SWAP2 SWAP1 DUP1 CALLDATALOAD ISZERO ISZERO SWAP1 PUSH1 0x20 ADD SWAP1 SWAP3 SWAP2 SWAP1 POP POP POP PUSH2 0xD89 JUMP JUMPDEST PUSH1 0x40 MLOAD DUP1 DUP3 DUP2 MSTORE PUSH1 0x20 ADD SWAP2 POP POP PUSH1 0x40 MLOAD DUP1 SWAP2 SUB SWAP1 RETURN JUMPDEST CALLVALUE DUP1 ISZERO PUSH2 0x36F JUMPI PUSH1 0x0 DUP1 REVERT JUMPDEST POP PUSH2 0x3A4 PUSH1 0x4 DUP1 CALLDATASIZE SUB DUP2 ADD SWAP1 DUP1 DUP1 CALLDATALOAD PUSH20 0xFFFFFFFFFFFFFFFFFFFFFFFFFFFFFFFFFFFFFFFF AND SWAP1 PUSH1 0x20 ADD SWAP1 SWAP3 SWAP2 SWAP1 POP POP POP PUSH2 0xE1B JUMP JUMPDEST STOP JUMPDEST CALLVALUE DUP1 ISZERO PUSH2 0x3B2 JUMPI PUSH1 0x0 DUP1 REVERT JUMPDEST POP PUSH2 0x3D1 PUSH1 0x4 DUP1 CALLDATASIZE SUB DUP2 ADD SWAP1 DUP1 DUP1 CALLDATALOAD SWAP1 PUSH1 0x20 ADD SWAP1 SWAP3 SWAP2 SWAP1 POP POP POP PUSH2 0x1020 JUMP JUMPDEST PUSH1 0x40 MLOAD DUP1 DUP3 ISZERO ISZERO ISZERO ISZERO DUP2 MSTORE PUSH1 0x20 ADD SWAP2 POP POP PUSH1 0x40 MLOAD DUP1 SWAP2 SUB SWAP1 RETURN JUMPDEST CALLVALUE DUP1 ISZERO PUSH2 0x3F7 JUMPI PUSH1 0x0 DUP1 REVERT JUMPDEST POP PUSH2 0x416 PUSH1 0x4 DUP1 CALLDATASIZE SUB DUP2 ADD SWAP1 DUP1 DUP1 CALLDATALOAD SWAP1 PUSH1 0x20 ADD SWAP1 SWAP3 SWAP2 SWAP1 POP POP POP PUSH2 0x1105 JUMP JUMPDEST PUSH1 0x40 MLOAD DUP1 DUP3 DUP2 MSTORE PUSH1 0x20 ADD SWAP2 POP POP PUSH1 0x40 MLOAD DUP1 SWAP2 SUB SWAP1 RETURN JUMPDEST CALLVALUE DUP1 ISZERO PUSH2 0x438 JUMPI PUSH1 0x0 DUP1 REVERT JUMPDEST POP PUSH2 0x457 PUSH1 0x4 DUP1 CALLDATASIZE SUB DUP2 ADD SWAP1 DUP1 DUP1 CALLDATALOAD SWAP1 PUSH1 0x20 ADD SWAP1 SWAP3 SWAP2 SWAP1 POP POP POP PUSH2 0x11D0 JUMP JUMPDEST PUSH1 0x40 MLOAD DUP1 DUP6 PUSH20 0xFFFFFFFFFFFFFFFFFFFFFFFFFFFFFFFFFFFFFFFF AND PUSH20 0xFFFFFFFFFFFFFFFFFFFFFFFFFFFFFFFFFFFFFFFF AND DUP2 MSTORE PUSH1 0x20 ADD DUP5 DUP2 MSTORE PUSH1 0x20 ADD DUP1 PUSH1 0x20 ADD DUP4 ISZERO ISZERO ISZERO ISZERO DUP2 MSTORE PUSH1 0x20 ADD DUP3 DUP2 SUB DUP3 MSTORE DUP5 DUP2 DUP2 MLOAD DUP2 MSTORE PUSH1 0x20 ADD SWAP2 POP DUP1 MLOAD SWAP1 PUSH1 0x20 ADD SWAP1 DUP1 DUP4 DUP4 PUSH1 0x0 JUMPDEST DUP4 DUP2 LT ISZERO PUSH2 0x4D9 JUMPI DUP1 DUP3 ADD MLOAD DUP2 DUP5 ADD MSTORE PUSH1 0x20 DUP2 ADD SWAP1 POP PUSH2 0x4BE JUMP JUMPDEST POP POP POP POP SWAP1 POP SWAP1 DUP2 ADD SWAP1 PUSH1 0x1F AND DUP1 ISZERO PUSH2 0x506 JUMPI DUP1 DUP3 SUB DUP1 MLOAD PUSH1 0x1 DUP4 PUSH1 0x20 SUB PUSH2 0x100 EXP SUB NOT AND DUP2 MSTORE PUSH1 0x20 ADD SWAP2 POP JUMPDEST POP SWAP6 POP POP POP POP POP POP PUSH1 0x40 MLOAD DUP1 SWAP2 SUB SWAP1 RETURN JUMPDEST CALLVALUE DUP1 ISZERO PUSH2 0x523 JUMPI PUSH1 0x0 DUP1 REVERT JUMPDEST POP PUSH2 0x52C PUSH2 0x12C5 JUMP JUMPDEST PUSH1 0x40 MLOAD DUP1 DUP1 PUSH1 0x20 ADD DUP3 DUP2 SUB DUP3 MSTORE DUP4 DUP2 DUP2 MLOAD DUP2 MSTORE PUSH1 0x20 ADD SWAP2 POP DUP1 MLOAD SWAP1 PUSH1 0x20 ADD SWAP1 PUSH1 0x20 MUL DUP1 DUP4 DUP4 PUSH1 0x0 JUMPDEST DUP4 DUP2 LT ISZERO PUSH2 0x56F JUMPI DUP1 DUP3 ADD MLOAD DUP2 DUP5 ADD MSTORE PUSH1 0x20 DUP2 ADD SWAP1 POP PUSH2 0x554 JUMP JUMPDEST POP POP POP POP SWAP1 POP ADD SWAP3 POP POP POP PUSH1 0x40 MLOAD DUP1 SWAP2 SUB SWAP1 RETURN JUMPDEST CALLVALUE DUP1 ISZERO PUSH2 0x58F JUMPI PUSH1 0x0 DUP1 REVERT JUMPDEST POP PUSH2 0x5D0 PUSH1 0x4 DUP1 CALLDATASIZE SUB DUP2 ADD SWAP1 DUP1 DUP1 CALLDATALOAD SWAP1 PUSH1 0x20 ADD SWAP1 SWAP3 SWAP2 SWAP1 DUP1 CALLDATALOAD SWAP1 PUSH1 0x20 ADD SWAP1 SWAP3 SWAP2 SWAP1 DUP1 CALLDATALOAD ISZERO ISZERO SWAP1 PUSH1 0x20 ADD SWAP1 SWAP3 SWAP2 SWAP1 DUP1 CALLDATALOAD ISZERO ISZERO SWAP1 PUSH1 0x20 ADD SWAP1 SWAP3 SWAP2 SWAP1 POP POP POP PUSH2 0x1353 JUMP JUMPDEST PUSH1 0x40 MLOAD DUP1 DUP1 PUSH1 0x20 ADD DUP3 DUP2 SUB DUP3 MSTORE DUP4 DUP2 DUP2 MLOAD DUP2 MSTORE PUSH1 0x20 ADD SWAP2 POP DUP1 MLOAD SWAP1 PUSH1 0x20 ADD SWAP1 PUSH1 0x20 MUL DUP1 DUP4 DUP4 PUSH1 0x0 JUMPDEST DUP4 DUP2 LT ISZERO PUSH2 0x613 JUMPI DUP1 DUP3 ADD MLOAD DUP2 DUP5 ADD MSTORE PUSH1 0x20 DUP2 ADD SWAP1 POP PUSH2 0x5F8 JUMP JUMPDEST POP POP POP POP SWAP1 POP ADD SWAP3 POP POP POP PUSH1 0x40 MLOAD DUP1 SWAP2 SUB SWAP1 RETURN JUMPDEST CALLVALUE DUP1 ISZERO PUSH2 0x633 JUMPI PUSH1 0x0 DUP1 REVERT JUMPDEST POP PUSH2 0x652 PUSH1 0x4 DUP1 CALLDATASIZE SUB DUP2 ADD SWAP1 DUP1 DUP1 CALLDATALOAD SWAP1 PUSH1 0x20 ADD SWAP1 SWAP3 SWAP2 SWAP1 POP POP POP PUSH2 0x14C4 JUMP JUMPDEST PUSH1 0x40 MLOAD DUP1 DUP1 PUSH1 0x20 ADD DUP3 DUP2 SUB DUP3 MSTORE DUP4 DUP2 DUP2 MLOAD DUP2 MSTORE PUSH1 0x20 ADD SWAP2 POP DUP1 MLOAD SWAP1 PUSH1 0x20 ADD SWAP1 PUSH1 0x20 MUL DUP1 DUP4 DUP4 PUSH1 0x0 JUMPDEST DUP4 DUP2 LT ISZERO PUSH2 0x695 JUMPI DUP1 DUP3 ADD MLOAD DUP2 DUP5 ADD MSTORE PUSH1 0x20 DUP2 ADD SWAP1 POP PUSH2 0x67A JUMP JUMPDEST POP POP POP POP SWAP1 POP ADD SWAP3 POP POP POP PUSH1 0x40 MLOAD DUP1 SWAP2 SUB SWAP1 RETURN JUMPDEST CALLVALUE DUP1 ISZERO PUSH2 0x6B5 JUMPI PUSH1 0x0 DUP1 REVERT JUMPDEST POP PUSH2 0x6BE PUSH2 0x1701 JUMP JUMPDEST PUSH1 0x40 MLOAD DUP1 DUP3 DUP2 MSTORE PUSH1 0x20 ADD SWAP2 POP POP PUSH1 0x40 MLOAD DUP1 SWAP2 SUB SWAP1 RETURN JUMPDEST CALLVALUE DUP1 ISZERO PUSH2 0x6E0 JUMPI PUSH1 0x0 DUP1 REVERT JUMPDEST POP PUSH2 0x6FF PUSH1 0x4 DUP1 CALLDATASIZE SUB DUP2 ADD SWAP1 DUP1 DUP1 CALLDATALOAD SWAP1 PUSH1 0x20 ADD SWAP1 SWAP3 SWAP2 SWAP1 POP POP POP PUSH2 0x1707 JUMP JUMPDEST STOP JUMPDEST CALLVALUE DUP1 ISZERO PUSH2 0x70D JUMPI PUSH1 0x0 DUP1 REVERT JUMPDEST POP PUSH2 0x72C PUSH1 0x4 DUP1 CALLDATASIZE SUB DUP2 ADD SWAP1 DUP1 DUP1 CALLDATALOAD SWAP1 PUSH1 0x20 ADD SWAP1 SWAP3 SWAP2 SWAP1 POP POP POP PUSH2 0x17C1 JUMP JUMPDEST STOP JUMPDEST CALLVALUE DUP1 ISZERO PUSH2 0x73A JUMPI PUSH1 0x0 DUP1 REVERT JUMPDEST POP PUSH2 0x7BF PUSH1 0x4 DUP1 CALLDATASIZE SUB DUP2 ADD SWAP1 DUP1 DUP1 CALLDATALOAD PUSH20 0xFFFFFFFFFFFFFFFFFFFFFFFFFFFFFFFFFFFFFFFF AND SWAP1 PUSH1 0x20 ADD SWAP1 SWAP3 SWAP2 SWAP1 DUP1 CALLDATALOAD SWAP1 PUSH1 0x20 ADD SWAP1 SWAP3 SWAP2 SWAP1 DUP1 CALLDATALOAD SWAP1 PUSH1 0x20 ADD SWAP1 DUP3 ADD DUP1 CALLDATALOAD SWAP1 PUSH1 0x20 ADD SWAP1 DUP1 DUP1 PUSH1 0x1F ADD PUSH1 0x20 DUP1 SWAP2 DIV MUL PUSH1 0x20 ADD PUSH1 0x40 MLOAD SWAP1 DUP2 ADD PUSH1 0x40 MSTORE DUP1 SWAP4 SWAP3 SWAP2 SWAP1 DUP2 DUP2 MSTORE PUSH1 0x20 ADD DUP4 DUP4 DUP1 DUP3 DUP5 CALLDATACOPY DUP3 ADD SWAP2 POP POP POP POP POP POP SWAP2 SWAP3 SWAP2 SWAP3 SWAP1 POP POP POP PUSH2 0x199E JUMP JUMPDEST PUSH1 0x40 MLOAD DUP1 DUP3 DUP2 MSTORE PUSH1 0x20 ADD SWAP2 POP POP PUSH1 0x40 MLOAD DUP1 SWAP2 SUB SWAP1 RETURN JUMPDEST CALLVALUE DUP1 ISZERO PUSH2 0x7E1 JUMPI PUSH1 0x0 DUP1 REVERT JUMPDEST POP PUSH2 0x7EA PUSH2 0x19BD JUMP JUMPDEST PUSH1 0x40 MLOAD DUP1 DUP3 DUP2 MSTORE PUSH1 0x20 ADD SWAP2 POP POP PUSH1 0x40 MLOAD DUP1 SWAP2 SUB SWAP1 RETURN JUMPDEST CALLVALUE DUP1 ISZERO PUSH2 0x80C JUMPI PUSH1 0x0 DUP1 REVERT JUMPDEST POP PUSH2 0x815 PUSH2 0x19C2 JUMP JUMPDEST PUSH1 0x40 MLOAD DUP1 DUP3 DUP2 MSTORE PUSH1 0x20 ADD SWAP2 POP POP PUSH1 0x40 MLOAD DUP1 SWAP2 SUB SWAP1 RETURN JUMPDEST CALLVALUE DUP1 ISZERO PUSH2 0x837 JUMPI PUSH1 0x0 DUP1 REVERT JUMPDEST POP PUSH2 0x88C PUSH1 0x4 DUP1 CALLDATASIZE SUB DUP2 ADD SWAP1 DUP1 DUP1 CALLDATALOAD PUSH20 0xFFFFFFFFFFFFFFFFFFFFFFFFFFFFFFFFFFFFFFFF AND SWAP1 PUSH1 0x20 ADD SWAP1 SWAP3 SWAP2 SWAP1 DUP1 CALLDATALOAD PUSH20 0xFFFFFFFFFFFFFFFFFFFFFFFFFFFFFFFFFFFFFFFF AND SWAP1 PUSH1 0x20 ADD SWAP1 SWAP3 SWAP2 SWAP1 POP POP POP PUSH2 0x19C8 JUMP JUMPDEST STOP JUMPDEST CALLVALUE DUP1 ISZERO PUSH2 0x89A JUMPI PUSH1 0x0 DUP1 REVERT JUMPDEST POP PUSH2 0x8B9 PUSH1 0x4 DUP1 CALLDATASIZE SUB DUP2 ADD SWAP1 DUP1 DUP1 CALLDATALOAD SWAP1 PUSH1 0x20 ADD SWAP1 SWAP3 SWAP2 SWAP1 POP POP POP PUSH2 0x1CDD JUMP JUMPDEST STOP JUMPDEST PUSH1 0x3 DUP2 DUP2 SLOAD DUP2 LT ISZERO ISZERO PUSH2 0x8CA JUMPI INVALID JUMPDEST SWAP1 PUSH1 0x0 MSTORE PUSH1 0x20 PUSH1 0x0 KECCAK256 ADD PUSH1 0x0 SWAP2 POP SLOAD SWAP1 PUSH2 0x100 EXP SWAP1 DIV PUSH20 0xFFFFFFFFFFFFFFFFFFFFFFFFFFFFFFFFFFFFFFFF AND DUP2 JUMP JUMPDEST PUSH1 0x0 ADDRESS PUSH20 0xFFFFFFFFFFFFFFFFFFFFFFFFFFFFFFFFFFFFFFFF AND CALLER PUSH20 0xFFFFFFFFFFFFFFFFFFFFFFFFFFFFFFFFFFFFFFFF AND EQ ISZERO ISZERO PUSH2 0x935 JUMPI PUSH1 0x0 DUP1 REVERT JUMPDEST DUP2 PUSH1 0x2 PUSH1 0x0 DUP3 PUSH20 0xFFFFFFFFFFFFFFFFFFFFFFFFFFFFFFFFFFFFFFFF AND PUSH20 0xFFFFFFFFFFFFFFFFFFFFFFFFFFFFFFFFFFFFFFFF AND DUP2 MSTORE PUSH1 0x20 ADD SWAP1 DUP2 MSTORE PUSH1 0x20 ADD PUSH1 0x0 KECCAK256 PUSH1 0x0 SWAP1 SLOAD SWAP1 PUSH2 0x100 EXP SWAP1 DIV PUSH1 0xFF AND ISZERO ISZERO PUSH2 0x98E JUMPI PUSH1 0x0 DUP1 REVERT JUMPDEST PUSH1 0x0 PUSH1 0x2 PUSH1 0x0 DUP6 PUSH20 0xFFFFFFFFFFFFFFFFFFFFFFFFFFFFFFFFFFFFFFFF AND PUSH20 0xFFFFFFFFFFFFFFFFFFFFFFFFFFFFFFFFFFFFFFFF AND DUP2 MSTORE PUSH1 0x20 ADD SWAP1 DUP2 MSTORE PUSH1 0x20 ADD PUSH1 0x0 KECCAK256 PUSH1 0x0 PUSH2 0x100 EXP DUP2 SLOAD DUP2 PUSH1 0xFF MUL NOT AND SWAP1 DUP4 ISZERO ISZERO MUL OR SWAP1 SSTORE POP PUSH1 0x0 SWAP2 POP JUMPDEST PUSH1 0x1 PUSH1 0x3 DUP1 SLOAD SWAP1 POP SUB DUP3 LT ISZERO PUSH2 0xB13 JUMPI DUP3 PUSH20 0xFFFFFFFFFFFFFFFFFFFFFFFFFFFFFFFFFFFFFFFF AND PUSH1 0x3 DUP4 DUP2 SLOAD DUP2 LT ISZERO ISZERO PUSH2 0xA21 JUMPI INVALID JUMPDEST SWAP1 PUSH1 0x0 MSTORE PUSH1 0x20 PUSH1 0x0 KECCAK256 ADD PUSH1 0x0 SWAP1 SLOAD SWAP1 PUSH2 0x100 EXP SWAP1 DIV PUSH20 0xFFFFFFFFFFFFFFFFFFFFFFFFFFFFFFFFFFFFFFFF AND PUSH20 0xFFFFFFFFFFFFFFFFFFFFFFFFFFFFFFFFFFFFFFFF AND EQ ISZERO PUSH2 0xB06 JUMPI PUSH1 0x3 PUSH1 0x1 PUSH1 0x3 DUP1 SLOAD SWAP1 POP SUB DUP2 SLOAD DUP2 LT ISZERO ISZERO PUSH2 0xA7F JUMPI INVALID JUMPDEST SWAP1 PUSH1 0x0 MSTORE PUSH1 0x20 PUSH1 0x0 KECCAK256 ADD PUSH1 0x0 SWAP1 SLOAD SWAP1 PUSH2 0x100 EXP SWAP1 DIV PUSH20 0xFFFFFFFFFFFFFFFFFFFFFFFFFFFFFFFFFFFFFFFF AND PUSH1 0x3 DUP4 DUP2 SLOAD DUP2 LT ISZERO ISZERO PUSH2 0xAB9 JUMPI INVALID JUMPDEST SWAP1 PUSH1 0x0 MSTORE PUSH1 0x20 PUSH1 0x0 KECCAK256 ADD PUSH1 0x0 PUSH2 0x100 EXP DUP2 SLOAD DUP2 PUSH20 0xFFFFFFFFFFFFFFFFFFFFFFFFFFFFFFFFFFFFFFFF MUL NOT AND SWAP1 DUP4 PUSH20 0xFFFFFFFFFFFFFFFFFFFFFFFFFFFFFFFFFFFFFFFF AND MUL OR SWAP1 SSTORE POP PUSH2 0xB13 JUMP JUMPDEST DUP2 DUP1 PUSH1 0x1 ADD SWAP3 POP POP PUSH2 0x9EB JUMP JUMPDEST PUSH1 0x1 PUSH1 0x3 DUP2 DUP2 DUP1 SLOAD SWAP1 POP SUB SWAP2 POP DUP2 PUSH2 0xB2B SWAP2 SWAP1 PUSH2 0x20FE JUMP JUMPDEST POP PUSH1 0x3 DUP1 SLOAD SWAP1 POP PUSH1 0x4 SLOAD GT ISZERO PUSH2 0xB4A JUMPI PUSH2 0xB49 PUSH1 0x3 DUP1 SLOAD SWAP1 POP PUSH2 0x1707 JUMP JUMPDEST JUMPDEST DUP3 PUSH20 0xFFFFFFFFFFFFFFFFFFFFFFFFFFFFFFFFFFFFFFFF AND PUSH32 0x8001553A916EF2F495D26A907CC54D96ED840D7BDA71E73194BF5A9DF7A76B90 PUSH1 0x40 MLOAD PUSH1 0x40 MLOAD DUP1 SWAP2 SUB SWAP1 LOG2 POP POP POP JUMP JUMPDEST CALLER PUSH1 0x2 PUSH1 0x0 DUP3 PUSH20 0xFFFFFFFFFFFFFFFFFFFFFFFFFFFFFFFFFFFFFFFF AND PUSH20 0xFFFFFFFFFFFFFFFFFFFFFFFFFFFFFFFFFFFFFFFF AND DUP2 MSTORE PUSH1 0x20 ADD SWAP1 DUP2 MSTORE PUSH1 0x20 ADD PUSH1 0x0 KECCAK256 PUSH1 0x0 SWAP1 SLOAD SWAP1 PUSH2 0x100 EXP SWAP1 DIV PUSH1 0xFF AND ISZERO ISZERO PUSH2 0xBEB JUMPI PUSH1 0x0 DUP1 REVERT JUMPDEST DUP2 CALLER PUSH1 0x1 PUSH1 0x0 DUP4 DUP2 MSTORE PUSH1 0x20 ADD SWAP1 DUP2 MSTORE PUSH1 0x20 ADD PUSH1 0x0 KECCAK256 PUSH1 0x0 DUP3 PUSH20 0xFFFFFFFFFFFFFFFFFFFFFFFFFFFFFFFFFFFFFFFF AND PUSH20 0xFFFFFFFFFFFFFFFFFFFFFFFFFFFFFFFFFFFFFFFF AND DUP2 MSTORE PUSH1 0x20 ADD SWAP1 DUP2 MSTORE PUSH1 0x20 ADD PUSH1 0x0 KECCAK256 PUSH1 0x0 SWAP1 SLOAD SWAP1 PUSH2 0x100 EXP SWAP1 DIV PUSH1 0xFF AND ISZERO ISZERO PUSH2 0xC56 JUMPI PUSH1 0x0 DUP1 REVERT JUMPDEST DUP4 PUSH1 0x0 DUP1 DUP3 DUP2 MSTORE PUSH1 0x20 ADD SWAP1 DUP2 MSTORE PUSH1 0x20 ADD PUSH1 0x0 KECCAK256 PUSH1 0x3 ADD PUSH1 0x0 SWAP1 SLOAD SWAP1 PUSH2 0x100 EXP SWAP1 DIV PUSH1 0xFF AND ISZERO ISZERO ISZERO PUSH2 0xC86 JUMPI PUSH1 0x0 DUP1 REVERT JUMPDEST PUSH1 0x0 PUSH1 0x1 PUSH1 0x0 DUP8 DUP2 MSTORE PUSH1 0x20 ADD SWAP1 DUP2 MSTORE PUSH1 0x20 ADD PUSH1 0x0 KECCAK256 PUSH1 0x0 CALLER PUSH20 0xFFFFFFFFFFFFFFFFFFFFFFFFFFFFFFFFFFFFFFFF AND PUSH20 0xFFFFFFFFFFFFFFFFFFFFFFFFFFFFFFFFFFFFFFFF AND DUP2 MSTORE PUSH1 0x20 ADD SWAP1 DUP2 MSTORE PUSH1 0x20 ADD PUSH1 0x0 KECCAK256 PUSH1 0x0 PUSH2 0x100 EXP DUP2 SLOAD DUP2 PUSH1 0xFF MUL NOT AND SWAP1 DUP4 ISZERO ISZERO MUL OR SWAP1 SSTORE POP DUP5 CALLER PUSH20 0xFFFFFFFFFFFFFFFFFFFFFFFFFFFFFFFFFFFFFFFF AND PUSH32 0xF6A317157440607F36269043EB55F1287A5A19BA2216AFEAB88CD46CBCFB88E9 PUSH1 0x40 MLOAD PUSH1 0x40 MLOAD DUP1 SWAP2 SUB SWAP1 LOG3 POP POP POP POP POP JUMP JUMPDEST PUSH1 0x2 PUSH1 0x20 MSTORE DUP1 PUSH1 0x0 MSTORE PUSH1 0x40 PUSH1 0x0 KECCAK256 PUSH1 0x0 SWAP2 POP SLOAD SWAP1 PUSH2 0x100 EXP SWAP1 DIV PUSH1 0xFF AND DUP2 JUMP JUMPDEST PUSH1 0x1 PUSH1 0x20 MSTORE DUP2 PUSH1 0x0 MSTORE PUSH1 0x40 PUSH1 0x0 KECCAK256 PUSH1 0x20 MSTORE DUP1 PUSH1 0x0 MSTORE PUSH1 0x40 PUSH1 0x0 KECCAK256 PUSH1 0x0 SWAP2 POP SWAP2 POP SWAP1 SLOAD SWAP1 PUSH2 0x100 EXP SWAP1 DIV PUSH1 0xFF AND DUP2 JUMP JUMPDEST PUSH1 0x0 DUP1 PUSH1 0x0 SWAP1 POP JUMPDEST PUSH1 0x5 SLOAD DUP2 LT ISZERO PUSH2 0xE14 JUMPI DUP4 DUP1 ISZERO PUSH2 0xDC8 JUMPI POP PUSH1 0x0 DUP1 DUP3 DUP2 MSTORE PUSH1 0x20 ADD SWAP1 DUP2 MSTORE PUSH1 0x20 ADD PUSH1 0x0 KECCAK256 PUSH1 0x3 ADD PUSH1 0x0 SWAP1 SLOAD SWAP1 PUSH2 0x100 EXP SWAP1 DIV PUSH1 0xFF AND ISZERO JUMPDEST DUP1 PUSH2 0xDFB JUMPI POP DUP3 DUP1 ISZERO PUSH2 0xDFA JUMPI POP PUSH1 0x0 DUP1 DUP3 DUP2 MSTORE PUSH1 0x20 ADD SWAP1 DUP2 MSTORE PUSH1 0x20 ADD PUSH1 0x0 KECCAK256 PUSH1 0x3 ADD PUSH1 0x0 SWAP1 SLOAD SWAP1 PUSH2 0x100 EXP SWAP1 DIV PUSH1 0xFF AND JUMPDEST JUMPDEST ISZERO PUSH2 0xE07 JUMPI PUSH1 0x1 DUP3 ADD SWAP2 POP JUMPDEST DUP1 DUP1 PUSH1 0x1 ADD SWAP2 POP POP PUSH2 0xD91 JUMP JUMPDEST POP SWAP3 SWAP2 POP POP JUMP JUMPDEST ADDRESS PUSH20 0xFFFFFFFFFFFFFFFFFFFFFFFFFFFFFFFFFFFFFFFF AND CALLER PUSH20 0xFFFFFFFFFFFFFFFFFFFFFFFFFFFFFFFFFFFFFFFF AND EQ ISZERO ISZERO PUSH2 0xE55 JUMPI PUSH1 0x0 DUP1 REVERT JUMPDEST DUP1 PUSH1 0x2 PUSH1 0x0 DUP3 PUSH20 0xFFFFFFFFFFFFFFFFFFFFFFFFFFFFFFFFFFFFFFFF AND PUSH20 0xFFFFFFFFFFFFFFFFFFFFFFFFFFFFFFFFFFFFFFFF AND DUP2 MSTORE PUSH1 0x20 ADD SWAP1 DUP2 MSTORE PUSH1 0x20 ADD PUSH1 0x0 KECCAK256 PUSH1 0x0 SWAP1 SLOAD SWAP1 PUSH2 0x100 EXP SWAP1 DIV PUSH1 0xFF AND ISZERO ISZERO ISZERO PUSH2 0xEAF JUMPI PUSH1 0x0 DUP1 REVERT JUMPDEST DUP2 PUSH1 0x0 DUP2 PUSH20 0xFFFFFFFFFFFFFFFFFFFFFFFFFFFFFFFFFFFFFFFF AND EQ ISZERO ISZERO ISZERO PUSH2 0xED6 JUMPI PUSH1 0x0 DUP1 REVERT JUMPDEST PUSH1 0x1 PUSH1 0x3 DUP1 SLOAD SWAP1 POP ADD PUSH1 0x4 SLOAD PUSH1 0x32 DUP3 GT ISZERO DUP1 ISZERO PUSH2 0xEF3 JUMPI POP DUP2 DUP2 GT ISZERO JUMPDEST DUP1 ISZERO PUSH2 0xF00 JUMPI POP PUSH1 0x0 DUP2 EQ ISZERO JUMPDEST DUP1 ISZERO PUSH2 0xF0D JUMPI POP PUSH1 0x0 DUP3 EQ ISZERO JUMPDEST ISZERO ISZERO PUSH2 0xF18 JUMPI PUSH1 0x0 DUP1 REVERT JUMPDEST PUSH1 0x1 PUSH1 0x2 PUSH1 0x0 DUP8 PUSH20 0xFFFFFFFFFFFFFFFFFFFFFFFFFFFFFFFFFFFFFFFF AND PUSH20 0xFFFFFFFFFFFFFFFFFFFFFFFFFFFFFFFFFFFFFFFF AND DUP2 MSTORE PUSH1 0x20 ADD SWAP1 DUP2 MSTORE PUSH1 0x20 ADD PUSH1 0x0 KECCAK256 PUSH1 0x0 PUSH2 0x100 EXP DUP2 SLOAD DUP2 PUSH1 0xFF MUL NOT AND SWAP1 DUP4 ISZERO ISZERO MUL OR SWAP1 SSTORE POP PUSH1 0x3 DUP6 SWAP1 DUP1 PUSH1 0x1 DUP2 SLOAD ADD DUP1 DUP3 SSTORE DUP1 SWAP2 POP POP SWAP1 PUSH1 0x1 DUP3 SUB SWAP1 PUSH1 0x0 MSTORE PUSH1 0x20 PUSH1 0x0 KECCAK256 ADD PUSH1 0x0 SWAP1 SWAP2 SWAP3 SWAP1 SWAP2 SWAP1 SWAP2 PUSH2 0x100 EXP DUP2 SLOAD DUP2 PUSH20 0xFFFFFFFFFFFFFFFFFFFFFFFFFFFFFFFFFFFFFFFF MUL NOT AND SWAP1 DUP4 PUSH20 0xFFFFFFFFFFFFFFFFFFFFFFFFFFFFFFFFFFFFFFFF AND MUL OR SWAP1 SSTORE POP POP DUP5 PUSH20 0xFFFFFFFFFFFFFFFFFFFFFFFFFFFFFFFFFFFFFFFF AND PUSH32 0xF39E6E1EB0EDCF53C221607B54B00CD28F3196FED0A24994DC308B8F611B682D PUSH1 0x40 MLOAD PUSH1 0x40 MLOAD DUP1 SWAP2 SUB SWAP1 LOG2 POP POP POP POP POP JUMP JUMPDEST PUSH1 0x0 DUP1 PUSH1 0x0 DUP1 SWAP2 POP PUSH1 0x0 SWAP1 POP JUMPDEST PUSH1 0x3 DUP1 SLOAD SWAP1 POP DUP2 LT ISZERO PUSH2 0x10FD JUMPI PUSH1 0x1 PUSH1 0x0 DUP6 DUP2 MSTORE PUSH1 0x20 ADD SWAP1 DUP2 MSTORE PUSH1 0x20 ADD PUSH1 0x0 KECCAK256 PUSH1 0x0 PUSH1 0x3 DUP4 DUP2 SLOAD DUP2 LT ISZERO ISZERO PUSH2 0x105E JUMPI INVALID JUMPDEST SWAP1 PUSH1 0x0 MSTORE PUSH1 0x20 PUSH1 0x0 KECCAK256 ADD PUSH1 0x0 SWAP1 SLOAD SWAP1 PUSH2 0x100 EXP SWAP1 DIV PUSH20 0xFFFFFFFFFFFFFFFFFFFFFFFFFFFFFFFFFFFFFFFF AND PUSH20 0xFFFFFFFFFFFFFFFFFFFFFFFFFFFFFFFFFFFFFFFF AND PUSH20 0xFFFFFFFFFFFFFFFFFFFFFFFFFFFFFFFFFFFFFFFF AND DUP2 MSTORE PUSH1 0x20 ADD SWAP1 DUP2 MSTORE PUSH1 0x20 ADD PUSH1 0x0 KECCAK256 PUSH1 0x0 SWAP1 SLOAD SWAP1 PUSH2 0x100 EXP SWAP1 DIV PUSH1 0xFF AND ISZERO PUSH2 0x10DD JUMPI PUSH1 0x1 DUP3 ADD SWAP2 POP JUMPDEST PUSH1 0x4 SLOAD DUP3 EQ ISZERO PUSH2 0x10F0 JUMPI PUSH1 0x1 SWAP3 POP PUSH2 0x10FE JUMP JUMPDEST DUP1 DUP1 PUSH1 0x1 ADD SWAP2 POP POP PUSH2 0x102D JUMP JUMPDEST JUMPDEST POP POP SWAP2 SWAP1 POP JUMP JUMPDEST PUSH1 0x0 DUP1 PUSH1 0x0 SWAP1 POP JUMPDEST PUSH1 0x3 DUP1 SLOAD SWAP1 POP DUP2 LT ISZERO PUSH2 0x11CA JUMPI PUSH1 0x1 PUSH1 0x0 DUP5 DUP2 MSTORE PUSH1 0x20 ADD SWAP1 DUP2 MSTORE PUSH1 0x20 ADD PUSH1 0x0 KECCAK256 PUSH1 0x0 PUSH1 0x3 DUP4 DUP2 SLOAD DUP2 LT ISZERO ISZERO PUSH2 0x113E JUMPI INVALID JUMPDEST SWAP1 PUSH1 0x0 MSTORE PUSH1 0x20 PUSH1 0x0 KECCAK256 ADD PUSH1 0x0 SWAP1 SLOAD SWAP1 PUSH2 0x100 EXP SWAP1 DIV PUSH20 0xFFFFFFFFFFFFFFFFFFFFFFFFFFFFFFFFFFFFFFFF AND PUSH20 0xFFFFFFFFFFFFFFFFFFFFFFFFFFFFFFFFFFFFFFFF AND PUSH20 0xFFFFFFFFFFFFFFFFFFFFFFFFFFFFFFFFFFFFFFFF AND DUP2 MSTORE PUSH1 0x20 ADD SWAP1 DUP2 MSTORE PUSH1 0x20 ADD PUSH1 0x0 KECCAK256 PUSH1 0x0 SWAP1 SLOAD SWAP1 PUSH2 0x100 EXP SWAP1 DIV PUSH1 0xFF AND ISZERO PUSH2 0x11BD JUMPI PUSH1 0x1 DUP3 ADD SWAP2 POP JUMPDEST DUP1 DUP1 PUSH1 0x1 ADD SWAP2 POP POP PUSH2 0x110D JUMP JUMPDEST POP SWAP2 SWAP1 POP JUMP JUMPDEST PUSH1 0x0 PUSH1 0x20 MSTORE DUP1 PUSH1 0x0 MSTORE PUSH1 0x40 PUSH1 0x0 KECCAK256 PUSH1 0x0 SWAP2 POP SWAP1 POP DUP1 PUSH1 0x0 ADD PUSH1 0x0 SWAP1 SLOAD SWAP1 PUSH2 0x100 EXP SWAP1 DIV PUSH20 0xFFFFFFFFFFFFFFFFFFFFFFFFFFFFFFFFFFFFFFFF AND SWAP1 DUP1 PUSH1 0x1 ADD SLOAD SWAP1 DUP1 PUSH1 0x2 ADD DUP1 SLOAD PUSH1 0x1 DUP2 PUSH1 0x1 AND ISZERO PUSH2 0x100 MUL SUB AND PUSH1 0x2 SWAP1 DIV DUP1 PUSH1 0x1F ADD PUSH1 0x20 DUP1 SWAP2 DIV MUL PUSH1 0x20 ADD PUSH1 0x40 MLOAD SWAP1 DUP2 ADD PUSH1 0x40 MSTORE DUP1 SWAP3 SWAP2 SWAP1 DUP2 DUP2 MSTORE PUSH1 0x20 ADD DUP3 DUP1 SLOAD PUSH1 0x1 DUP2 PUSH1 0x1 AND ISZERO PUSH2 0x100 MUL SUB AND PUSH1 0x2 SWAP1 DIV DUP1 ISZERO PUSH2 0x12A8 JUMPI DUP1 PUSH1 0x1F LT PUSH2 0x127D JUMPI PUSH2 0x100 DUP1 DUP4 SLOAD DIV MUL DUP4 MSTORE SWAP2 PUSH1 0x20 ADD SWAP2 PUSH2 0x12A8 JUMP JUMPDEST DUP3 ADD SWAP2 SWAP1 PUSH1 0x0 MSTORE PUSH1 0x20 PUSH1 0x0 KECCAK256 SWAP1 JUMPDEST DUP2 SLOAD DUP2 MSTORE SWAP1 PUSH1 0x1 ADD SWAP1 PUSH1 0x20 ADD DUP1 DUP4 GT PUSH2 0x128B JUMPI DUP3 SWAP1 SUB PUSH1 0x1F AND DUP3 ADD SWAP2 JUMPDEST POP POP POP POP POP SWAP1 DUP1 PUSH1 0x3 ADD PUSH1 0x0 SWAP1 SLOAD SWAP1 PUSH2 0x100 EXP SWAP1 DIV PUSH1 0xFF AND SWAP1 POP DUP5 JUMP JUMPDEST PUSH1 0x60 PUSH1 0x3 DUP1 SLOAD DUP1 PUSH1 0x20 MUL PUSH1 0x20 ADD PUSH1 0x40 MLOAD SWAP1 DUP2 ADD PUSH1 0x40 MSTORE DUP1 SWAP3 SWAP2 SWAP1 DUP2 DUP2 MSTORE PUSH1 0x20 ADD DUP3 DUP1 SLOAD DUP1 ISZERO PUSH2 0x1349 JUMPI PUSH1 0x20 MUL DUP3 ADD SWAP2 SWAP1 PUSH1 0x0 MSTORE PUSH1 0x20 PUSH1 0x0 KECCAK256 SWAP1 JUMPDEST DUP2 PUSH1 0x0 SWAP1 SLOAD SWAP1 PUSH2 0x100 EXP SWAP1 DIV PUSH20 0xFFFFFFFFFFFFFFFFFFFFFFFFFFFFFFFFFFFFFFFF AND PUSH20 0xFFFFFFFFFFFFFFFFFFFFFFFFFFFFFFFFFFFFFFFF AND DUP2 MSTORE PUSH1 0x20 ADD SWAP1 PUSH1 0x1 ADD SWAP1 DUP1 DUP4 GT PUSH2 0x12FF JUMPI JUMPDEST POP POP POP POP POP SWAP1 POP SWAP1 JUMP JUMPDEST PUSH1 0x60 DUP1 PUSH1 0x0 DUP1 PUSH1 0x5 SLOAD PUSH1 0x40 MLOAD SWAP1 DUP1 DUP3 MSTORE DUP1 PUSH1 0x20 MUL PUSH1 0x20 ADD DUP3 ADD PUSH1 0x40 MSTORE DUP1 ISZERO PUSH2 0x138A JUMPI DUP2 PUSH1 0x20 ADD PUSH1 0x20 DUP3 MUL DUP1 CODESIZE DUP4 CODECOPY DUP1 DUP3 ADD SWAP2 POP POP SWAP1 POP JUMPDEST POP SWAP3 POP PUSH1 0x0 SWAP2 POP PUSH1 0x0 SWAP1 POP JUMPDEST PUSH1 0x5 SLOAD DUP2 LT ISZERO PUSH2 0x1436 JUMPI DUP6 DUP1 ISZERO PUSH2 0x13CD JUMPI POP PUSH1 0x0 DUP1 DUP3 DUP2 MSTORE PUSH1 0x20 ADD SWAP1 DUP2 MSTORE PUSH1 0x20 ADD PUSH1 0x0 KECCAK256 PUSH1 0x3 ADD PUSH1 0x0 SWAP1 SLOAD SWAP1 PUSH2 0x100 EXP SWAP1 DIV PUSH1 0xFF AND ISZERO JUMPDEST DUP1 PUSH2 0x1400 JUMPI POP DUP5 DUP1 ISZERO PUSH2 0x13FF JUMPI POP PUSH1 0x0 DUP1 DUP3 DUP2 MSTORE PUSH1 0x20 ADD SWAP1 DUP2 MSTORE PUSH1 0x20 ADD PUSH1 0x0 KECCAK256 PUSH1 0x3 ADD PUSH1 0x0 SWAP1 SLOAD SWAP1 PUSH2 0x100 EXP SWAP1 DIV PUSH1 0xFF AND JUMPDEST JUMPDEST ISZERO PUSH2 0x1429 JUMPI DUP1 DUP4 DUP4 DUP2 MLOAD DUP2 LT ISZERO ISZERO PUSH2 0x1414 JUMPI INVALID JUMPDEST SWAP1 PUSH1 0x20 ADD SWAP1 PUSH1 0x20 MUL ADD DUP2 DUP2 MSTORE POP POP PUSH1 0x1 DUP3 ADD SWAP2 POP JUMPDEST DUP1 DUP1 PUSH1 0x1 ADD SWAP2 POP POP PUSH2 0x1396 JUMP JUMPDEST DUP8 DUP8 SUB PUSH1 0x40 MLOAD SWAP1 DUP1 DUP3 MSTORE DUP1 PUSH1 0x20 MUL PUSH1 0x20 ADD DUP3 ADD PUSH1 0x40 MSTORE DUP1 ISZERO PUSH2 0x1467 JUMPI DUP2 PUSH1 0x20 ADD PUSH1 0x20 DUP3 MUL DUP1 CODESIZE DUP4 CODECOPY DUP1 DUP3 ADD SWAP2 POP POP SWAP1 POP JUMPDEST POP SWAP4 POP DUP8 SWAP1 POP JUMPDEST DUP7 DUP2 LT ISZERO PUSH2 0x14B9 JUMPI DUP3 DUP2 DUP2 MLOAD DUP2 LT ISZERO ISZERO PUSH2 0x1484 JUMPI INVALID JUMPDEST SWAP1 PUSH1 0x20 ADD SWAP1 PUSH1 0x20 MUL ADD MLOAD DUP5 DUP10 DUP4 SUB DUP2 MLOAD DUP2 LT ISZERO ISZERO PUSH2 0x149E JUMPI INVALID JUMPDEST SWAP1 PUSH1 0x20 ADD SWAP1 PUSH1 0x20 MUL ADD DUP2 DUP2 MSTORE POP POP DUP1 DUP1 PUSH1 0x1 ADD SWAP2 POP POP PUSH2 0x146E JUMP JUMPDEST POP POP POP SWAP5 SWAP4 POP POP POP POP JUMP JUMPDEST PUSH1 0x60 DUP1 PUSH1 0x0 DUP1 PUSH1 0x3 DUP1 SLOAD SWAP1 POP PUSH1 0x40 MLOAD SWAP1 DUP1 DUP3 MSTORE DUP1 PUSH1 0x20 MUL PUSH1 0x20 ADD DUP3 ADD PUSH1 0x40 MSTORE DUP1 ISZERO PUSH2 0x14FE JUMPI DUP2 PUSH1 0x20 ADD PUSH1 0x20 DUP3 MUL DUP1 CODESIZE DUP4 CODECOPY DUP1 DUP3 ADD SWAP2 POP POP SWAP1 POP JUMPDEST POP SWAP3 POP PUSH1 0x0 SWAP2 POP PUSH1 0x0 SWAP1 POP JUMPDEST PUSH1 0x3 DUP1 SLOAD SWAP1 POP DUP2 LT ISZERO PUSH2 0x164B JUMPI PUSH1 0x1 PUSH1 0x0 DUP7 DUP2 MSTORE PUSH1 0x20 ADD SWAP1 DUP2 MSTORE PUSH1 0x20 ADD PUSH1 0x0 KECCAK256 PUSH1 0x0 PUSH1 0x3 DUP4 DUP2 SLOAD DUP2 LT ISZERO ISZERO PUSH2 0x153B JUMPI INVALID JUMPDEST SWAP1 PUSH1 0x0 MSTORE PUSH1 0x20 PUSH1 0x0 KECCAK256 ADD PUSH1 0x0 SWAP1 SLOAD SWAP1 PUSH2 0x100 EXP SWAP1 DIV PUSH20 0xFFFFFFFFFFFFFFFFFFFFFFFFFFFFFFFFFFFFFFFF AND PUSH20 0xFFFFFFFFFFFFFFFFFFFFFFFFFFFFFFFFFFFFFFFF AND PUSH20 0xFFFFFFFFFFFFFFFFFFFFFFFFFFFFFFFFFFFFFFFF AND DUP2 MSTORE PUSH1 0x20 ADD SWAP1 DUP2 MSTORE PUSH1 0x20 ADD PUSH1 0x0 KECCAK256 PUSH1 0x0 SWAP1 SLOAD SWAP1 PUSH2 0x100 EXP SWAP1 DIV PUSH1 0xFF AND ISZERO PUSH2 0x163E JUMPI PUSH1 0x3 DUP2 DUP2 SLOAD DUP2 LT ISZERO ISZERO PUSH2 0x15C2 JUMPI INVALID JUMPDEST SWAP1 PUSH1 0x0 MSTORE PUSH1 0x20 PUSH1 0x0 KECCAK256 ADD PUSH1 0x0 SWAP1 SLOAD SWAP1 PUSH2 0x100 EXP SWAP1 DIV PUSH20 0xFFFFFFFFFFFFFFFFFFFFFFFFFFFFFFFFFFFFFFFF AND DUP4 DUP4 DUP2 MLOAD DUP2 LT ISZERO ISZERO PUSH2 0x15FB JUMPI INVALID JUMPDEST SWAP1 PUSH1 0x20 ADD SWAP1 PUSH1 0x20 MUL ADD SWAP1 PUSH20 0xFFFFFFFFFFFFFFFFFFFFFFFFFFFFFFFFFFFFFFFF AND SWAP1 DUP2 PUSH20 0xFFFFFFFFFFFFFFFFFFFFFFFFFFFFFFFFFFFFFFFF AND DUP2 MSTORE POP POP PUSH1 0x1 DUP3 ADD SWAP2 POP JUMPDEST DUP1 DUP1 PUSH1 0x1 ADD SWAP2 POP POP PUSH2 0x150A JUMP JUMPDEST DUP2 PUSH1 0x40 MLOAD SWAP1 DUP1 DUP3 MSTORE DUP1 PUSH1 0x20 MUL PUSH1 0x20 ADD DUP3 ADD PUSH1 0x40 MSTORE DUP1 ISZERO PUSH2 0x167A JUMPI DUP2 PUSH1 0x20 ADD PUSH1 0x20 DUP3 MUL DUP1 CODESIZE DUP4 CODECOPY DUP1 DUP3 ADD SWAP2 POP POP SWAP1 POP JUMPDEST POP SWAP4 POP PUSH1 0x0 SWAP1 POP JUMPDEST DUP2 DUP2 LT ISZERO PUSH2 0x16F9 JUMPI DUP3 DUP2 DUP2 MLOAD DUP2 LT ISZERO ISZERO PUSH2 0x1698 JUMPI INVALID JUMPDEST SWAP1 PUSH1 0x20 ADD SWAP1 PUSH1 0x20 MUL ADD MLOAD DUP5 DUP3 DUP2 MLOAD DUP2 LT ISZERO ISZERO PUSH2 0x16B0 JUMPI INVALID JUMPDEST SWAP1 PUSH1 0x20 ADD SWAP1 PUSH1 0x20 MUL ADD SWAP1 PUSH20 0xFFFFFFFFFFFFFFFFFFFFFFFFFFFFFFFFFFFFFFFF AND SWAP1 DUP2 PUSH20 0xFFFFFFFFFFFFFFFFFFFFFFFFFFFFFFFFFFFFFFFF AND DUP2 MSTORE POP POP DUP1 DUP1 PUSH1 0x1 ADD SWAP2 POP POP PUSH2 0x1682 JUMP JUMPDEST POP POP POP SWAP2 SWAP1 POP JUMP JUMPDEST PUSH1 0x5 SLOAD DUP2 JUMP JUMPDEST ADDRESS PUSH20 0xFFFFFFFFFFFFFFFFFFFFFFFFFFFFFFFFFFFFFFFF AND CALLER PUSH20 0xFFFFFFFFFFFFFFFFFFFFFFFFFFFFFFFFFFFFFFFF AND EQ ISZERO ISZERO PUSH2 0x1741 JUMPI PUSH1 0x0 DUP1 REVERT JUMPDEST PUSH1 0x3 DUP1 SLOAD SWAP1 POP DUP2 PUSH1 0x32 DUP3 GT ISZERO DUP1 ISZERO PUSH2 0x1759 JUMPI POP DUP2 DUP2 GT ISZERO JUMPDEST DUP1 ISZERO PUSH2 0x1766 JUMPI POP PUSH1 0x0 DUP2 EQ ISZERO JUMPDEST DUP1 ISZERO PUSH2 0x1773 JUMPI POP PUSH1 0x0 DUP3 EQ ISZERO JUMPDEST ISZERO ISZERO PUSH2 0x177E JUMPI PUSH1 0x0 DUP1 REVERT JUMPDEST DUP3 PUSH1 0x4 DUP2 SWAP1 SSTORE POP PUSH32 0xA3F1EE9126A074D9326C682F561767F710E927FAA811F7A99829D49DC421797A DUP4 PUSH1 0x40 MLOAD DUP1 DUP3 DUP2 MSTORE PUSH1 0x20 ADD SWAP2 POP POP PUSH1 0x40 MLOAD DUP1 SWAP2 SUB SWAP1 LOG1 POP POP POP JUMP JUMPDEST CALLER PUSH1 0x2 PUSH1 0x0 DUP3 PUSH20 0xFFFFFFFFFFFFFFFFFFFFFFFFFFFFFFFFFFFFFFFF AND PUSH20 0xFFFFFFFFFFFFFFFFFFFFFFFFFFFFFFFFFFFFFFFF AND DUP2 MSTORE PUSH1 0x20 ADD SWAP1 DUP2 MSTORE PUSH1 0x20 ADD PUSH1 0x0 KECCAK256 PUSH1 0x0 SWAP1 SLOAD SWAP1 PUSH2 0x100 EXP SWAP1 DIV PUSH1 0xFF AND ISZERO ISZERO PUSH2 0x181A JUMPI PUSH1 0x0 DUP1 REVERT JUMPDEST DUP2 PUSH1 0x0 DUP1 PUSH1 0x0 DUP4 DUP2 MSTORE PUSH1 0x20 ADD SWAP1 DUP2 MSTORE PUSH1 0x20 ADD PUSH1 0x0 KECCAK256 PUSH1 0x0 ADD PUSH1 0x0 SWAP1 SLOAD SWAP1 PUSH2 0x100 EXP SWAP1 DIV PUSH20 0xFFFFFFFFFFFFFFFFFFFFFFFFFFFFFFFFFFFFFFFF AND PUSH20 0xFFFFFFFFFFFFFFFFFFFFFFFFFFFFFFFFFFFFFFFF AND EQ ISZERO ISZERO ISZERO PUSH2 0x1876 JUMPI PUSH1 0x0 DUP1 REVERT JUMPDEST DUP3 CALLER PUSH1 0x1 PUSH1 0x0 DUP4 DUP2 MSTORE PUSH1 0x20 ADD SWAP1 DUP2 MSTORE PUSH1 0x20 ADD PUSH1 0x0 KECCAK256 PUSH1 0x0 DUP3 PUSH20 0xFFFFFFFFFFFFFFFFFFFFFFFFFFFFFFFFFFFFFFFF AND PUSH20 0xFFFFFFFFFFFFFFFFFFFFFFFFFFFFFFFFFFFFFFFF AND DUP2 MSTORE PUSH1 0x20 ADD SWAP1 DUP2 MSTORE PUSH1 0x20 ADD PUSH1 0x0 KECCAK256 PUSH1 0x0 SWAP1 SLOAD SWAP1 PUSH2 0x100 EXP SWAP1 DIV PUSH1 0xFF AND ISZERO ISZERO ISZERO PUSH2 0x18E2 JUMPI PUSH1 0x0 DUP1 REVERT JUMPDEST PUSH1 0x1 DUP1 PUSH1 0x0 DUP8 DUP2 MSTORE PUSH1 0x20 ADD SWAP1 DUP2 MSTORE PUSH1 0x20 ADD PUSH1 0x0 KECCAK256 PUSH1 0x0 CALLER PUSH20 0xFFFFFFFFFFFFFFFFFFFFFFFFFFFFFFFFFFFFFFFF AND PUSH20 0xFFFFFFFFFFFFFFFFFFFFFFFFFFFFFFFFFFFFFFFF AND DUP2 MSTORE PUSH1 0x20 ADD SWAP1 DUP2 MSTORE PUSH1 0x20 ADD PUSH1 0x0 KECCAK256 PUSH1 0x0 PUSH2 0x100 EXP DUP2 SLOAD DUP2 PUSH1 0xFF MUL NOT AND SWAP1 DUP4 ISZERO ISZERO MUL OR SWAP1 SSTORE POP DUP5 CALLER PUSH20 0xFFFFFFFFFFFFFFFFFFFFFFFFFFFFFFFFFFFFFFFF AND PUSH32 0x4A504A94899432A9846E1AA406DCEB1BCFD538BB839071D49D1E5E23F5BE30EF PUSH1 0x40 MLOAD PUSH1 0x40 MLOAD DUP1 SWAP2 SUB SWAP1 LOG3 PUSH2 0x1997 DUP6 PUSH2 0x1CDD JUMP JUMPDEST POP POP POP POP POP JUMP JUMPDEST PUSH1 0x0 PUSH2 0x19AB DUP5 DUP5 DUP5 PUSH2 0x1F85 JUMP JUMPDEST SWAP1 POP PUSH2 0x19B6 DUP2 PUSH2 0x17C1 JUMP JUMPDEST SWAP4 SWAP3 POP POP POP JUMP JUMPDEST PUSH1 0x32 DUP2 JUMP JUMPDEST PUSH1 0x4 SLOAD DUP2 JUMP JUMPDEST PUSH1 0x0 ADDRESS PUSH20 0xFFFFFFFFFFFFFFFFFFFFFFFFFFFFFFFFFFFFFFFF AND CALLER PUSH20 0xFFFFFFFFFFFFFFFFFFFFFFFFFFFFFFFFFFFFFFFF AND EQ ISZERO ISZERO PUSH2 0x1A04 JUMPI PUSH1 0x0 DUP1 REVERT JUMPDEST DUP3 PUSH1 0x2 PUSH1 0x0 DUP3 PUSH20 0xFFFFFFFFFFFFFFFFFFFFFFFFFFFFFFFFFFFFFFFF AND PUSH20 0xFFFFFFFFFFFFFFFFFFFFFFFFFFFFFFFFFFFFFFFF AND DUP2 MSTORE PUSH1 0x20 ADD SWAP1 DUP2 MSTORE PUSH1 0x20 ADD PUSH1 0x0 KECCAK256 PUSH1 0x0 SWAP1 SLOAD SWAP1 PUSH2 0x100 EXP SWAP1 DIV PUSH1 0xFF AND ISZERO ISZERO PUSH2 0x1A5D JUMPI PUSH1 0x0 DUP1 REVERT JUMPDEST DUP3 PUSH1 0x2 PUSH1 0x0 DUP3 PUSH20 0xFFFFFFFFFFFFFFFFFFFFFFFFFFFFFFFFFFFFFFFF AND PUSH20 0xFFFFFFFFFFFFFFFFFFFFFFFFFFFFFFFFFFFFFFFF AND DUP2 MSTORE PUSH1 0x20 ADD SWAP1 DUP2 MSTORE PUSH1 0x20 ADD PUSH1 0x0 KECCAK256 PUSH1 0x0 SWAP1 SLOAD SWAP1 PUSH2 0x100 EXP SWAP1 DIV PUSH1 0xFF AND ISZERO ISZERO ISZERO PUSH2 0x1AB7 JUMPI PUSH1 0x0 DUP1 REVERT JUMPDEST PUSH1 0x0 SWAP3 POP JUMPDEST PUSH1 0x3 DUP1 SLOAD SWAP1 POP DUP4 LT ISZERO PUSH2 0x1BA0 JUMPI DUP5 PUSH20 0xFFFFFFFFFFFFFFFFFFFFFFFFFFFFFFFFFFFFFFFF AND PUSH1 0x3 DUP5 DUP2 SLOAD DUP2 LT ISZERO ISZERO PUSH2 0x1AEF JUMPI INVALID JUMPDEST SWAP1 PUSH1 0x0 MSTORE PUSH1 0x20 PUSH1 0x0 KECCAK256 ADD PUSH1 0x0 SWAP1 SLOAD SWAP1 PUSH2 0x100 EXP SWAP1 DIV PUSH20 0xFFFFFFFFFFFFFFFFFFFFFFFFFFFFFFFFFFFFFFFF AND PUSH20 0xFFFFFFFFFFFFFFFFFFFFFFFFFFFFFFFFFFFFFFFF AND EQ ISZERO PUSH2 0x1B93 JUMPI DUP4 PUSH1 0x3 DUP5 DUP2 SLOAD DUP2 LT ISZERO ISZERO PUSH2 0x1B46 JUMPI INVALID JUMPDEST SWAP1 PUSH1 0x0 MSTORE PUSH1 0x20 PUSH1 0x0 KECCAK256 ADD PUSH1 0x0 PUSH2 0x100 EXP DUP2 SLOAD DUP2 PUSH20 0xFFFFFFFFFFFFFFFFFFFFFFFFFFFFFFFFFFFFFFFF MUL NOT AND SWAP1 DUP4 PUSH20 0xFFFFFFFFFFFFFFFFFFFFFFFFFFFFFFFFFFFFFFFF AND MUL OR SWAP1 SSTORE POP PUSH2 0x1BA0 JUMP JUMPDEST DUP3 DUP1 PUSH1 0x1 ADD SWAP4 POP POP PUSH2 0x1ABC JUMP JUMPDEST PUSH1 0x0 PUSH1 0x2 PUSH1 0x0 DUP8 PUSH20 0xFFFFFFFFFFFFFFFFFFFFFFFFFFFFFFFFFFFFFFFF AND PUSH20 0xFFFFFFFFFFFFFFFFFFFFFFFFFFFFFFFFFFFFFFFF AND DUP2 MSTORE PUSH1 0x20 ADD SWAP1 DUP2 MSTORE PUSH1 0x20 ADD PUSH1 0x0 KECCAK256 PUSH1 0x0 PUSH2 0x100 EXP DUP2 SLOAD DUP2 PUSH1 0xFF MUL NOT AND SWAP1 DUP4 ISZERO ISZERO MUL OR SWAP1 SSTORE POP PUSH1 0x1 PUSH1 0x2 PUSH1 0x0 DUP7 PUSH20 0xFFFFFFFFFFFFFFFFFFFFFFFFFFFFFFFFFFFFFFFF AND PUSH20 0xFFFFFFFFFFFFFFFFFFFFFFFFFFFFFFFFFFFFFFFF AND DUP2 MSTORE PUSH1 0x20 ADD SWAP1 DUP2 MSTORE PUSH1 0x20 ADD PUSH1 0x0 KECCAK256 PUSH1 0x0 PUSH2 0x100 EXP DUP2 SLOAD DUP2 PUSH1 0xFF MUL NOT AND SWAP1 DUP4 ISZERO ISZERO MUL OR SWAP1 SSTORE POP DUP5 PUSH20 0xFFFFFFFFFFFFFFFFFFFFFFFFFFFFFFFFFFFFFFFF AND PUSH32 0x8001553A916EF2F495D26A907CC54D96ED840D7BDA71E73194BF5A9DF7A76B90 PUSH1 0x40 MLOAD PUSH1 0x40 MLOAD DUP1 SWAP2 SUB SWAP1 LOG2 DUP4 PUSH20 0xFFFFFFFFFFFFFFFFFFFFFFFFFFFFFFFFFFFFFFFF AND PUSH32 0xF39E6E1EB0EDCF53C221607B54B00CD28F3196FED0A24994DC308B8F611B682D PUSH1 0x40 MLOAD PUSH1 0x40 MLOAD DUP1 SWAP2 SUB SWAP1 LOG2 POP POP POP POP POP JUMP JUMPDEST PUSH1 0x0 CALLER PUSH1 0x2 PUSH1 0x0 DUP3 PUSH20 0xFFFFFFFFFFFFFFFFFFFFFFFFFFFFFFFFFFFFFFFF AND PUSH20 0xFFFFFFFFFFFFFFFFFFFFFFFFFFFFFFFFFFFFFFFF AND DUP2 MSTORE PUSH1 0x20 ADD SWAP1 DUP2 MSTORE PUSH1 0x20 ADD PUSH1 0x0 KECCAK256 PUSH1 0x0 SWAP1 SLOAD SWAP1 PUSH2 0x100 EXP SWAP1 DIV PUSH1 0xFF AND ISZERO ISZERO PUSH2 0x1D38 JUMPI PUSH1 0x0 DUP1 REVERT JUMPDEST DUP3 CALLER PUSH1 0x1 PUSH1 0x0 DUP4 DUP2 MSTORE PUSH1 0x20 ADD SWAP1 DUP2 MSTORE PUSH1 0x20 ADD PUSH1 0x0 KECCAK256 PUSH1 0x0 DUP3 PUSH20 0xFFFFFFFFFFFFFFFFFFFFFFFFFFFFFFFFFFFFFFFF AND PUSH20 0xFFFFFFFFFFFFFFFFFFFFFFFFFFFFFFFFFFFFFFFF AND DUP2 MSTORE PUSH1 0x20 ADD SWAP1 DUP2 MSTORE PUSH1 0x20 ADD PUSH1 0x0 KECCAK256 PUSH1 0x0 SWAP1 SLOAD SWAP1 PUSH2 0x100 EXP SWAP1 DIV PUSH1 0xFF AND ISZERO ISZERO PUSH2 0x1DA3 JUMPI PUSH1 0x0 DUP1 REVERT JUMPDEST DUP5 PUSH1 0x0 DUP1 DUP3 DUP2 MSTORE PUSH1 0x20 ADD SWAP1 DUP2 MSTORE PUSH1 0x20 ADD PUSH1 0x0 KECCAK256 PUSH1 0x3 ADD PUSH1 0x0 SWAP1 SLOAD SWAP1 PUSH2 0x100 EXP SWAP1 DIV PUSH1 0xFF AND ISZERO ISZERO ISZERO PUSH2 0x1DD3 JUMPI PUSH1 0x0 DUP1 REVERT JUMPDEST PUSH2 0x1DDC DUP7 PUSH2 0x1020 JUMP JUMPDEST ISZERO PUSH2 0x1F7D JUMPI PUSH1 0x0 DUP1 DUP8 DUP2 MSTORE PUSH1 0x20 ADD SWAP1 DUP2 MSTORE PUSH1 0x20 ADD PUSH1 0x0 KECCAK256 SWAP5 POP PUSH1 0x1 DUP6 PUSH1 0x3 ADD PUSH1 0x0 PUSH2 0x100 EXP DUP2 SLOAD DUP2 PUSH1 0xFF MUL NOT AND SWAP1 DUP4 ISZERO ISZERO MUL OR SWAP1 SSTORE POP PUSH2 0x1EFA DUP6 PUSH1 0x0 ADD PUSH1 0x0 SWAP1 SLOAD SWAP1 PUSH2 0x100 EXP SWAP1 DIV PUSH20 0xFFFFFFFFFFFFFFFFFFFFFFFFFFFFFFFFFFFFFFFF AND DUP7 PUSH1 0x1 ADD SLOAD DUP8 PUSH1 0x2 ADD DUP1 SLOAD PUSH1 0x1 DUP2 PUSH1 0x1 AND ISZERO PUSH2 0x100 MUL SUB AND PUSH1 0x2 SWAP1 DIV SWAP1 POP DUP9 PUSH1 0x2 ADD DUP1 SLOAD PUSH1 0x1 DUP2 PUSH1 0x1 AND ISZERO PUSH2 0x100 MUL SUB AND PUSH1 0x2 SWAP1 DIV DUP1 PUSH1 0x1F ADD PUSH1 0x20 DUP1 SWAP2 DIV MUL PUSH1 0x20 ADD PUSH1 0x40 MLOAD SWAP1 DUP2 ADD PUSH1 0x40 MSTORE DUP1 SWAP3 SWAP2 SWAP1 DUP2 DUP2 MSTORE PUSH1 0x20 ADD DUP3 DUP1 SLOAD PUSH1 0x1 DUP2 PUSH1 0x1 AND ISZERO PUSH2 0x100 MUL SUB AND PUSH1 0x2 SWAP1 DIV DUP1 ISZERO PUSH2 0x1EF0 JUMPI DUP1 PUSH1 0x1F LT PUSH2 0x1EC5 JUMPI PUSH2 0x100 DUP1 DUP4 SLOAD DIV MUL DUP4 MSTORE SWAP2 PUSH1 0x20 ADD SWAP2 PUSH2 0x1EF0 JUMP JUMPDEST DUP3 ADD SWAP2 SWAP1 PUSH1 0x0 MSTORE PUSH1 0x20 PUSH1 0x0 KECCAK256 SWAP1 JUMPDEST DUP2 SLOAD DUP2 MSTORE SWAP1 PUSH1 0x1 ADD SWAP1 PUSH1 0x20 ADD DUP1 DUP4 GT PUSH2 0x1ED3 JUMPI DUP3 SWAP1 SUB PUSH1 0x1F AND DUP3 ADD SWAP2 JUMPDEST POP POP POP POP POP PUSH2 0x20D7 JUMP JUMPDEST ISZERO PUSH2 0x1F31 JUMPI DUP6 PUSH32 0x33E13ECB54C3076D8E8BB8C2881800A4D972B792045FFAE98FDF46DF365FED75 PUSH1 0x40 MLOAD PUSH1 0x40 MLOAD DUP1 SWAP2 SUB SWAP1 LOG2 PUSH2 0x1F7C JUMP JUMPDEST DUP6 PUSH32 0x526441BB6C1ABA3C9A4A6CA1D6545DA9C2333C8C48343EF398EB858D72B79236 PUSH1 0x40 MLOAD PUSH1 0x40 MLOAD DUP1 SWAP2 SUB SWAP1 LOG2 PUSH1 0x0 DUP6 PUSH1 0x3 ADD PUSH1 0x0 PUSH2 0x100 EXP DUP2 SLOAD DUP2 PUSH1 0xFF MUL NOT AND SWAP1 DUP4 ISZERO ISZERO MUL OR SWAP1 SSTORE POP JUMPDEST JUMPDEST POP POP POP POP POP POP JUMP JUMPDEST PUSH1 0x0 DUP4 PUSH1 0x0 DUP2 PUSH20 0xFFFFFFFFFFFFFFFFFFFFFFFFFFFFFFFFFFFFFFFF AND EQ ISZERO ISZERO ISZERO PUSH2 0x1FAE JUMPI PUSH1 0x0 DUP1 REVERT JUMPDEST PUSH1 0x5 SLOAD SWAP2 POP PUSH1 0x80 PUSH1 0x40 MLOAD SWAP1 DUP2 ADD PUSH1 0x40 MSTORE DUP1 DUP7 PUSH20 0xFFFFFFFFFFFFFFFFFFFFFFFFFFFFFFFFFFFFFFFF AND DUP2 MSTORE PUSH1 0x20 ADD DUP6 DUP2 MSTORE PUSH1 0x20 ADD DUP5 DUP2 MSTORE PUSH1 0x20 ADD PUSH1 0x0 ISZERO ISZERO DUP2 MSTORE POP PUSH1 0x0 DUP1 DUP5 DUP2 MSTORE PUSH1 0x20 ADD SWAP1 DUP2 MSTORE PUSH1 0x20 ADD PUSH1 0x0 KECCAK256 PUSH1 0x0 DUP3 ADD MLOAD DUP2 PUSH1 0x0 ADD PUSH1 0x0 PUSH2 0x100 EXP DUP2 SLOAD DUP2 PUSH20 0xFFFFFFFFFFFFFFFFFFFFFFFFFFFFFFFFFFFFFFFF MUL NOT AND SWAP1 DUP4 PUSH20 0xFFFFFFFFFFFFFFFFFFFFFFFFFFFFFFFFFFFFFFFF AND MUL OR SWAP1 SSTORE POP PUSH1 0x20 DUP3 ADD MLOAD DUP2 PUSH1 0x1 ADD SSTORE PUSH1 0x40 DUP3 ADD MLOAD DUP2 PUSH1 0x2 ADD SWAP1 DUP1 MLOAD SWAP1 PUSH1 0x20 ADD SWAP1 PUSH2 0x206D SWAP3 SWAP2 SWAP1 PUSH2 0x212A JUMP JUMPDEST POP PUSH1 0x60 DUP3 ADD MLOAD DUP2 PUSH1 0x3 ADD PUSH1 0x0 PUSH2 0x100 EXP DUP2 SLOAD DUP2 PUSH1 0xFF MUL NOT AND SWAP1 DUP4 ISZERO ISZERO MUL OR SWAP1 SSTORE POP SWAP1 POP POP PUSH1 0x1 PUSH1 0x5 PUSH1 0x0 DUP3 DUP3 SLOAD ADD SWAP3 POP POP DUP2 SWAP1 SSTORE POP DUP2 PUSH32 0xC0BA8FE4B176C1714197D43B9CC6BCF797A4A7461C5FE8D0EF6E184AE7601E51 PUSH1 0x40 MLOAD PUSH1 0x40 MLOAD DUP1 SWAP2 SUB SWAP1 LOG2 POP SWAP4 SWAP3 POP POP POP JUMP JUMPDEST PUSH1 0x0 DUP1 PUSH1 0x40 MLOAD PUSH1 0x20 DUP5 ADD PUSH1 0x0 DUP3 DUP8 DUP4 DUP11 DUP13 PUSH2 0x8796 GAS SUB CALL SWAP3 POP POP POP DUP1 SWAP2 POP POP SWAP5 SWAP4 POP POP POP POP JUMP JUMPDEST DUP2 SLOAD DUP2 DUP4 SSTORE DUP2 DUP2 GT ISZERO PUSH2 0x2125 JUMPI DUP2 DUP4 PUSH1 0x0 MSTORE PUSH1 0x20 PUSH1 0x0 KECCAK256 SWAP2 DUP3 ADD SWAP2 ADD PUSH2 0x2124 SWAP2 SWAP1 PUSH2 0x21AA JUMP JUMPDEST JUMPDEST POP POP POP JUMP JUMPDEST DUP3 DUP1 SLOAD PUSH1 0x1 DUP2 PUSH1 0x1 AND ISZERO PUSH2 0x100 MUL SUB AND PUSH1 0x2 SWAP1 DIV SWAP1 PUSH1 0x0 MSTORE PUSH1 0x20 PUSH1 0x0 KECCAK256 SWAP1 PUSH1 0x1F ADD PUSH1 0x20 SWAP1 DIV DUP2 ADD SWAP3 DUP3 PUSH1 0x1F LT PUSH2 0x216B JUMPI DUP1 MLOAD PUSH1 0xFF NOT AND DUP4 DUP1 ADD OR DUP6 SSTORE PUSH2 0x2199 JUMP JUMPDEST DUP3 DUP1 ADD PUSH1 0x1 ADD DUP6 SSTORE DUP3 ISZERO PUSH2 0x2199 JUMPI SWAP2 DUP3 ADD JUMPDEST DUP3 DUP2 GT ISZERO PUSH2 0x2198 JUMPI DUP3 MLOAD DUP3 SSTORE SWAP2 PUSH1 0x20 ADD SWAP2 SWAP1 PUSH1 0x1 ADD SWAP1 PUSH2 0x217D JUMP JUMPDEST JUMPDEST POP SWAP1 POP PUSH2 0x21A6 SWAP2 SWAP1 PUSH2 0x21AA JUMP JUMPDEST POP SWAP1 JUMP JUMPDEST PUSH2 0x21CC SWAP2 SWAP1 JUMPDEST DUP1 DUP3 GT ISZERO PUSH2 0x21C8 JUMPI PUSH1 0x0 DUP2 PUSH1 0x0 SWAP1 SSTORE POP PUSH1 0x1 ADD PUSH2 0x21B0 JUMP JUMPDEST POP SWAP1 JUMP JUMPDEST SWAP1 JUMP STOP LOG1 PUSH6 0x627A7A723058 KECCAK256 PUSH32 0x70106AF20CB1FCC7808BF43524BB09136E653B8166044090F7660D20E444CB00 0x29 LOG1 PUSH6 0x627A7A723058 KECCAK256 0x4c PUSH21 0xBD11A698D490AEC665EE46C473C03FAB61E69A9AF9 PUSH5 0x91C26AFC4E CALLDATASIZE 0xa9 CALLCODE STOP 0x29 "
				},
				"gasEstimates": {
					"creation": {
						"codeDepositCost": "2160600",
						"executionCost": "2302",
						"totalCost": "2162902"
					},
					"external": {
						"create(address[],uint256)": "infinite",
						"getInstantiationCount(address)": "611",
						"instantiations(address,uint256)": "912",
						"isInstantiation(address)": "569"
					}
				},
				"methodIdentifiers": {
					"create(address[],uint256)": "f8f73808",
					"getInstantiationCount(address)": "8f838478",
					"instantiations(address,uint256)": "57183c82",
					"isInstantiation(address)": "2f4f3316"
				}
			},
			"userdoc": {
				"methods": {}
			}
		}
	}
}